:020000040800F2
:100000000000052001030008090300080B03000895
:100010000D0300080F030008110300080000000092
:1000200000000000000000000000000013030008B2
:10003000150300080000000017030008190300085A
:100040001B0300081B0300081B0300081B03000818
:100050001B0300081B0300081B0300081B03000808
:100060001B0300081B0300081B0300081B030008F8
:100070001B0300081B0300081B0300081B030008E8
:100080001B0300081B0300081B0300081B030008D8
:100090001B0300081B0300081B0300081B030008C8
:1000A0001B0300081B0300081B0300081B030008B8
:1000B0001B0300081B0300081B0300081B030008A8
:1000C0001B0300081B0300081B0300081B03000898
:1000D0001B0300081B0300081B0300081B03000888
:1000E0001B0300081B0300081B0300081B03000878
:1000F0001B0300081B0300081B0300081B03000868
:100100001B0300081B0300081B0300081B03000857
:100110001B0300081B0300081B0300081B03000847
:100120001B0300081B0300081B0300081B03000837
:100130001B0300081B0300081B0300081B03000827
:100140001B0300081B0300081B0300081B03000817
:100150001B0300081B0300081B0300081B03000807
:100160001B0300081B0300081B0300081B030008F7
:100170001B0300081B0300081B030008000000000D
:100180001B0300081B0300081B0300081B030008D7
:100190001B0300081B0300081B0300081B030008C7
:1001A0001B0300081B0300081B0300081B030008B7
:1001B0001B03000800F002F800F098F80AA090E88D
:1001C000000C82448344AAF10107DA4501D100F012
:1001D0008DF8AFF2090EBAE80F0013F0010F18BF47
:1001E000FB1A43F0010318479C4E0000BC4E000070
:1001F000103A24BF78C878C1FAD8520724BF30C853
:1002000030C144BF04680C60704700000023002424
:1002100000250026103A28BF78C1FBD8520728BF16
:1002200030C148BF0B6070476E2900F08183702990
:1002300000F0B784662904F0B684652904F0B3841D
:10024000672904F0B084612904F0AF8403681B0AB5
:1002500028BF41F08001692900F02E83642900F055
:100260002B83752900F028836F2900F045847829B5
:1002700000F08384E92900F0DF83E42900F0DC83C7
:10028000F52900F0D983EF2900F04284F82900F025
:1002900082840368DB0928BF41F08001632901F0F3
:1002A000F183732901F0F683E32901F00184F32936
:1002B00001F00684002070471FB504F06FFC9DE834
:1002C000030000F055FF01F0B1FE04000020002102
:1002D00004F04EFC401C60600020002104F032FC61
:1002E000E06000F08DFE00F01DFA1FBD03F058FE27
:1002F0001146FFF7E1FF02F0A2FC03F089FF0000C6
:100300000648804706480047FEE7FEE7FEE7FEE7AF
:10031000FEE7FEE7FEE7FEE7FEE7FEE76D3A0008D0
:10032000B50100080B460146184600F015BB000059
:100330000FB400B58DB010A9099000910B904FF04B
:10034000FF300A9000200C9006487844069006483A
:1003500078446A4607900F9909A800F005FD0DB092
:100360005DF814FB3B0A0000530A00002DE9FF5F13
:100370001D464FF0FF3B91464FF000085F46D5E920
:100380000146A96901987F1C8847296A82468847E7
:100390000028F6D1BAF1FF3F0CD0002E24F4C0643F
:1003A00019DD600614D5BAF12B0F09D0BAF12D0F63
:1003B0000ED103E0584604B0BDE8F09F44F48064D9
:1003C000A96901987F1C8847761E8246002E02DDAF
:1003D000BAF1300F03D0B9F1000F26D032E0A9698D
:1003E000761E01987F1C44F400748847002E8246D4
:1003F00005DDBAF1780F06D0BAF1580F03D0B9F184
:10040000000F10D01EE0B9F1000F02D0B9F1100FAB
:1004100018D1A969761E01987F1C24F400748847BE
:100420008246102002E0082000E00A20814609E010
:10043000A96908FB0908761E01987F1C44F4007422
:1004400088478246002E05DD4946504600F078FC7C
:100450000028EDDAE96901988847A00502D46FF019
:100460000100A8E7E00725D1600613D5600502D595
:10047000C8F1000000E0404629680A1D2A600968AA
:10048000220501D5087015E0220701D5088011E08A
:1004900008600FE02868011D29600068210502D569
:1004A00080F8008006E0210702D5A0F8008001E076
:1004B000C0F8008038467EE770B50446C068810702
:1004C00013D0800601D5A56A04E0A16960680844DC
:1004D0002169451A204600F04FFD002206462946B4
:1004E000204600F075FC304670BD002070BD70B530
:1004F00010B1BDE87040DFE70025074C6E1E07E035
:100500002046FFF7D9FF00B13546206D20F00104E9
:10051000002CF5D1284670BD6C03002010B5431C9B
:1005200002E010F8011B71B18107FAD14FF00132DE
:1005300002C88C1A8C4314EAC211F9D0C01A0A06F8
:1005400003D0C01E10BDC01A10BD0A0401D0801E09
:1005500010BD0902FCD0401E10BD40EA010370B579
:100560009B072ED14FF00136042A2AD308C810C9A0
:100570009D1B9D43121F15EAC61517D0D8B2E1B2D4
:10058000401A50EA056110D198B2A1B2401A50EA5F
:1005900005410AD123F07F4024F07F41401A50EA00
:1005A000052102D1180EA0EB146070BDA342DBD070
:1005B00018BA21BA884201D9012070BD4FF0FF302E
:1005C00070BD0AB9002070BD10F8013B11F8014B55
:1005D00063B1A3420AD1521E08D010F8013B11F8B2
:1005E000014B1BB1A34201D1521EEDD1181B70BDAE
:1005F00010B5203AC0F00B80B1E81850203AA0E8BE
:100600001850B1E81850A0E81850BFF4F5AF5FEAF1
:10061000027C24BFB1E81850A0E8185044BF18C9A4
:1006200018C0BDE810405FEA827C24BF51F8043B4B
:1006300040F8043B08BF7047D20728BF31F8023B9F
:1006400048BF11F8012B28BF20F8023B48BF00F833
:10065000012B70474FF0000200B5134694469646B2
:10066000203922BFA0E80C50A0E80C50B1F12001C5
:10067000BFF4F7AF090728BFA0E80C5048BF0CC073
:100680005DF804EB890028BF40F8042B08BF7047D1
:1006900048BF20F8022B11F0804F18BF00F8012B43
:1006A000704700004FF0013C50F8042B51F8043B18
:1006B0009A4221D1A2EB0C03934313EACC1317D136
:1006C00050F8042B51F8043B9A4215D1A2EB0C03CD
:1006D000934313EACC130BD150F8042B51F8043B8D
:1006E0009A4209D1A2EB0C03934313EACC13DBD05B
:1006F0004FF00000704700BFD01A01BAB1FA81F183
:1007000001F0180122FA01F0CB40C1F12001DBB267
:10071000C0B2C01A2CFA01F3D11A914311EAC311E5
:10072000E6D1704770B5064C7C44064D7D4403E02D
:10073000206820448047241DAC42F9D170BD0000E0
:10074000A44A0000A44A000070B5064600F0F4FC7C
:10075000056806F10B0020F00704B4429CBF00209E
:1007600070BD2B466A68BAB11068A04210D304F17C
:10077000080188423CBF5068586007D3516810197F
:1007800041601168091B016058601460101D70BD44
:1007900013465268002AE7D12146284600F0D4FCCF
:1007A0000028DED170BD70B50446051F00F0C4FC02
:1007B0000068002C14BF446870BD002C18BFAC4208
:1007C0003CBF20466468F8D301680A18AA4218BFE3
:1007D000456003D12A680546114401602868411923
:1007E000A1421CBF6C6070BD6168696021680844EB
:1007F000286070BD70B5044685690068C10601D5E2
:10080000302600E02026C00707D070BDD4E90121C2
:1008100030469047206A401C20626D1EF6D570BDA0
:1008200070B5044685690078C00707D170BDD4E96A
:10083000012120209047206A401C20626D1EF6D5C1
:1008400070BD09684A0501D540B27047C905FCD59D
:1008500000B2704709684A0501D5C0B27047C905A2
:10086000FCD580B2704770B50C460546012A05D00C
:100870002878800600D5EA69002302E0012305E01C
:100880005B1C934202D2E05C0028F9D1A869E6180B
:10089000C01AA861286A184428622846FFF7AAFFF0
:1008A00004E0D5E9012114F8010B9047B442F8D3D4
:1008B0002846FFF7B5FF70BD2DE9F041064600243C
:1008C00010687529314616A510D0FFF7BAFF002829
:1008D00002DA404213A507E031688A0701D512A564
:1008E00002E0490704D511A5012401E0FFF7B2FF9A
:1008F00000210A2206F1240709E0B0FBF2FCB0FB5C
:10090000F2F302FB1C00303078541846491C0028D2
:10091000F3D123462A463046BDE8F04100F0ACBC96
:10092000000000002D0000002B000000200000004F
:1009300011680268006A530501D508700AE0D30502
:1009400001D5088006E0130603D5C217C1E90002ED
:1009500000E0086001207047074B70B50D467B44EE
:1009600001F073F80446284600F02EFA10B14FF05B
:10097000FF3070BD204670BDCF3800002DE9FF5F0D
:1009800015468A460446DFF8AC80F8440027D8E9CB
:1009900000103E46CDE9001010E03AF816106A4605
:1009A00002A801F009FB411C07D02178890603D574
:1009B000E269391891420DD80744761C20788006E8
:1009C00002D5E069B84205DDAE42E6DB3AF8160032
:1009D0000028E2D1A069C01BA0612046FFF70AFFF2
:1009E000D8E90010CDE90010002017E03AF81810FF
:1009F0006A4602A801F0E0FAB0F1FF3F81460BD051
:100A000000250DF1080B05E0D4E901211BF80500D4
:100A100090476D1C4D45F7D308F10100B042804668
:100A2000E4DB206A384420622046FFF7F9FEBDE887
:100A3000FF9F0000124400002DE9F0418046D21DC6
:100A400022F007020025D2E90002F52915A614D0EC
:100A5000011E72F1000106DA0023D0EB030063EB04
:100A6000020211A608E0D8F800108B0701D50FA6E6
:100A700002E0490701D50EA601251146002408F120
:100A8000240704E000F0AAFB30323A55641C50EA17
:100A90000102F7D12B46324621464046BDE8F041DF
:100AA00000F0EABB000000002D0000002B00000059
:100AB0002000000030B4002100F1240408E002F01E
:100AC0000705D208303542EA4372DB086554491CF9
:100AD00052EA0305F3D10468002310A2250708D5C4
:100AE00004F020040C4304D0C46901230CA2641E4A
:100AF000C46130BC00F0C0BB10B50446214610688C
:100B0000FFF7A8FE02462046BDE810400023D1E7CB
:100B1000D21D22F00701D1E90023CBE7000000003D
:100B200030000000F0B40D460188090502D5214CC3
:100B30007C4402E01F4C7C440E34002100F124066A
:100B400008E002F00F071209E75D42EA03721B0991
:100B50007754491C52EA0307F3D1027800231207A5
:100B600004D5702D06D009B1022311342246F0BC01
:100B700000F082BB01231034F8E770B504460D463F
:100B800021461068FFF766FE024629462046BDE86A
:100B900070400023C6E7D21D22F00703D3E90023EB
:100BA000C0E70368126843F0200303600823C361B1
:100BB0000023B7E7744200002DE9F05F8946044640
:100BC0004FF0000ADFF874B1FB44C0F820A02046C3
:100BD000E1688847002874D0252806D0D4E901218F
:100BE0009047206A401C2062F1E700265F462046BD
:100BF000E16888472028054607DB312D05D27819A2
:100C000010F8200C08B10643F1E7B00701D526F033
:100C10000406C4F81CA00027C4F818A02A2D09D087
:100C2000284603F0C5F938B304EB8708303DC8F80F
:100C3000185019E059F8041B204604EB8702916113
:100C4000E1688847012F054618D1E069002820DABD
:100C500026F020061DE0D8F8180000EB800005EB18
:100C600040003038C8F818002046E168884705463B
:100C700003F09EF90028EED1012F0AD02E2D08D1C5
:100C80002046E16888477F1C0546022F46F0200673
:100C9000C4DBA069002803DA404246F00106A061E7
:100CA000F00701D026F010066C2D0BD0682D09D06E
:100CB0004C2D39D06A2D35D0742D35D07A2D33D0C6
:100CC00016E038E0E1682F4620468847B8420546DE
:100CD00009D16C2F26D04FF48060E168064320468E
:100CE0008847054604E06C2F1AD04FF48070064305
:100CF0000DB3A5F14100192802D8203546F400664D
:100D00004A462946204626604E46FFF78DFA80B1B6
:100D100001280BD0F61D26F0070000F1080956E760
:100D20004020E4E78020D8E70020D6E706F1040958
:100D30004DE7284652E7206ABDE8F09F04420000D4
:100D40003A2800D2303820F02002412A01D3A2F103
:100D50003700884201D34FF0FF30704702681144DA
:100D60001378016018467047D16005497944516194
:100D700004497944116200211161114600F0A4BEBA
:100D8000EDFFFFFFF1040000426842B1016811F875
:100D9000013B23B1521EC0E90012184670470121E1
:100DA000C160881E704742685AB1C368016843B980
:100DB00083688B4205D0491E521CC0E900120020F6
:100DC00070474FF0FF307047007B00F080007047A5
:100DD0002DE9F041044616460D464769007B800721
:100DE0002ED0384603F016F950BB3EB3012E02D088
:100DF000022E25D104E0204601F020F805441DE034
:100E0000384603F0F3F8E168002841F01001E16092
:100E100005DA204600F07CF80120BDE8F081C90326
:100E20000BD56268E16A914200D81146A26911446B
:100E30002269891A814200DD08460544002D01DA45
:100E40000220EAE7E16A6068E268814206D2910323
:100E5000E06203D522F4003141F01002A6690027B8
:100E6000AE4213DCE16A814201D90B4600E0034641
:100E700003EB060C2369ACEB030CAC4506DD8142A9
:100E800001D98C4600E084469C4505D1A7602760C7
:100E900042F02000A5620DE0AD1BE669AE1B814269
:100EA000A66000D90846C01A281A20605819606048
:100EB00022F0200003490840E060002084F84870D8
:100EC000ABE70000BFCFD7FF70B5C468A50713D04C
:100ED000650211D4B2F5807F09D0B2F5007F06D04B
:100EE000B2F5806F08D1012300F1240106E05D1EF8
:100EF0006FF07F46B54201D3012070BD0161C3612F
:100F0000416024F470611143C160002070BD000095
:100F1000C16821F4001141F08001C16000218160AD
:100F2000016070472DE9F047814614460E464FF0A8
:100F3000FF383248D5685769054209D03846A1695B
:100F400003F016F9002811DB2C48C0430540E5608A
:100F50002B4632464946384603F01EF9A16920F077
:100F60000042B21A11440028A16103D02046FFF7C5
:100F7000CFFF4046BDE8F08770B504460569C06AFA
:100F80006168884200D80846E16821F42011E160D8
:100F9000C90312D5A84208D02246411B2846FFF7B4
:100FA000C1FF10B14FF0FF3070BD0020E562C4E911
:100FB0000150E06820F48030E060002070BD10B582
:100FC0000446C06820F02000E060A16AA069884261
:100FD0000DD02046FFF7D0FFE06820F4405040F0ED
:100FE0001000E060A06AA0612069E062606044F2E5
:100FF0004001E0688843E06010BD0000100002007E
:1010000010B542485421FFF725FB41485421FFF712
:1010100021FB40485421FFF71DFB3F493B483C4A18
:101020003F4B08603D490A603A491960531C03650B
:10103000481C1065012008653B48344A39A17844B2
:1010400000F01EFF20B9384878440A3800F0D9FF74
:1010500037482F4A35A1784400F012FF20B93448B0
:1010600078440A3800F0CDFF32482A4A2FA178444C
:1010700000F006FF20B92F4878440A3800F0C1FF7D
:1010800040232248DC0000212246FFF71DFF20B14B
:1010900025487844543800F0B4FF1D4822464023C8
:1010A0000021FFF711FF20B121487844543800F0A7
:1010B000A8FF1848224610230021FFF705FF00284B
:1010C00006D01C487844BDE81040563800F099BF5F
:1010D00010BD104870B5006D20F001040B4800F001
:1010E00045FF0B4800F042FF0A4800F03FFF09E0CF
:1010F000206D20F00105204600F038FF2046FFF764
:1011000052FB2C46002CF3D170BD00006C03002074
:10111000C003002014040020D8010020DC010020BE
:10112000E0010020720000006C3B0000770000002E
:101130005B3B00004B3B0000004870476804002008
:10114000704770477047704738B504460A4600201C
:10115000694601F06CF9002808BF38BD02460099C5
:10116000204600F06BFF012038BD012001F04CB992
:10117000F8B501F051F9054600200C46102000BFDB
:101180000646A819A0420DD932466946002001F052
:101190004EF9070008BF01F037F90098A04218BFC8
:1011A0000546C419FFF7C8FF05600746F01D20F08B
:1011B00007004619284600F00AF8B44208BFF8BDF7
:1011C000A21B31463868BDE8F84000F037BF002167
:1011D0000160C0E9011070471020704730B5B0F1D0
:1011E0000A024FEA900E71F100034EEA817EB0EBE5
:1011F0000E0061EB91014FEA101E4EEA017E10EBEA
:101200000E0041EB11114FEA102E4EEA016E10EB69
:101210000E0041EB11214FEA104E4EEA014E10EB49
:101220000E0041EB1141401841F100014FEAD0009E
:1012300040EA41704FEAD10110EB80054FEA81048A
:1012400044EA907444EB01046D1944EB0404521B0E
:10125000A3414FF0000348BF0A3200D530BD401C07
:1012600041F1000130BD10B5044600F0D7FE006822
:10127000005D00F0010010BD2DE9F0470D469946D4
:101280009246044600F124080168880604D5E06906
:1012900021F01001216000E00120A84201DD471B80
:1012A00000E00027A1697A1902EB0900081AA06181
:1012B0002078C00602D42046FFF79CFA002608E0FA
:1012C000D4E901211AF806009047206A401C761CD8
:1012D00020624E45F4DB2078C0060AD52046FFF791
:1012E00089FA06E0D4E9012130209047206A401CA9
:1012F0002062381EA7F10107F4DC07E0D4E90121E0
:1013000018F805009047206A401C2062281EA5F1AD
:101310000105F3DC2046FFF783FA2078000602D5AA
:101320000220BDE8F0870120FBE770472DE9FF4F61
:101330000C461E464FF0FF378BB0D2E90001DDF8B6
:1013400060800A908A46C1F30A5505B93D460021DE
:1013500008464FF00000BAF1000F00F4400005DA33
:1013600000EB80004FF4400101EA50004FEA905931
:10137000B9F1010F00DDB9460A9850EA4A000ED0D3
:1013800044F61050A5F2FF3545432F14B8F1000F75
:101390001ED07542291E1EDDC9F100021CE0B8F105
:1013A000010F4FF0000001D0302103E0F24305E0CF
:1013B0002154401CB042FBDB304600220021215466
:1013C0000B99C1F80880C1E900200FB0BDE8F08F8B
:1013D000BD1B6D1CDEE74A4600DA694206A800F034
:1013E00087FE06AB93E8070003AB83E8070050468F
:1013F0000A9901F069F88DE80700A0F500501F3840
:1014000000900398002D09DD42F21F014A4608446E
:1014100003A90390684601F0C8FA08E0A0F500505F
:101420004A461F3803A90390684601F0D2FA8DE8B6
:1014300007000004000C03D04FF0FF30410800E02B
:101440001046B8F1000F03D00022009215461EE0AE
:10145000751E05D4FFF7C2FE303262556D1EF9D5F8
:10146000B3460122084302D000227F1C04E020780A
:10147000302801D100227F1E002A099786D01DE066
:10148000112D07DAFFF7AAFE303262556D1C50EAC3
:101490000102F5D1084302D00098C8B10EE0002146
:1014A000681E05E0235C625C63542254401E491CA4
:1014B0008142F7DBAB46A81B401E0990002004F8D0
:1014C0000B000B98099AC0F80880C0E9002B7CE754
:1014D00011264FF0000859E72DE9F04F88460446E1
:1014E000D21D22F0070191B0D1E90001CDE90A0136
:1014F00002F007FD02460B98C00F01D02D2007E037
:101500002068810701D52B2002E0202101EAC000DC
:10151000032A099001D0072A05DB034641462046ED
:1015200000F0A6FD0BE12078800601D5E06900E01F
:101530000620B8F1650F814606D0B8F1660F18D0C5
:10154000B8F1670F70D131E00020B9F1110F0090B0
:1015500001DB112301E009F101030AAA01A90CA88A
:10156000FFF7E4FEDDE90C70002609F10105834672
:1015700047E001204B4600904FF000470AAA01A91E
:101580000CA8FFF7D3FEDDE90DB00C995D460026EF
:1015900010B909F101000D18B9EB050003D4C0F131
:1015A000FF3609F10105A5EB09002BE0B9F1010FA8
:1015B00001DA4FF001090020B9F1110F00904846FF
:1015C00001DD112300E003460AAA01A90CA8FFF7D8
:1015D000ADFEDDE90C704D460026834620780007FD
:1015E0000AD4AB4500DA5D4601A8012D04DD41199E
:1015F00011F8011C302907D04F4502DA17F1040F0A
:1016000004DA012082460FE06D1EEEE7002F02DCB7
:10161000ED1B3E4403E0781CA84200DD7D1CB81B96
:1016200000F1010A4FF000472078000703D4AA45D3
:1016300001DB4FF0FF3A0021B7F1004F0DF14308F5
:101640008DF8431024D002202B23002F01DA7F4293
:101650002D230A21021EA0F1010000DC5FB197FBDF
:10166000F1FC97FBF1F201FB1C7C17460CF1300CEE
:1016700008F801CDEEE7A8F1010003702188090503
:1016800001D5452100E06521A0F1010800F8011C09
:1016900009980FA9A1EB0807FF1D00B1012041190E
:1016A00001EBEA70A1693844081A401EA061207855
:1016B000C00602D42046FFF79DF8099828B1D4E966
:1016C00001219047206A401C20622078C00622D564
:1016D0002046FFF78FF81EE0002E04DBB34502DD45
:1016E00001A8805D00E03020D4E901219047206A04
:1016F000401C2062761CAAF101005FEA000A0AD1B0
:1017000000F094FCC0680168405CD4E90121904776
:10171000206A401C2062281EA5F10105DCDC07E0E0
:10172000D4E9012118F8010B9047206A401C20627F
:10173000381EA7F10107F3DC2046FFF771F80320FC
:1017400011B043E62DE9F04F04460D46D21D22F0BC
:10175000070089B0D0E900974846394602F0D1FB2E
:101760000246F80F01D02D2307E02068810701D53C
:101770002B2302E0202101EAC0038DF820300BB1B9
:10178000012000E00020032A824601D0072A04DB62
:101790002946204600F06CFC3FE12078800601D409
:1017A0000D2500E0E569C7F30A560D2D49DA002141
:1017B0004FEA175B08464FF00000002F00F440008E
:1017C00007DA00EB80004FF4400100EBD07001EA33
:1017D00060008115012901DD4FF0FF3100224FEA41
:1017E000850CBCF1180F06D31346ACF118004FF06E
:1017F0008052C24003E04FF4801323FA0CF30CF143
:101800000C0CBCF1200F04D3ACF1200C09FA0CF045
:1018100001E007FA0CF000294FF0004801DD18B98B
:101820000FE00ED140450CD319EB02095F4121B9FD
:10183000404502D19F4329EA0209BBEB175F00D064
:10184000761C2088000502D57B48784402E07A485F
:101850007844193808AA302302F80A30037C0AF1C8
:101860000101002E0AF1020A53546A4602DC4FF0CD
:10187000300101E04FF031014FF001088DF8001008
:1018800002D0A6F2FF3603E059EA470100D06B4EC2
:10189000002D02DC2178090704D54FF002082E2123
:1018A0008DF80110C44600210BE0C7F303433F014C
:1018B000C35C491C6D1E02F80830052908F10108B7
:1018C00001DA002DF1DC00210CE000EB1973491C5A
:1018D0001B786D1E082902F808304FEA091908F133
:1018E000010801DA002DF0DC21688B0602D516E034
:1018F000A8F10108E04505DD02EB080313F8013CFF
:10190000302BF5D0B8F1000F09DD02EB080313F816
:10191000013C2E2B03D1090701D4A8F10108002DA9
:1019200005DD3E2102F808106D1E08F10108407C1B
:10193000002E02F8080008F1010804DA2D20764292
:1019400002F8080002E02B2002F808000A214FF4F8
:101950007A70864208F101080BDB96FBF0F3303316
:1019600002F8083096FBF0F308F1010800FB13665B
:1019700001E0642E0CDB642096FBF0F3303302F8B8
:10198000083096FBF0F308F1010800FB136601E054
:101990000A2E06DB96FBF1F0303002F8080008F161
:1019A000010896FBF1F001FB1060303002F80800EE
:1019B000A16908F1010808EB050202EB0A00081A08
:1019C000A0612078C00602D42046FEF713FF216AEA
:1019D00008AE01EB0A00206204E0D4E9012116F808
:1019E000010B9047BAF1010AF7D22078C00602D560
:1019F0002046FEF7FFFE6E4609E016F8010B3E2872
:101A00000FD0D4E901219047206A401C2062B8F130
:101A10000108F2D22046FEF703FF09B00320BDE81B
:101A2000F08F206A2844206203E0D4E901213020AD
:101A300090476D1EEBD3F8E7A635000002FCFFFFD0
:101A400001694A1C02610878704700B58FB0CDE982
:101A500001310021059105497944CDE90310114672
:101A60006846FFF7A9F80FB000BD0000E5FFFFFFD3
:101A700010B5436913B1AFF3008001E0FEF7F3FE48
:101A8000012010BD127800F124010A7000224A7072
:101A90000122EDE711684FF0FF32E9E710B5436925
:101AA00013B1AFF3008001E0FEF768FF012010BD25
:101AB000128800F1240182840022C2840122EDE711
:101AC00011684FF0FF32E9E72DE9F34F4FF0000ABC
:101AD0000C4656468DB001200C9001F10C000B9085
:101AE00062690B9801219047051E2DD0252D2CD021
:101AF000216A8847C0B162690B9801219047216A29
:101B000088470028F7D16269411E0B98904700E092
:101B1000761CA1690D988847216A88470028F7D16B
:101B2000E1690D988847DBE7A1690D988847A842CD
:101B3000074601D1761CD3E7E1690D9888477F1CE1
:101B400002D1BAF1000F6FD06BE162690B980027E8
:101B50003D46394690472A2804D162690B980121F5
:101B600090470125DFF8D08262690B9801219047E8
:101B7000A0F130010A290AD24745E5DC07EB8701CD
:101B800000EB4107303FDFD445F01005ECE7E906F4
:101B900001D46FF000476C280AD04C2814D0682874
:101BA00015D06A280DD074281CD07A281AD01DE0D0
:101BB00062690B98012190476C2802D045F004051A
:101BC00014E045F002050DE045F020050AE06269E9
:101BD0000B9801219047682802D045F0080505E0E0
:101BE00045F4006562690B9801219047C4E90157EB
:101BF00065283DD019DC58287AD00CDC452837D030
:101C000004DC252826D041289ED131E046282FD05B
:101C1000472899D12CE05B2877D0612828D0632809
:101C20007CD0642823D15AE0F6E06F2848D008DC45
:101C300066281DD067281BD0692821D06E2816D1B0
:101C400027E0702845D0732868D0752847D07828B9
:101C50000DD14DE0A1690D988847252805463FF430
:101C600069AFE1690D9888476D1C3FF46AAFD8E011
:101C70000D9923466A466FF00100AFF30080C5E07E
:101C800045F0400023464FF000026060A80736D4BC
:101C90003EE0E8077FF447AF2068011D216000683F
:101CA000290501D506701BE7290701D5068017E72E
:101CB000A90703D5F117C0E9006111E706600FE736
:101CC00045F0400023464FF008026060A80716D494
:101CD0001EE040F60E0125EA0100606016E045F0C6
:101CE000400023464FF00A026060A80707D40FE0C7
:101CF00045F040006060A80708D5234610220D99E2
:101D00006FF00100AFF3008080E007E0102223466F
:101D10000D996FF00100FEF729FB77E04FF0000905
:101D200063284F46C8464B46CB4602D05B2806D0B8
:101D300038E0E80601D40120A060012732E06269A2
:101D4000D4F80CB00B98012190475E2807D14FF0D2
:101D5000010949466269D4F80CB00B989047216993
:101D600039B900210A4603AB43F82120491C082950
:101D7000FADBD8B3216949B308F1010862690B980D
:101D8000012190475D28F4D1B9F1000F09D000205E
:101D900003A951F82020D24341F82020401C0828F4
:101DA000F7DB03AB2069002820794FEA40701ED092
:101DB0005B462246CDF80080CDE901970D990028B9
:101DC0006FF0010020DAAFF300801FE0C11703AA13
:101DD00000EBD1614B1121F01F0102EB8302411A8C
:101DE00013680120884003431360C7E719E00D9989
:101DF000224600286FF00100009702DAAFF300805E
:101E000004E0AFF3008001E0AFF3008000280ADABD
:101E1000401C06D10C9820B14FF0FF300FB0BDE848
:101E2000F08F5046FAE7E90701D10AF1010A0644AA
:101E300000200C9054E60000CCCCCC0C10B5014630
:101E4000C268900703D0900607D5886A0AE000F0C0
:101E5000F1F801210160881E10BD8B6948681844A3
:101E60000B69C01A91F848301BB191F84910401A1B
:101E700010BD1103FCD50028FADD401E10BD000086
:101E80002DE9F0410C4607461646104600F06EF864
:101E90002078611C61280AD0722802D077283CD1B2
:101EA00002E00125002405E00225042402E00824C4
:101EB00048F2020511F8010B2B2806D0622809D040
:101EC00011F8010C74280AD00BE045F0030544F02A
:101ED0000204EFE745F0040544F00104EAE744F0AA
:101EE00010043846214602F0A9F8411C15D0002103
:101EF000316171604FF40071F560F161706120072C
:101F000004D5304602220021FEF762FF306D40F01A
:101F1000010030653046BDE8F0810020FBE72DE987
:101F2000F0410D460646104C206DC10704D0410813
:101F300004D020F00104F7E722460EE05420FEF71B
:101F400003FC07000ED0206D47F001010843542127
:101F500020653846FEF77EFB3A4629463046BDE806
:101F6000F0418DE70020D6E76C0300202DE9F04713
:101F700004464FF000094FF0FF37C568D4E90486E6
:101F8000A80707D02046FEF7F7FF304602F018F802
:101F9000002802DA3846BDE8F087280502D5404619
:101FA000FEF701FC4C212046FEF754FB206D20F08B
:101FB000010020654846EEE770B516460C4605461A
:101FC00000F02CF8036893F80101012806D0FF2CDB
:101FD0000FD8185D68B101202C7070BDD3F80701CF
:101FE0003246214603F2071303442846BDE87040F9
:101FF00018474FF0FF3070BD002801D000F008B83E
:10200000704710B500F0E6F9BDE81040FFF7F4BFE7
:1020100001491820ABBEFEE72600020010B500F013
:1020200005F8001D10BD00BF492B00000048704797
:102030006C0400200048704780040020034640687C
:102040008C46002818BF88423CBF03464068F8D33E
:1020500018681844884207D00CF1030020F00700EC
:10206000001D411A521A0146081D0A60FEF79BBB6B
:102070002DE9F0411F46044603260168072A01F4B2
:10208000006004DB08B116A505E016A503E008B161
:1020900015A500E015A521F010002060A069C01E64
:1020A000A0610FB1401EA0612046FEF7A3FB4FB117
:1020B000D4E9012138469047206A401C2062C01CA8
:1020C000206206E0206AFAE7D4E9012115F8010B45
:1020D0009047761EF8D22046FEF7A2FBBDE8F081BD
:1020E0004E414E006E616E00494E4600696E6600BC
:1020F0002DE9F047814616468AB0334878440DC82A
:102100008DE80D0030487844801C03AC0DC884E88D
:102110000D0041F69B300844372190FBF1F290FB13
:10212000F1F5A5F1800501FB12041B3C02D56442C8
:10213000012000E00020DFF890A080460027FA444C
:10214000AAF1BE0A0DE0E00709D03246684607EB67
:1021500047010AEB810100F03CFC8DE807006410A8
:102160007F1C002CEFD1184F7F44AC3F18E0E807EC
:1021700014D007EB04100DF1180A90E80E008AE85D
:102180000E00C068F04201D198190890324606A9A5
:1021900003A800F01EFC03AB83E807006D10641C6D
:1021A000002DE4D132466946B8F1000F03A802D0F1
:1021B00000F0FBFB01E000F00CFCC9E90001C9F8EC
:1021C00008200AB0BDE8F087842D00002DE9F04713
:1021D00005460C46C86820F4201040F48000C86012
:1021E000800602D50846FEF7EAFEE06841F2820169
:1021F0004FF0FF390140022903D02046FEF788FE48
:10220000B5E000F42041B1F5004F0FD1C00306D571
:102210006168E06A884200D80846606006E020698C
:10222000E0626060606901F0E1FEA061A0680022E8
:10223000EEB200280DDAE1688B050AD4C043A06035
:1022400041F490302260E0606068411C616006707B
:10225000A5E0E0689046226040F40050E06020690C
:1022600068BB606901F0D6FE012704F12405A0B126
:10227000A08910F4407F08D0E069FEF765FA20617C
:1022800018B1E06840F4006016E0E7612561E0689D
:1022900020F4407040F480600EE0E069FEF754FAEC
:1022A00000282061F1D0E06840F4006010F4407F25
:1022B000E06002D140F48070E06020696060E06816
:1022C00025696FF0010AC1051FD56168E06A88427F
:1022D00000D80846411B04D022462846FEF722FEBD
:1022E000F0BBE068010203D5E562C4E9015854E09F
:1022F000691CE1626160E16940F48030491EC4E913
:10230000021030462E70BDE8F087010202D500F4BD
:1023100080320AE06068411C61600670E0680A2E45
:1023200040F48030E06006D00022E16A60688142BB
:1023300003D90B4602E00122F7E70346A7895B1B9E
:102340007F0503D4E7699F4200DDE2B1814200D8F6
:102350000146E5620F1AC4E90158002B09DD00E0CF
:1023600005E0224619462846FEF7DCFD08B148463E
:10237000C9E747B1A069E5626560C01BA061E0687C
:1023800040F01000E060E068000208D56168A069D4
:10239000E562491B08446560A0615046B3E73046DA
:1023A000B1E770B505460C460A2000E06D1C00F050
:1023B0005BF835B128780028F8D102E0641C00F001
:1023C00053F814B120780028F8D1BDE870400A20F5
:1023D00000F04AB810B5014602A0FFF7E2FF012065
:1023E00010BD000053494752545245443A205265AB
:1023F0006469726563743A2063616E2774206F703C
:10240000656E3A200000000010B500F035F8BDE818
:102410001040FFF7F1BD0000124B694600F58052F5
:102420008A421A6001D8114670471960704730B56A
:102430000C4D6B46A3F580532C6822449A420FD86A
:102440009B1A02F5805003EBD37302EB63039842AF
:1024500000D91846C01D20F007020C60101B2A602E
:1024600030BD0000E401002008B569468DF8000089
:102470000320ABBE08BD704710B5012805D0002170
:1024800003A0FFF78EFF012010BD09A1F8E70000AF
:1024900053494752544D454D3A204F7574206F664D
:1024A0002068656170206D656D6F727900000000B5
:1024B0003A2048656170206D656D6F727920636F99
:1024C00072727570746564005FEA400C08BF91F029
:1024D000000F4FEA8C234FEAC12243EA51514FEAE1
:1024E0001C5018BF00F5F0404FEA300018BF41F013
:1024F00000415FEA6C5C00F02980BCF1FF3F08BF3F
:1025000040F080407047130C06BF12044FF0100CCF
:102510004FF0000C130E04BF12020CF1080C130F45
:1025200004BF12010CF1040C930F04BF92000CF1D4
:10253000020CD30F04BF52000CF1010C11464FF0F6
:102540000002A0F11F00A0EB0C00704711F0004F3B
:1025500008BF704731F000413FF4D5AF0B0C06BF08
:1025600009044FF0100C4FF0000C0B0E04BF0902D1
:102570000CF1080C0B0F04BF09010CF1040C8B0FBC
:1025800004BF89000CF1020CCB0F04BF49000CF111
:10259000010CCCF12003A0EB0C0022FA03F302FAA9
:1025A0000CF241EA030100F10100704720F07F4C7A
:1025B00080EA030023F07F47ACEB070303F57C536D
:1025C00000F0004003F1FF032DE980494FEA154B6D
:1025D00009B44FEA144325EA0B4E24EA03480FF2EC
:1025E000042606EB132749083E785FEA320203FB14
:1025F0000667C7F5000707FB06F64FEA54374FEAB0
:10260000D64606F1020607FB066CCCF1005C4FEAE9
:102610001C472CEA074C07FB06F40CFB06F504EB01
:1026200015464FEA961634BF00204FF000404FEA9F
:10263000D13706FB07FC4FEA1C4C0CFB0BF7D21BF7
:1026400003FB0CF761EB07010CFB0EF7B0EB074047
:1026500072EB17420CFB08F734BFA2EB0742B2EB58
:10266000074261EB17414FEA0C444FEA910706FB22
:1026700007FC4FEA1C4C0CFB0BF7B0EBC74072EBAE
:10268000573203FB0CF734BFA2EBC742B2EBC74291
:1026900061EB57310CFB0EF7B0EBC70072EB5772D2
:1026A0000CFB08F734BFA2EBC702B2EBC70261EB29
:1026B0005771039F4FEA816141EA921104EBCC0408
:1026C0004FEAD1374FEA826206FB07FC42EA9012DA
:1026D0004FEA80604FEA1C4C0CFB0BF7D21B03FB4C
:1026E0000CF761EB07010CFB0EF7B0EB074072EB48
:1026F00017420CFB08F734BFA2EB0742B2EB0742CC
:1027000061EB17414FEA8C554FEA910704EB9C248B
:1027100006FB07FC4FEA1C4C0CFB0BF7B0EBC74069
:1027200072EB573203FB0CF734BFA2EBC742B2EB9C
:10273000C74261EB57310CFB0EF7B0EBC70072EBF1
:1027400057720CFB08F734BFA2EBC702B2EBC7020B
:1027500061EB577115EB4C254FEA816141EA92110B
:102760004FEA82624FEAD13742EA901206FB07FC39
:1027700044F100044FEA80604FEA1C4C0CFB0BF75D
:10278000D21B03FB0CF761EB07010CFB0EF7B0EB60
:10279000074072EB17420CFB08F734BFA2EB07426D
:1027A000B2EB074261EB174115EB1C154FEA813183
:1027B00041EA92414FEA823242EA90424FEA803047
:1027C0004FEA0C7644F1000448EA03434EEA0B4812
:1027D0004FF0000EB2EB080C71EB030724BF62460A
:1027E00039464EEB0E0E4FF0000B00185241494196
:1027F0004BEB0B0BB2EB080C71EB03077BF1000BFF
:1028000024BF624639464EEB0E0E4FF0000B001807
:10281000524149414BEB0B0BB2EB080C71EB030738
:102820007BF1000B24BF624639464EEB0E0E51EA97
:10283000020718BF46F0010616EB0E7655F10002AE
:1028400054F1000103D5BDE88901BDE80088BDE869
:102850008901BDE80048B619524141EB0101A3F1DD
:102860000103704780807F7E7D7C7B7A79787776E4
:1028700076757473727171706F6E6E6D6C6C6B6A5D
:102880006A696868676666656464636362616160FB
:10289000605F5F5E5E5D5D5C5C5B5B5A5A59595878
:1028A00058575756565555555454535352525251E2
:1028B000515050504F4F4F4E4E4D4D4D4C4C4C4B38
:1028C0004B4B4A4A4A49494948484847474747467F
:1028D00046464545454444444443434343424242BB
:1028E00042414141002B26D4770021D01CB54FEA4C
:1028F000370703B44FF010004FF010014FF0000005
:102900000FBCBDE810400BF1010BBBF1010F08BF7C
:102910005FEA170722BF12F1010211F101014FF026
:10292000004143F1000300F0004043EA000070471B
:10293000F9D35708DAE746EA064613F1400F4FEAA3
:1029400016461FDD13F1200FDFBF16430A46002194
:1029500020335B42C8D0C3F1200746EA064602FA9C
:1029600007F74FEA164646EA0706C3F1200722FAA0
:1029700003F201FA07F721FA03F14FF0000342EAEC
:102980000702B1E746EA020646EA06464FEA16465D
:1029900046EA0106BCBF46EA0646360C4FF0000385
:1029A0004FF000024FF000019EE72DE9C04893462A
:1029B00030B491E8380007C831EA400C48BF34EA27
:1029C000430C03D5FFF7F2FDFFF78CFFF0BCBDE829
:1029D00000882DE9C048934630B491E8380007C814
:1029E00010F0804F08BF13F0804F03D100F005F8BE
:1029F000FFF778FFF0BCBDE8008820F07F4780EA51
:102A0000030023F07F4C07EB0C03A3F57C5300F08D
:102A10000040A3F1FE0392F0000F00F0B38095F0A8
:102A2000000F00F077802DE901494FEA11404FEA8D
:102A3000144621EA004800FB06FC24EA064708FB8E
:102A400006F607FB08F800FB07F718EB06484CEB07
:102A5000164C4FEA124B18EB07484FEA15464CEB61
:102A6000174022EA0B4E0BFB06FC25EA06470EFB3D
:102A700006F607FB0EFE0BFB07F71EEB064E4CEBB4
:102A8000164C4FF000061EEB074E4CEB174B18EBA5
:102A90000B0840F1000018EB0E0B58EB000840F15A
:102AA00000008F1A4FF000013CBFC943661B14BFE2
:102AB000B5EB040C00213CBFC943F61B4FEA174499
:102AC0004EEA8E0E27EA04454FEA1C4704FB0762D4
:102AD0002CEA074C05FB07F70CFB05F604FB0CFC86
:102AE00016EB074642EB174216EB0C4642EB1C4234
:102AF0001BEB060658EB0202414146EA9E0601D551
:102B0000BDE80189B619524141EB0101A3F101036E
:102B1000BDE801894FEA14454FEA114724EA05460A
:102B200021EA074C05FB07F406FB07F70CFB06F14F
:102B300005FB0CFC11EB074144EB17444FEA12472D
:102B400011EB0C4144EB1C4422EA074C05FB07F255
:102B500006FB07F70CFB06F605FB0CFC16EB07461D
:102B600042EB174216EB0C4642EB1C456A1854F137
:102B7000000148BF7047B619524141EB0101A3F172
:102B80000103704795F0000F37D04FEA11424FEA2A
:102B9000144721EA024624EA074C02FB07F106FB30
:102BA00007F70CFB06F402FB0CFC14EB074441EBAB
:102BB00017414FEA154714EB0C4441EB1C4125EA41
:102BC000074C02FB07F506FB07F70CFB06F602FBBA
:102BD0000CFC16EB074645EB174516EB0C4645EB90
:102BE0001C42121951F1000148BF7047B6195241F9
:102BF00041EB0101A3F1010370474FEA14454FEA8D
:102C0000114724EA054621EA074C05FB07F106FBBC
:102C100007F70CFB06F24FF0000605FB0CFC12EB6D
:102C2000074241EB174112EB0C4251EB1C4148BFEC
:102C30007047921841EB0101A3F10103704710B5F1
:102C400001F0BBFC01F0B8FCBDE8104001F0A6BBF0
:102C50002DE9F84F00228E4EDFF838E201274FF0C1
:102C6000030A4FF00F0800BF0B6807FA02F4234075
:102C7000A34240F00781D1F804C0BCF1020F18BF95
:102C8000BCF1120F15D14FEAD20C00EB8C05D5F830
:102C900020904FEA427C4FEADC6C08FA0CFB29EAF0
:102CA0000B09D1F810B00BFA0CFC4CEA090CC5F872
:102CB00020C0D0F800904FEA420C91F804B00AFA14
:102CC0000CF50BF0030B29EA05090BFA0CFB4BEA98
:102CD0000909C0F80090D1F80490B9F1010F18BFAC
:102CE000B9F1020F05D0B9F1110F18BFB9F1120FE8
:102CF00018D1D0F80890D1F80CB029EA05090BFAE0
:102D00000CFB4BEA0909C0F80890D0F8049029EAB6
:102D1000040491F80490C9F3001909FA02F949EA88
:102D200004044460C468AC438D6805FA0CFC4CEAAA
:102D3000040CC0F80CC0D1F804C01CF0805F7CD03B
:102D4000D6F800C04CF4804CC6F800C0D6F800C0DD
:102D50000CF4804CCDF800C022F0030C0CF1804C38
:102D60000CF5983CDCF8084895072D0F08FA05F992
:102D700024EA0904A0F18049B9F5003948D0A0F14E
:102D80008049B9F5013908BF4FF0010940D0A0F1E1
:102D90008049B9F5023908BF4FF0020938D0A0F1D7
:102DA0008049B9F5033908BF4FF0030930D0A0F1CD
:102DB0008049B9F5043908BF4FF0040928D0A0F1C3
:102DC0008049B9F5053908BF4FF0050920D0A0F1B9
:102DD0008049B9F5063908BF4FF0060918D0A0F1AF
:102DE0008049B9F5073908BF4FF0070910D0A0F1A5
:102DF0008049B9F5083908BF4FF0080908D0A0F19B
:102E00008049B9F509390CBF4FF009094FF00A099B
:102E100009FA05F52C43CCF80848DEF800C04C68E8
:102E20002CEA030C14F4803F18BF4CEA030CCEF8D4
:102E300000C0194CD4F800C000E023E04D682CEA33
:102E4000030C15F4003F18BF4CEA030CC4F800C093
:102E5000124CD4F800C04D682CEA030C15F4801F06
:102E600018BF4CEA030CC4F800C00D4CD4F800C0E5
:102E70004D682CEA030C15F4001F18BF4CEA030C34
:102E8000C4F800C0521C102AFFF4EEAEBDE8F88F63
:102E900044380240003C0140043C0140083C0140F1
:102EA0000C3C01400148006870470000B801002058
:102EB00002480168491C016070470000B801002009
:102EC0000B4810B5016841F400710160016841F4DC
:102ED00080610160016841F480710160032000F0AD
:102EE00069F80F2000F006F800F062F8002010BD2D
:102EF000003C024038B52648016841F001010160FC
:102F0000006800F0010000902248016841F00101D2
:102F10000160016821F0010101601F4C4006206042
:102F20004FF0FF30E0601D480068A0F57401B1F576
:102F300010510CBF1A491B49B0FBF1F0401E6060F4
:102F400000202061A0606061134800F0E1FB164999
:102F50001C2000F049FC4FF0E0214FF08050C1F8F8
:102F6000000100210C4800F0EFFB04210A4800F0AA
:102F7000EBFB2068416A0D4A116001F57A718163AB
:102F80002068C16841F00401C160002038BD000024
:102F9000403802402038024038020020BC010020A6
:102FA00040420F0080841E001D4A0008B40100202A
:102FB00070470000074900F007000A684FF6FF035A
:102FC0001A4042EA002040F0FD7040F08060086046
:102FD000704700000CED00E02DE9F047DFF81C928F
:102FE00005468846D9F8000001F0FF0A00F00F00FE
:102FF0008349844C41F2883740456DD289F800A05E
:10300000D9F8000000F00F0040457CD1287810F07E
:10301000020F05D02068AA6820F0F000104320605D
:10302000287810F0010F3FD06868012824D00228CA
:1030300018BF0328096824D011F0020F63D021685B
:1030400021F0030108432060FFF72CFF0646686863
:1030500001281AD0022828D0032836D0206810F082
:103060000C0F21D0FFF71EFF801BB84267D82068E5
:1030700010F00C0FF6D1A5E0096811F4003FDED185
:103080009DE011F0007FDAD199E0206800F00C009B
:10309000042809D0FFF706FF801BB8424FD82068EC
:1030A00000F00C000428F5D18CE0206800F00C0042
:1030B000082870D0FFF7F6FE801BB8423FD8206882
:1030C00000F00C000828F5D17CE02068FFF7EAFE4C
:1030D000801BB842F9D932E0287810F0020F05D0F1
:1030E0002068AA6820F0F00010432060287810F0D3
:1030F000010F5CD06868012824D0022818BF03287B
:10310000096824D000E05AE011F0020F57D021687E
:1031100021F0030108432060FFF7C4FE06466868FB
:10312000012818D0022826D0032835D0206810F0B6
:103130000C0F3CD0FFF7B6FE801BB84233D90320FA
:10314000BDE8F087096811F4003FE0D137E011F0E5
:10315000007FDCD133E0206800F00C00042826D08A
:10316000FFF7A0FE801BB842E9D8206800F00C00F1
:103170000428F5D11BE0206800F00C00082816D0C8
:10318000FFF790FE801BB842D9D8206800F00C00F1
:103190000828F5D10BE015E02068FFF783FE801BBF
:1031A000B842F9D9CBE7206810F00C0FC2D189F8EA
:1031B00000A0D9F8000000F00F00404502D0012027
:1031C000BDE8F087287810F0040F05D0206820F4BF
:1031D000E051E86808432060287810F0080F06D016
:1031E0002068296920F4604040EAC10020600F2077
:1031F000FFF780FE0020BDE8F0870000003C0240A1
:10320000003802400838024010B500F049F80E4975
:103210000A68F02393FAA3F302F0F002B3FA83F3FF
:1032200022FA03F3094AD35CD840094B18600968B5
:103230004FF4E05393FAA3F301F4E051B3FA83F3AC
:10324000D940515CC84010BD08380240C54B000849
:10325000BC01002010B500F023F80E490A68F023E5
:1032600093FAA3F302F0F002B3FA83F322FA03F322
:10327000094AD35CD840094B186009684FF4604391
:1032800093FAA3F301F46041B3FA83F3D940515C9C
:10329000C84010BD08380240C54B0008BC010020E2
:1032A0002048006810F00C011F4808BF7047DFF885
:1032B0007CC0042904BF60467047082918BF7047C6
:1032C00010B41B4B196801F03F02196811F4800F0C
:1032D00047F6C0710BD0BCFBF2F01A680A4091FAB5
:1032E000A1F1B1FA81F122FA01F148430AE0B0FB01
:1032F000F2F01A680A4091FAA1F1B1FA81F122FACA
:1033000001F1484319684FF4403292FAA2F201F4F5
:103310004031B2FA82F2D140491C4900B0FBF1F0D1
:1033200010BC7047083802400024F40000127A00F4
:10333000043802402DE9F84F04460078EA4EEB4D80
:1033400010F0010F4FF0000759D0306800F00C006A
:10335000042809D0306800F00C0008280DD1281D81
:10336000006810F4800F08D0286810F4003F46D0A1
:103370006068002800F0B48141E0DFF8749389F8B8
:103380000070FFF78FFD8046286810F4003F0AD0D8
:10339000FFF788FDA0EB0800C82800F242812868EA
:1033A00010F4003FF4D1207989F80000606898B1EA
:1033B000FFF778FD8046286810F4003F1FD100BF5A
:1033C000FFF770FDA0EB0800C82800F22A812868EA
:1033D00010F4003FF4D012E0FFF764FD8046286847
:1033E00010F4003F0BD000BFFFF75CFDA0EB08001E
:1033F000C82800F21681286810F4003FF4D1207824
:10340000DFF8F08210F0020F4FF001094ED0306863
:103410004FF0F80A10F00C0F15D0306800F00C00D7
:10342000082804D1B448006810F4800F0BD0E0687D
:1034300040B3C8F80090FFF735FD8346286810F0C8
:10344000020F09D012E0286810F0020F1CBFE068DC
:1034500001280BD000F044B9FFF724FDA0EB0B00CE
:1034600064287CD8286810F0020FF5D028689AFAF2
:10347000AAF22169B2FA82F220F0F80091400843E2
:10348000286013E0C8F80070FFF70CFD824628683A
:1034900010F0020F0AD000BFFFF704FDA0EB0A00F6
:1034A00064285CD8286810F0020FF5D1207810F05D
:1034B000080F30D09148DFF848A26169B1B1C0F877
:1034C0000090FFF7EFFC8346DAF8000010F0020FDF
:1034D00021D100BFFFF7E6FCA0EB0B0064283ED82B
:1034E000DAF8000010F0020FF4D014E00760FFF7E4
:1034F000D9FC8346DAF8000010F0020F0BD000BFB1
:10350000FFF7D0FCA0EB0B00642828D8DAF8000005
:1035100010F0020FF4D1207810F0040F69D0794830
:10352000016841F0805101600068DFF8DCB100F013
:1035300080500090DBF8000040F48070CBF8000071
:10354000FFF7B0FC8246DBF8000010F4807F0CD15E
:10355000FFF7A8FCA0EB0A00642862D800E060E056
:10356000DBF8000010F4807FF2D0DFF8A0B18BF818
:103570000070FFF797FC8246DBF8000010F0020FA6
:103580000BD000BFFFF78EFCA0EB0A00642848D8E0
:10359000DBF8000010F0020FF4D1207A8BF8000065
:1035A000A06898B1FFF77EFC8246DBF8000010F0BF
:1035B000020F1ED1FFF776FCA0EB0A00642830D87A
:1035C000DBF8000010F0020FF4D012E0FFF76AFC05
:1035D0008246DBF8000010F0020F0AD0FFF762FC11
:1035E000A0EB0A0064281CD8DBF8000010F0020FE2
:1035F000F4D1A069E8B3316801F00C0108296FD05B
:103600000228C8F860700FD0FFF74CFC0446286809
:1036100010F0007F60D000BFFFF744FC001B64285F
:1036200056D90320BDE8F88FFFF73CFC0646286812
:1036300010F0007F09D000BFFFF734FC801B642826
:10364000EFD8286810F0007FF6D1D4E907010843CD
:1036500047F6C07292FAA2F2616AB2FA82F201FAF5
:1036600002F3A16A4FF0FF3202EB51014FF44032F6
:1036700000E031E092FAA2F2B2FA82F291401943EC
:1036800001434FF0706292FAA2F2E06AB2FA82F25B
:10369000904008434FF0E04292FAA2F2216BB2FA56
:1036A00082F29140084314490860C8F86090FFF71F
:1036B000F9FB0446286810F0007F0DD1FFF7F2FBFC
:1036C000001B6428ADD8286810F0007FF6D003E016
:1036D000286810F0007F9FD10020BDE8F88FFFE739
:1036E0000120BDE8F88F0000083802400038024091
:1036F000023802400000474204380240800E474230
:103700007438024040380240007000407038024077
:10371000002804BF0120704710B5044690F8390016
:1037200028B9002084F83800204600F00CF8022068
:1037300084F83900211D206800F00CFA012084F87B
:103740003900002010BD70470268012303FA01F11F
:10375000136A8B431362136A194311620168A1F162
:103760008042B2F580321CBFA1F18042B2F58232B4
:1037700003D14A6C42F400424A640068016841F097
:103780000101016000207047002804BF012070473C
:1037900070B5044690F83900002520B984F83850F7
:1037A000204600F020F8022084F839002068C16823
:1037B00021F40051C160204600F02CFA2068016914
:1037C00021F4904101612068416921F02A014161A1
:1037D0002068C16841F40051C160E563012084F8AC
:1037E0003900002070BD70472DE9F0410A4D0E46AA
:1037F00007462C682868B0F1006F08D12146AC0656
:103800004FF4DA722046FCF7F3FE2046286004EB02
:1038100087000664BDE8F08108ED00E038B50024BB
:103820000B2878D2DFE800F006101A242E38424C1C
:1038300056606B003B483A4C016841F00101016061
:10384000006800F0010058E03648374C016841F04C
:1038500002010160006800F002004EE03148334C84
:10386000016841F004010160006800F0040044E0D8
:103870002C482F4C016841F008010160006800F0FD
:1038800008003AE027482B4C016841F01001016024
:10389000006800F0100030E02248274C016841F039
:1038A00020010160006800F0200026E01D48234C44
:1038B000016841F040010160006800F040001CE038
:1038C00018481F4C016841F080010160006800F059
:1038D000800012E013481B4C016841F480710160C4
:1038E000006800F4807008E00E48174C016841F44D
:1038F00000710160006800F4007000900EE009485B
:10390000124C016841F480610160006800F480603D
:10391000009003E0FFE70EA000F06EFC204638BDEB
:10392000000002403038024000040240000802401B
:10393000000C024000100240001402400018024037
:10394000001C0240002002400024024000280240E7
:1039500050696E6D6170206572726F723A20777275
:103960006F6E6720706F7274206E756D6265722E57
:10397000000000001A4810B5016894B041F0805171
:103980000160006800F0805012901648016841F410
:10399000404101600068022400F440401290012080
:1039A000009001908005CDE90640082008904FF472
:1039B000A870CDE9090407200B906846FFF7BAFC10
:1039C0000D20CDE90D0400200F904FF4A050109071
:1039D000E002119005210DA8FFF7FEFA14B010BD0A
:1039E0004038024000700040DFF86CC030B4DCF8B2
:1039F00000001A4B10F00C01194806D05C10042985
:103A000008BF046002D008290CD00360DCF8001065
:103A1000144AC1F30311515C026822FA01F10160FA
:103A200030BC704710490A68C2F380550A68002DFF
:103A300002F03F0214BFB4FBF2F2B3FBF2F20B68E8
:103A40000968C3F388135A43C1F30141491C490073
:103A5000B2FBF1F10160D9E7083802400024F4001C
:103A6000BC010020D54B0008043802402DE9F0418C
:103A70002F48016841F4700101602E48016841F04F
:103A8000010101602C4E00213160026822F41022F5
:103A900022F080720260041D284A2260026822F42B
:103AA00080220260301D0160254960060860264DB5
:103AB000244F2F60FFF704FAFFF75CFF306810F027
:103AC0000C0006D07910042808BF296002D008280D
:103AD00014D02F6030681D49C0F30310085C2968BA
:103AE00021FA00F028601A48016841F001010160E4
:103AF000016821F001010160BDE8F0812068C0F398
:103B000080522068002A00F03F0014BFB1FBF0F0A3
:103B1000B7FBF0F02168C1F3881148432168C1F375
:103B20000141491C4900B0FBF1F02860D2E70000D8
:103B300088ED00E0003802400838024010300024D0
:103B400008ED00E00024F400BC010020D54B000883
:103B500020380240F0B40268294B2A4C2A4D2B4EE3
:103B6000DFF8ACC0984218BFB0F1804F07D0A04238
:103B700018BFA84203D0B04218BF604503D14F68B8
:103B800022F070023A43984218BFB0F1804F25D01E
:103B9000A04218BFA84221D0B04218BF60451DD036
:103BA000A0F18044B4F5A0341CBFA0F18044B4F56A
:103BB000A23413D0A0F18044B4F5A4341CBFA0F10A
:103BC0008044B4F5C05409D0A0F18044B4F5E05469
:103BD0001CBFA0F18044B4F5005403D1CC6822F49A
:103BE0004072224302608A68C2620A688262984216
:103BF00012BF60450969016301214161F0BC704752
:103C0000000001400004004000080040000C00409B
:103C1000000401402DE9F041044600680169E268B2
:103C200021F44051114301612068C1682369A268F1
:103C3000D4F81CC01A43636921F4037143EA0C03EE
:103C400021F414411A431143C16020684169A269FB
:103C500021F4407111434161E2693226B2F5004F0F
:103C60006F487049704D226837D08A4218BF82422F
:103C70007DD1FFF7EFFA00EBC00101EB00106168A6
:103C80008900B0FBF1F0A5FB00104709FFF7E2FA4D
:103C900000EBC00101EB001061688900B0FBF1F896
:103CA000FFF7D8FA00EBC00101EB00106168890052
:103CB000B0FBF1F0A5FB001040096FF0180148437C
:103CC00008EB800006EB0010A5FB001021684009FE
:103CD00067F31F108860BDE8F0818A4218BF8242F6
:103CE00033D1FFF7B7FA00EBC00101EB00106168B8
:103CF0004900B0FBF1F0A5FB00104709FFF7AAFA55
:103D000000EBC00101EB001061684900B0FBF1F865
:103D1000FFF7A0FA00EBC00101EB00106168490059
:103D2000B0FBF1F0A5FB001040096FF0180148430B
:103D300008EB800006EB0010A5FB0010216840098D
:103D400067F31F108860BDE8F081FFF75DFA00EBB4
:103D5000C00101EB001061684900B0FBF1F0A5FB68
:103D600000104709FFF750FA00EBC00100E022E025
:103D700001EB001061684900B0FBF1F8FFF744FA6D
:103D800000EBC00101EB001061684900B0FBF1F0ED
:103D9000A5FB001040096FF01801484308EB8000B4
:103DA00006EB0010A5FB00102168400967F31F1007
:103DB0008860BDE8F081FFF727FA00EBC00101EB56
:103DC000001061688900B0FBF1F0A5FB0010470905
:103DD000FFF71AFA00EBC00101EB001061688900DF
:103DE000B0FBF1F8FFF710FA00EBC00101EB001097
:103DF00061688900B0FBF1F0A5FB001040096FF08D
:103E00001801484308EB800006EB0010A5FB0010EA
:103E10002168400967F31F108860BDE8F081000049
:103E200000140140001001401F85EB51007B7047DA
:103E300070B506460B480D46046884B1A06858B1B9
:103E40002A463146FCF789FB30B9A068FCF766FBCF
:103E5000A84201D1204670BD6468002CEED100203C
:103E600070BD0000D401002010B50446406828B1A0
:103E7000FFF7DCFF012804BF606810BD002010BD03
:103E800010B50446406810B1FFF7D0FF08B100201C
:103E900010BD6068002818BF001F10BD40680028D2
:103EA00018BF0120704710B54068002808BF10BD3A
:103EB000FFF7BCFF00280CBF0120002010BD0068E8
:103EC000704710B5044600202060606008782F28F5
:103ED0000DD1487858B14B1C00212360226810781E
:103EE0002F2806D038B1501C491C2060F6E7204628
:103EF00010BD501C20601846FFF79AFF60602046F6
:103F000010BD03B401984100009850EAC12018BFC9
:103F100004204A0D18BF40F0010040F2FF72B2EBDE
:103F2000515F08BF40F00200012808BF052002B021
:103F30007047000010B515480024662104604460F5
:103F40008460C46000F0CAF9114834210460446000
:103F50008460C46000F0C2F90E48352104604460FA
:103F60008460C46000F0BAF90B48A3210460446087
:103F70008460C46000F0B2F908486B2104604460BA
:103F80008460C460BDE8104000F0A8B9E8010020DA
:103F9000F80100200802002018020020280200205A
:103FA00002486A4620F00700704700008B0400209A
:103FB00030380A2801D201207047002070470000E5
:103FC0000328BCBF002070470749002201EB800195
:103FD00051F80C0C41F80C2C002804BF4FF0FF30B6
:103FE0007047016849680847740200200328BCBF75
:103FF00000207047064901EB800050F80C0C0028A7
:1040000004BF4FF0FF30704701688969084700001E
:10401000740200200328BCBF01207047064901EB51
:10402000800050F80C0C002804BF4FF0FF307047A0
:104030000168C9680847000074020020F0B50E4608
:1040400083B004464349FCF72DFB434DA8B14349D7
:104050002046FCF727FBD0B141492046FCF722FB64
:1040600000281CBF00253F4F1BD000BF57F825007C
:1040700008B36D1C102DF9D35DE0286820B91B2210
:104080001A21394800F07EFB03B00020F0BD2868FB
:1040900020B91B221A21344800F074FB03B0012020
:1040A000F0BD286820B91B221A212F4800F06AFBB6
:1040B00003B00220F0BD102D3DD220783A2810D058
:1040C00021466846FFF7FDFE6846FFF7E7FE90B31E
:1040D0006846FFF7E8FE0028684609D0FFF7D0FEE3
:1040E00022E06A4621A12046FCF722F900981BE055
:1040F000FFF7BAFEF8B116F0020F18BF02241ED067
:1041000016F00C0F18BF44F4007416F0040F18BF1B
:1041100044F4806406466846FFF7D1FE01463068E5
:10412000224683683046984700281FBF47F825007D
:10413000E81C03B0F0BD4FF0FF3003B0F0BD16F047
:10414000040F18BF0124DBD116F0080F14BF092497
:104150000024D5E7AE4B0008C0010020B54B000895
:10416000BD4B000874020020140300203A257000A3
:104170000328BCBF00207047064A02EB800050F8BD
:104180000C0C002804BF4FF0FF3070470268136921
:10419000002218477402002070B514460E4603280A
:1041A00013DA1248006820B91B221A21104800F0C7
:1041B000E9FA0025002C06D9715D0D4800F0F4FBEA
:1041C0006D1CAC42F8D820460DE00A4901EB800096
:1041D00050F80C0C002804BF4FF0FF3070BD016890
:1041E0000B6831469847201A70BD0000C0010020BE
:1041F00014030020740200200FB4044810B503AA71
:104200000299FCF78FF8012000F002F81404002056
:1042100004460548FCF76BF90448FCF768F9002CE4
:1042200018BF00F093F9FEE7C0030020140400203B
:104230008A68002A01DCFDF7C9BF521E8A604A68FD
:10424000C0B2531C4B6010707047000070B504463C
:10425000B0F900000D46B0F1FF3F04D146220949F4
:1042600009A000F053F9B4F90000012D04D0BDE815
:104270007040002100F0A8B9BDE87040012100F0B5
:10428000A3B90000B84F00086F626A2D3E70696ED6
:1042900020213D202850696E4E616D65294E4300F6
:1042A00070B50C4605460180B1F1FF3F08BF70BDF7
:1042B000C4F30310FFF7B2FA06460021204600F0CF
:1042C00083F904F00F00012101FA00F0686006F1A3
:1042D0001000A8600830E86070BD000070B50446AA
:1042E0000D460026FFF7DCFFB5F1FF3F08BF70BDAC
:1042F000B4F90000B0F1FF3F04D134220849094865
:1043000000F004F9A088E16800040860012120465B
:10431000FFF79CFF31462046BDE8704000F03AB8F8
:10432000E04E00087C4300082DE9F04104460E46AB
:1043300000271546FFF7B4FFB6F1FF3F08BFBDE801
:10434000F081B4F90000B0F1FF3F04D134220A49F2
:104350000AA000F0DBF8002D12BF6068A0880004FE
:10436000E168086001212046FFF770FF39462046CA
:10437000BDE8F04100F00EB8E04E00086F626A2D13
:104380003E70696E20213D202850696E4E616D653A
:10439000294E4300B0F9000000F04CB92DED028B1E
:1043A0009FED4D8A4D4CB4F90000B0F1FF3F04D1B0
:1043B00034224B494BA000F0A9F8E168606808601E
:1043C0004E4CB4F90000B0F1FF3F04D1342244490F
:1043D00044A000F09BF8E16860680860484CB4F9BC
:1043E0000000B0F1FF3F04D134223D493DA000F070
:1043F0008DF8E16860680860424CB4F90000B0F1E3
:10440000FF3F04D13422364936A000F07FF8E1683E
:10441000606808603C4CB4F90000B0F1FF3F04D183
:1044200034222F492FA000F071F8E168606808601D
:10443000B0EE480A00F064FB284CB4F90000B0F17B
:10444000FF3F04D13422264926A000F05FF8A0885F
:10445000E16800040860294CB4F90000B0F1FF3FA6
:1044600004D134221E491FA000F050F8A088E16852
:1044700000040860224CB4F90000B0F1FF3F04D101
:104480003422174917A000F041F8A088E168000421
:1044900008601C4CB4F90000B0F1FF3F04D1342295
:1044A0000F4910A000F032F8A088E168000408600D
:1044B000154CB4F90000B0F1FF3F04D13422084993
:1044C00008A000F023F8A088E16800040860B7EEB7
:1044D000000A00F015FB65E7CDCC4C3EE80100205A
:1044E0009C4E00086F626A2D3E70696E20213D204F
:1044F0002850696E4E616D65294E4300F801002019
:1045000008020020180200202802002013460A4654
:10451000014601A0FFF770BE6D6265642061737390
:104520006572746174696F6E206661696C65643A66
:104530002025732C2066696C653A2025732C206C2D
:10454000696E65202564200A0000000084B072B600
:1045500066216846FFF7C2FEBDF90000B0F1FF3FDB
:1045600004D134220D490EA0FFF7D0FF0399019822
:104570000860962000F0D8FABDF90000B0F1FF3FC6
:1045800004D13422054906A0FFF7C0FF0198039922
:1045900000040860962000F0C7FADDE7E04E00084E
:1045A0006F626A2D3E70696E20213D202850696E31
:1045B0004E616D65294E4300704710B5FFF714FA40
:1045C000BDE81040FEF77CBCF0B585B00C46054652
:1045D000B0F1FF3F04D181220F4910A0FFF796FFF1
:1045E00004F00F07C4F30216C5F30310C4F3C31499
:1045F00005F00F05FFF712F90121A94000910C49C0
:1046000051F82710CDE901160321CDE903146946BD
:10461000FEF71EFB05B0F0BD2050000870696E204B
:10462000213D202850696E4E616D65294E43000082
:104630006C4D000870B50C460546B0F1FF3F04D143
:10464000A6220C490CA0FFF761FFC5F3031005F08B
:104650000F05FFF7E3F8022C88BF0024C268690049
:1046600003238B409A43C260C26804FA01F11143EC
:10467000C16070BD2050000870696E20213D202867
:1046800050696E4E616D65294E430000884208BF37
:104690007047B0F1FF3F04BF0846704710B5B1F155
:1046A000FF3F08BF10BD03A0FFF7A6FD4FF0FF308E
:1046B00010BD000070696E6D6170206D69732D6DA5
:1046C000617463680000000010B5B0F1FF3F08BFDF
:1046D00010BDB1F90020B2F1FF3F0DD0B1F90020BB
:1046E000824204D14C68B4F1FF3F0AD106E031F9AF
:1046F0000C2FB2F1FF3FF1D14FF0FF3402A0FFF7D2
:104700007BFD204610BD000070696E6D6170206EEB
:104710006F7420666F756E6420666F7220706572AC
:104720006970686572616C0010B50446B0F1FF3FB6
:1047300008BF10BDB1F90000B0F1FF3F13D000BFBA
:10474000B1F90000A04209D189682046FFF73CFF7B
:104750002046BDE810400021FFF76CBF31F90C0F77
:10476000B0F1FF3FECD1BDE8104001A0FFF744BD20
:10477000636F756C64206E6F742070696E6F7574F2
:10478000000000002DE9F8438946044616467049AA
:104790004846FFF799FF05466E493046FFF794FFFC
:1047A00001462846FFF772FF2060B0F1FF3F04D1B9
:1047B0005322694969A0FFF7A9FE6F4B22686F4831
:1047C000D11A002501274FF004089A4255D00CDC7D
:1047D00011F550511ED0B1F5806F25D0B1F5006FA5
:1047E0002CD0B1F5406F33D05CE0B1F5806F4FD085
:1047F0006348B1F5184F03D0B1F51C4F33D051E0E9
:10480000016841F010010160006800F010000090A4
:10481000656047E0016841F400310160006800F420
:104820000030009067603DE0016841F48021016044
:10483000006800F480200090022027E0016841F425
:1048400000210160006800F40020009003201DE0BA
:10485000016841F480110160006800F4801000904C
:10486000C4F804801EE0016841F020010160006886
:1048700000F020000090052008E0016841F0804130
:104880000160006800F0804000900620606009E050
:10489000016841F000410160006800F000400090B4
:1048A000072060602A494846FFF73EFF2949304605
:1048B000FFF73AFFB9F1FF3F03D001214846FFF768
:1048C000B9FEB6F1FF3F03D001213046FFF7B2FE3B
:1048D0004FF41650C4E9020525616561A4F81890EB
:1048E0002848668321680160A1684160E1688160B1
:1048F0002169C160616985610161B4F91A10B1F182
:10490000FF3F08BF082108D0B4F91810B1F1FF3FEC
:104910000CBFC0F814800C2100D041611948FEF78B
:1049200033FF00281CBF18A0FFF766FC2068A0F129
:104930008041B1F5904118BFBDE8F8831848194A85
:10494000076094E87B1082E87B10BDE8F8830000E4
:10495000044C0008B84C0008504F00086F626A2DE4
:104960003E7561727420213D2028554152544E619C
:104970006D65294E43000000007800404038024039
:1049800044380240D402002043616E6E6F74206987
:104990006E697469616C697A6520554152540000F2
:1049A000C001002014030020074AD0F800C00368AB
:1049B00013601B68C3F3C013002BF8D0C1F30800C9
:1049C000CCF8040070470000D402002010B5044663
:1049D0000068C0688047606840680028206811D07F
:1049E0004068804761680246486803689A1A002A4E
:1049F0000CDC82684A606168096800291CBF406855
:104A00008847E8E78068BDE81040004748682168AB
:104A100000680969BDE810400847000070B5124DF4
:104A20002868C16811F0020F04D06FF00201016123
:104A300000F042F82868C16811F0040F08BF70BD8B
:104A40006FF0040101612868446A084E3068201A3A
:104A5000B0F57A7F38BF70BDFEF72AFA296804F5F1
:104A60007A708863346070BD38020020B401002081
:104A700002496FF0020009680861704730030020A6
:104A800003480068C16821F00201C160704700005E
:104A90003003002006480168002918BF7047012133
:104AA00001608807034908600020FEF723BA000070
:104AB000D0010020300300200148FFF787BF00002D
:104AC000FC4B0008074810B501684FF0804431B92D
:104AD00001210160044804600020FEF70BFA606ABF
:104AE00010BD0000D00100203003002003490968F8
:104AF0004863C86840F00200C86070473003002077
:104B0000DFED080A70B520EE200ABDEEC00A10EEF7
:104B1000104AFFF7D7FF0546FFF7D4FF401BA0421E
:104B2000FAD370BD0024744970B54FF47A7100FB5C
:104B300001F5FFF7C7FF0446FFF7C4FF001BA842BB
:104B4000FAD370BD10B500290AD00878002807D024
:104B500005487844FBF7A6FD002801D0002010BDD1
:104B60000248784410BD0000520500004A050000CC
:104B700010B500290AD00878002807D005487844E5
:104B8000FBF790FD002801D0002010BD02487844BA
:104B900010BD0000420500003A0500004FF04070D3
:104BA000E1EE100A7047FCF797BCFCF7CBBD2F7302
:104BB0007464696E002F7374646F7574002F73745E
:104BC0006465727200000000000102030401020328
:104BD00004060708090000000000000000010203AD
:104BE0000406070809000000954A0008C54A0008A5
:104BF000814A0008714A0008ED4A0008E84B0008A5
:104C0000C801002000000000004C00401304000018
:104C1000020000000044004093030000090000006F
:104C20000010014093030000160000000010014036
:104C3000930300001A0000000048004093030000A6
:104C40002600000000140140130400002A000000A8
:104C500000480040930300002C000000005000407A
:104C600013040000350000000044004093030000DE
:104C7000380000000048004093030000410000009D
:104C8000007C004013040000480000000078004051
:104C900013040000570000000078004013040000D7
:104CA0006E0000000014014013040000FFFF00002C
:104CB000FFFFFFFF0000000001000000004C00406B
:104CC00013040000030000000044004093030000B0
:104CD0000A000000001001409303000017000000CC
:104CE00000100140930300001B000000004800403A
:104CF000930300002700000000140140130400008B
:104D00002B00000000480040930300003200000028
:104D10000050004013040000360000000044004032
:104D20009303000039000000004800409303000096
:104D300040000000007C0040130400004700000019
:104D40000078004013040000560000000078004086
:104D50001304000069000000001401401304000067
:104D6000FFFF0000FFFFFFFF000000000000000049
:104D7000010000001100000002000000120000000D
:104D8000030000000000111000002110000031108D
:104D9000000012100000221000003210000000106D
:104DA0000000000000000000303132333435363767
:104DB000383941424344454640305800303132335F
:104DC000343536373839616263646566403078005F
:104DD00004000008000000000000000200010000C4
:104DE00010303132333435363738396162636465B7
:104DF00066787000303132333435363738394142D5
:104E0000434445465850000002400000000000A006
:104E10000000000005400000000000C80000000085
:104E20000C4000000000409C000000001940000001
:104E30000020BCBE0000000034400000BFC91B8E33
:104E400000000004B5400000504BCFD06607E2CF11
:104E5000010000006C4100003E8251AADFEEA73441
:104E600001000000D9420000DCB5A0E23A301F97F3
:104E7000FFFFFFFFB4450000FD25A0C8E9A3C14F17
:104E8000FFFFFFFFFF3F0000000000800000000068
:104E9000FF3F000000000080000000006D626564BC
:104EA0002F5441524745545F444953434F5F463462
:104EB00036394E492F5441524745545F53544D2F74
:104EC0005441524745545F53544D333246342F6753
:104ED00070696F5F6F626A6563742E68000000001E
:104EE000433A5C436F64655C6769745F7265706FB9
:104EF0005C6769746875625C6D6265642D6F666677
:104F0000696369616C5C6275696C645C6D6265643F
:104F10005C5441524745545F444953434F5F4634C4
:104F200036394E495C5441524745545F53544D5CA9
:104F30005441524745545F53544D333246345C67B5
:104F400070696F5F6F626A6563742E6800000000AD
:104F5000433A5C436F64655C6769745F7265706F48
:104F60005C6769746875625C6D6265642D6F666606
:104F7000696369616C5C6C69627261726965735CBA
:104F80006D6265645C746172676574735C68616CA2
:104F90005C5441524745545F53544D5C5441524711
:104FA00045545F53544D333246345C7365726961C6
:104FB0006C5F6170692E6300433A5C436F64655CAB
:104FC0006769745F7265706F5C6769746875625C4D
:104FD0006D6265642D6F6666696369616C5C6C699E
:104FE000627261726965735C6D6265645C74617242
:104FF000676574735C68616C5C5441524745545FEB
:1050000053544D5C5441524745545F53544D3332D1
:1050100046345C6770696F5F6170692E63000000E1
:10502000433A5C436F64655C6769745F7265706F77
:105030005C6769746875625C6D6265642D6F666635
:10504000696369616C5C6C69627261726965735CE9
:105050006D6265645C746172676574735C68616CD1
:105060005C5441524745545F53544D5C5441524740
:1050700045545F53544D333246345C70696E6D61F4
:10508000702E6300D4510008B401002034000000E9
:10509000F001000808520008E80100209C0200000E
:1050A0000C0200081C00000043000000F8FFFFFF96
:1050B0000C0000000E0000000F0000002E00000099
:1050C0001001000043000000F8FFFFFF00404040D7
:1050D00040404040404041414141414040404040CB
:1050E0004040404040404040404040404005020277
:1050F0000202020202020202020202020220202036
:105100002020202020202002020202020202909091
:10511000909090901010101010101010101010108F
:1051200010101010101010100202020202028888E3
:1051300088888888080808080808080808080808EF
:1051400008080808080808080202020240000000D7
:10515000000000000000000000000000000000004F
:10516000000000000000000000000000000000003F
:10517000000000000000000000000000000000002F
:10518000000000000000000000000000000000001F
:10519000000000000000000000000000000000000F
:1051A00000000000000000000000000000000000FF
:1051B00000000000000000000000000000000000EF
:1051C00000000000000000000000000000000000DF
:1051D00065EDFFFF0000000000000000007A030AF8
:1051E00000000000000000000000000000000000BF
:1051F00000000000000000000000000000000000AF
:085200000000000000000000A6
:04000005080001B539
:00000001FF
