:020000040800F2
:1000000000000220E5010008ED010008EF010008F2
:10001000F1010008F3010008F501000800000000EC
:10002000000000000000000000000000F7010008D0
:10003000F901000800000000FB010008FD010008B4
:10004000FF010008FF010008FF010008FF01000890
:10005000FF010008FF010008FF010008FF01000880
:10006000FF010008FF010008FF010008FF01000870
:10007000FF010008FF010008FF010008FF01000860
:10008000FF010008FF010008FF010008FF01000850
:10009000FF010008FF010008FF010008FF01000840
:1000A000FF010008FF010008FF010008FF01000830
:1000B000FF010008FF010008FF010008FF01000820
:1000C000FF010008FF010008FF010008FF01000810
:1000D000FF010008FF010008FF010008FF01000800
:1000E000FF010008FF010008FF010008FF010008F0
:1000F000FF010008FF010008FF010008FF010008E0
:10010000FF010008FF010008FF010008FF010008CF
:10011000FF010008FF010008FF010008FF010008BF
:10012000FF010008FF010008FF010008FF010008AF
:10013000FF0100080000000000000000FF010008AF
:10014000FF010008FF010008FF010008FF0100088F
:10015000FF010008FF010008FF010008FF0100087F
:10016000FF010008FF010008FF010008FF0100086F
:10017000FF010008FF010008FF0100080000000067
:1001800000000000FF010008000000000000000067
:10019000FF0100080000000000000000FF0100084F
:1001A000000000000000000000000000FF01000847
:1001B000FF010008FF010008FF010008FF0100081F
:1001C000FF010008DFF818D000F0F0FB00F01CF889
:1001D00000F04AF9004800474D0E000800F00DFA03
:1001E000000002200648804706480047FEE7FEE779
:1001F000FEE7FEE7FEE7FEE7FEE7FEE7FEE7FEE7D7
:100200004D290008C5010008042104A003F016FCD4
:100210000349086003490860FFF7DAFF3A74740085
:10022000F0050020DC05002038B505468DF80000FB
:100230000C46086800230122694603F085FC10B1D2
:100240004FF0FF3038BDE068401CE060284638BD04
:10025000704740EA01039B0703D009E008C9121F59
:1002600008C0042AFAD203E011F8013B00F8013B70
:10027000521EF9D27047D2B201E000F8012B491E9C
:10028000FBD270470022F6E710B513460A46044633
:100290001946FFF7F0FF204610BD421C10F8011B65
:1002A0000029FBD1801A704710B5002200E0521CD3
:1002B000835C8C5CA34201D1002BF8D1D8B2E1B2AF
:1002C000401A10BD30B505460020034600E05B1C17
:1002D000934205D2EC5CC85C201A01D1002CF6D107
:1002E00030BD00000FB400B58DB010A909900B907F
:1002F00000914FF0FF300A9000200C9005480690C6
:10030000054807906A4609A80F9900F043F90DB017
:100310005DF814FBB1050008CF0500082DE9FF5F6B
:100320001D464FF0FF3BD5E9014691465F464FF031
:100330000008A9697F1C01988847296A8246884776
:100340000028F6D1BAF1FF3F0CD024F4C064002E8F
:1003500019DD600614D5BAF12B0F09D0BAF12D0FB3
:100360000ED103E0584604B0BDE8F09F44F4806429
:10037000A9697F1C01988847761E8246002E02DDFF
:10038000BAF1300F03D0B9F1000F26D032E0A969DD
:10039000761E44F400747F1C019888478246002E24
:1003A00005DDBAF1780F06D0BAF1580F03D0B9F1D4
:1003B000000F10D01EE0B9F1000F02D0B9F1100FFC
:1003C00018D1A969761E24F400747F1C019888470F
:1003D0008246102002E0082000E00A20814609E061
:1003E00008FB0908A969761E44F400747F1C019873
:1003F00088478246002E05DD4946504600F0B5F894
:100400000028EDDAE96901988847A00502D46FF069
:100410000100A8E7E00725D1600613D5600502D5E5
:10042000C8F1000000E0404629680A1D2A600968FA
:10043000220501D5087015E0220701D5088011E0DA
:1004400008600FE02868011D29600068210502D5B9
:1004500080F8008006E0210702D5A0F8008001E0C6
:10046000C0F8008038467EE770B5054C054D03E0C6
:10047000206820448047241DAC42F9D170BD0000A3
:10048000E04D0008E44D00082DE9F041074615460F
:100490000E46102003F008FE04000AD06760C4E98D
:1004A000026500F0A5F80168216004600020BDE845
:1004B000F0810120FBE700F0004230F000400AD05C
:1004C000C10D01F56071C0F3160042EA0151C20886
:1004D00040071143704700200146704730B50B4676
:1004E000014600202022012409E021FA02F59D4264
:1004F00005D303FA02F5491B04FA02F52844151E38
:10050000A2F10102F1DC30BD2DE9F05F05460020CB
:1005100092469B4688460646814640241BE0284674
:1005200041464746224600F062FA53465A46C01AF0
:10053000914110D311461846224600F049FA2D1A6F
:1005400067EB01084F4622460120002100F040FAE7
:1005500017EB00094E41201EA4F10104DFDC4846E0
:1005600031462A464346BDE8F09F3A2800D230384B
:1005700020F02002412A01D3A2F13700884201D3A2
:100580004FF0FF307047000002681144137801609B
:1005900018467047D1600449516104491162002135
:1005A0001161114600F04ABA89050008330A0008B3
:1005B000426842B1016811F8013B23B1521EC0E903
:1005C0000012184670470121C160881E70474268BA
:1005D0005AB1C368016843B983688B4205D0491E8C
:1005E000521CC0E90012002070474FF0FF307047E6
:1005F00000487047FC01002070472DE9F041064695
:10060000FFF7F6FF8046454613E016B1E068B042BA
:100610000ED120682860D4E90101D8F8007088471D
:10062000204603F0D9FBD8F80000B842EBD100E037
:1006300025462C68002CE8D1BDE8F0812DE9FE4F5D
:10064000804681EA0300C00F0C46009021F0004173
:1006500023F00045B8EB0200A94105D240462146EF
:1006600090461C460B46024623F00040104347D0FC
:10067000270DC7F30A00C3F30A510290401A0190F4
:1006800040286BDAC3F3130040F4801B00989246B5
:1006900020B10023D2EB030A63EB0B0B0198594600
:1006A000C0F14002504600F093F906460D46504610
:1006B0005946019A00F0ABF910EB080061410024A3
:1006C00087EA115284EAE7731A4340D0009A62B372
:1006D000019A012A4FEA075215DC001B61EB020167
:1006E0004FF0004202EA0752CDE90042001C41F5FA
:1006F000801132462B4600F047FB03B0BDE8F08F77
:1007000040462146F9E7001B61EB0201001C41F560
:10071000801300185B412018A2F5001747EB030176
:1007200040EAD570B6196D4111E06D084FEA360602
:1007300045EAC0754FEA0752001B61EB0201001C3D
:1007400041F5801149084FEA300000195141324605
:100750002B4603B0BDE8F04F00F007BB0098012224
:1007600040000023D0EB020263EBE07300982146C7
:100770004FEAE074B8EB000061EB0401E9E783F0B5
:1007800000435BE781F0004158E72DE9FE4F81EA25
:10079000030404F0004421F0004100944FF0000BEA
:1007A00023F0004350EA01045ED052EA03045BD018
:1007B000C3F30A54C1F30A552C44A4F2F334019450
:1007C000A0FB0254C1F3130141F48011C3F31303DE
:1007D00043F4801301FB024400FB034E840A970A92
:1007E00044EA815447EA8357A4FB076802958D0ABF
:1007F00005FB07854FEA932C04FB0C542705029D4B
:100800004FEA065847EA1637B5EB08056EEB070CBA
:10081000870E920E47EA811742EA8312A7FB020174
:10082000B6EB0B0164EB00042B0D43EA0C335E18AE
:1008300044EB1C50DA465146E7FB0201C5F31304B2
:100840004FEA0B3343EA14534FEA0432019C43EA64
:100850000603A4F10C040294009CCDE900B400F05E
:1008600093FA03B0BDE8F08F00200146F9E72DE9C7
:10087000F04D81EA030404F0004B21F000451446DA
:100880004FF0000A23F0004150EA050220D054EA5C
:1008900001021DD0C5F30A570246C5F31303C1F385
:1008A0001300C1F30A5640F4801543F48013A7EBFC
:1008B0000608101BD64608F2FD3873EB050002D37C
:1008C00008F1010801E092185B41B8F1000F03DA6A
:1008D00000200146BDE8F08D00204FF4801106464F
:1008E00084460EE0171B73EB050705D3121B63EB61
:1008F000050306434CEA010C49084FEA3000921800
:100900005B4150EA0107EDD152EA030012D082EABE
:10091000040083EA0501084305D0101BAB4106D251
:100920000122002306E000224FF0004302E06FF0B6
:10093000010253101AEB06004CEB085110EB0A00B1
:1009400041EB0B01BDE8F04D00F00FBAC1F30A52C4
:10095000C1F3130140F2FF3341F480119A4202DAED
:1009600000200146704740F233439A42A2F23342DC
:1009700002DC524200F03BB800F02AB830B5041E49
:1009800071F1000404DB4FF00044404264EB0101CC
:10099000141E73F1000405DB1C464FF00043524265
:1009A00063EB0403994208BF904230BD064C074DEB
:1009B00006E0E06840F0010394E80700984710342F
:1009C000AC42F6D3FFF702FCC04D0008E04D000832
:1009D000202A04DB203A00FA02F1002070479140FF
:1009E000C2F1200320FA03F3194390407047202AF4
:1009F00004DB203A21FA02F00021704721FA02F3C9
:100A0000D040C2F120029140084319467047202A85
:100A100006DBCB17203A41FA02F043EAE07306E026
:100A200041FA02F3D040C2F1200291400843194636
:100A30007047C0B24FF4F05100F0F4B92DE9F34F14
:100A40008BB04FF0000801F10C000C464FF0010B89
:100A500046460DF1080A019062690121019890470C
:100A6000051E2DD0252D2CD0216A8847C0B1626982
:100A7000012101989047216A88470028F7D1411E3B
:100A800062690198904700E0761CA1690B9888473D
:100A9000216A88470028F7D1E1690B988847DBE78E
:100AA000A1690B9888470746A84201D1761CD3E775
:100AB000E1690B9888477F1C02D1B8F1000F6FD015
:100AC00046E1002762693D463946019890472A2849
:100AD00004D162690121019890470125DFF88492D1
:100AE0006269012101989047A0F130010A290AD2D8
:100AF0004F45E5DC07EB870100EB4107303FDFD4D2
:100B000045F01005ECE7E90601D46FF000476C28CA
:100B10000AD04C2814D0682815D06A280DD0742823
:100B20001CD07A281AD01DE06269012101989047F3
:100B30006C2802D045F0040514E045F002050DE0F4
:100B400045F020050AE06269012101989047682874
:100B500002D045F0080505E045F400656269012111
:100B600001989047C4E9015765283DD019DC582801
:100B70007AD00CDC452837D004DC252826D0412843
:100B800031D131E046282FD047282CD12CE05B28EA
:100B900077D0612828D063287CD0642823D15AE0FC
:100BA000D0E06F2848D008DC66281DD067281BD00D
:100BB000692821D06E2816D127E0702845D07328E7
:100BC00068D0752847D078280DD14DE0A1690B98E1
:100BD0008847054625283FF469AFE1690B988847A7
:100BE0006D1C3FF46AAFB3E023466A466FF0010024
:100BF0000B99AFF300809EE045F040006060A807CD
:100C000023464FF0000236D43EE0E8077FF447AFBA
:100C10002068011D21600068290501D506701BE7C9
:100C2000290701D5068017E7A90703D5F117C0E901
:100C3000006111E706600FE745F040006060A8071B
:100C400023464FF0080216D41EE040F60E0125EAB6
:100C50000100606016E045F040006060A807234690
:100C60004FF00A0207D40FE045F040006060A8078B
:100C700008D5234610226FF001000B99AFF30080D6
:100C800059E007E0234610226FF001000B99FFF7AF
:100C900045FB50E04FF000094F464B46632802D019
:100CA0005B2806D040E0E80601D40120A0600127BF
:100CB0003AE062690121019890475E2805D14FF022
:100CC00001096269494601989047216939B90021B3
:100CD0000A46534643F82120491C0829FADBB0B3E1
:100CE000216969B9C11700EBD16253110AEB830185
:100CF00022F01F02821A01200B68904003430B6010
:100D000062690121019890475D28E8D1B9F1000F8F
:100D100009D00020514651F82020D24341F820202C
:100D2000401C0828F7DB02AB224600976FF0010059
:100D30000B99AFF3008000280CDA401C08D1BBF1FE
:100D4000000F05D04FF0FF300DB0BDE8F08FFFE78A
:100D50004046F9E7E90701D108F1010806444FF0E0
:100D6000000B79E6CCCCCC0C704710B5141E73F197
:100D7000000408DA401C41F1000192185B411A435B
:100D800001D120F0010010BD2DE9F04D92469B46A7
:100D900011B1B1FA81F202E0B0FA80F2203290464D
:100DA000FFF716FE04460F4640EA0A0041EA0B012F
:100DB00053465A46084313D0114653EA010019D04E
:100DC000C8F140025046FFF712FE05460E46504657
:100DD00059464246FFF7FCFD084305D0012004E0D8
:100DE00020463946BDE8F08D0020054346EAE0760E
:100DF0002C4337430A986305E40AA0EB080000225D
:100E0000FD0A44EA47540A3002D500200146E9E7CA
:100E1000010510196941DDE9084500196941BDE87E
:100E2000F04DA2E77F2801D9002208E0064A02EB34
:100E30005002C007127800D1120902F00F020120FF
:100E40009040084070470000F049000810B503F0DA
:100E5000B8F903F0B5F9BDE8104003F08DB80021F2
:100E6000016041617047000030B482B04FF0000C67
:100E7000CDF804C090F83C20012A01BF022002B046
:100E800030BC7047012280F83C200A6807230468C0
:100E9000092A14D9E5680A3A02EB420203FA02F27F
:100EA00025EA0202E2600B788A680A3B03EB4303FF
:100EB00002FA03F30268D4682343D36011E0256982
:100EC00002EB420203FA02F225EA020222610B78E7
:100ED0008A6803EB430302FA03F3026814692343AD
:100EE00013614A681F23072A16D20468656B521ED5
:100EF00002EB820203FA02F225EA020262630B7934
:100F00000A885B1E92B203EB830302FA03F30268C2
:100F1000546B234353632DE004680D2A15D2256BCF
:100F2000D21F02EB820203FA02F225EA02022263D6
:100F30000B790A88DB1F92B203EB830302FA03F3F7
:100F40000268146B2343136314E0E56A0D3A02EB65
:100F5000820203FA02F225EA0202E2620B790A88AF
:100F60000D3B92B203EB830302FA03F30268D46AE7
:100F70002343D362264A0368934204BF0B68122BB3
:100F800005D1D2F8043343F48003C2F80433036874
:100F9000934232D11F4B0C689C4218BF112C2CD1AC
:100FA000D2F8044344F40004C2F8044309689942A7
:100FB00023D11949194A0968B1FBF2F101EB81010A
:100FC00049000191009118D0B1F1004F1BD20029C6
:100FD000D8BF002105DD11F0010102D0019A521E97
:100FE0000192009A491C531C994206DA019A891C05
:100FF000521E521E01929942F8DB80F83CC002B0AA
:10100000002030BC70470199491E0191FCD1F4E7E2
:101010000020014012000010D801002040420F00C3
:101020000068C06C70470000002804BF01207047B2
:1010300070B5044690F83D00002520B984F83C5076
:10104000204600F0A3F8022084F83D004D48D0F877
:10105000041321F44031C0F80413D0F8041362687B
:101060001143C0F804132068416821F48071416085
:1010700020684168226941EA022141602068416894
:1010800021F04071416020684168A26811434160CD
:101090002068816821F40061816020688168E268CD
:1010A00011438160E06A6FF07061C8422068816816
:1010B00021F0706181602068816808BF21F0405193
:1010C0000BD0E26A114381602068816821F04051B1
:1010D000816020688168226B11438160206881688B
:1010E00021F00201816020688168A26941EA420121
:1010F0008160606A00282068416808BF21F40061AF
:1011000013D041F4006141602068416821F46041DE
:101110004160206841684FF46043A26A93FAA3F3E8
:10112000B3FA83F3521E9A40114341602068C16AAA
:1011300021F47001C1622068C16A228C124B03EB5A
:1011400002521143C1622068816821F400718160FC
:1011500020688168E26941EA4221816020688168F3
:1011600021F48061816020688168626941EA82219E
:1011700081602564012084F83D0084F83C50002003
:1011800070BD0000002001400000F0FF704700002B
:101190002DE9F041044600680D4681684FF00007D4
:1011A00011F4806F1CBF806810F4807F07D004208A
:1011B00084F83D0084F83C700120BDE8F08100F027
:1011C000A7F906462068006810F0020F15D100BF8D
:1011D000B5F1FF3F0CD025B100F09AF9801BA84271
:1011E00006D9032084F83D0084F83C70BDE8F08106
:1011F0002068006810F0020FEAD094F83D0025281E
:101200000CBF3520152084F83D000020BDE8F0819A
:1012100082B04FF0000CCDF804C090F83C100129CA
:1012200002BF022002B07047012180F83C1090F804
:101230003D1022290CBF3221122180F83D10016897
:101240008A6812F0010F26D18A6842F001028A6092
:101250002149224A0968B1FBF2F111EB41010191E8
:10126000009118D0B1F1004F30D20029D8BF002131
:1012700005DD11F0010102D0019A521E0192009A7F
:10128000491C521C914206DA019B891C5B1E5B1EA5
:1012900001939142F8DB124980F83CC0D1F8042355
:1012A000006812F01F0F06D0884204BF816811F059
:1012B000405F04D007E0816811F0405F03D181688E
:1012C00041F080418160002002B070470199491EC1
:1012D0000191FCD1DFE70000D801002040420F005F
:1012E000002001402DE9F84F0022844EDFF810E283
:1012F00001274FF0030A4FF00F0800BF0B6807FAF1
:1013000002F42340A34240F0F280D1F804C0BCF1C3
:10131000020F18BFBCF1120F15D14FEAD20C00EB2F
:101320008C05D5F820904FEA427C4FEADC6C08FA35
:101330000CFB29EA0B09D1F810B00BFA0CFC4CEAB3
:10134000090CC5F820C0D0F800904FEA420C91F883
:1013500004B00AFA0CF50BF0030B29EA05090BFAA5
:101360000CFB4BEA0909C0F80090D1F80490B9F1E0
:10137000010F18BFB9F1020F05D0B9F1110F18BF55
:10138000B9F1120F18D1D0F80890D1F80CB029EAB1
:1013900005090BFA0CFB4BEA0909C0F80890D0F8D4
:1013A000049029EA040491F80490C9F3001909FA99
:1013B00002F949EA04044460C468AC438D6805FA44
:1013C0000CFC4CEA040CC0F80CC0D1F804C01CF0B2
:1013D000805F7CD0D6F800C04CF4804CC6F800C0CA
:1013E000D6F800C00CF4804CCDF800C022F0030CFD
:1013F0000CF1804404F59834D4F808584FEA827C04
:101400004FEA1C7C08FA0CF925EA0905A0F180498D
:10141000B9F5003930D0A0F18049B9F5013908BFDC
:101420004FF0010928D0A0F18049B9F5023908BF71
:101430004FF0020920D0A0F18049B9F5033908BF67
:101440004FF0030918D0A0F18049B9F5043908BF5D
:101450004FF0040910D0A0F18049B9F5053908BF53
:101460004FF0050908D0A0F18049B9F506390CBF45
:101470004FF006094FF0080909FA0CFC4CEA050C7C
:10148000C4F808C8DEF800C04C682CEA030C14F459
:10149000803F18BF4CEA030CCEF800C0194CD4F8BA
:1014A00000C04D682CEA030C15F4003F18BF4CEA4D
:1014B000030CC4F800C0144CD4F800C04D682CEAEA
:1014C000030C15F4801F18BF4CEA030C00E00EE07B
:1014D000C4F800C00D4CD4F800C04D682CEA030CD1
:1014E00015F4001F18BF4CEA030CC4F800C0521CCE
:1014F000102AFFF403AFBDE8F88F00004438024023
:10150000003C0140043C0140083C01400C3C0140CF
:101510000148006870470000D401002002480168BB
:10152000491C016070470000D40100200B4810B531
:10153000016841F400710160016841F4806101605B
:10154000016841F480710160032000F06DF80F2004
:1015500000F006F800F066F8002010BD003C0240E4
:1015600010B588B001A902A800F0CEFC00F0ECFC98
:10157000244901900A6842F008020A60096801F0F3
:101580000801079120490A6842F008020A600A68C7
:1015900022F008020A601E4C1C4921604FF0FF3106
:1015A000E160059A1B49002A18BF4000B0FBF1F02A
:1015B00080B2401E606000202061A060606114481D
:1015C00000F0CCFF1449322001F034F813494FF4F5
:1015D0008020C1F8000100210D4800F0DBFF04214C
:1015E0000B4800F0D7FF2068416A0D4A116001F5F1
:1015F0007A7181632068C16841F00401C16008B05C
:10160000002010BD4038024020380240000C00404D
:101610000802002040420F00AD46000804E000E050
:10162000C401002070470000074900F007000A6865
:101630004FF6FF031A4042EA002040F0FD7040F0F0
:1016400080600860704700000CED00E0F8B52448A9
:10165000016841F0805101600068012600F080506F
:101660000090300490FAA0F0B0FA80F0800000F111
:10167000844000F560200660FFF74AFF194D0446DC
:10168000686810F4803F09D1FFF742FF001BB0F5F6
:101690007A7F1DD8686810F4803FF5D04FF4003091
:1016A00090FAA0F0B0FA80F0800000F1844000F5DC
:1016B00060200660FFF72CFF0446686810F4003FC6
:1016C0000CD100BFFFF724FF001BB0F57A7F01D9D2
:1016D0000320F8BD686810F4003FF3D00020F8BD87
:1016E00040380240007000402DE9F84F0446007871
:1016F0004FF0000BFF4DDA4610F0010F0AD02868BA
:10170000A16B20F0C06008432860A06B002808BFD0
:101710004FF0010B207810F0020F0AD02868E16B1F
:1017200020F0C05008432860E06B002808BF4FF04D
:10173000010B207810F0040F10D02868216B20F4E2
:10174000401008432860206BB0F5801F08BF4FF0A1
:10175000010B03D0002808BF4FF0010A207810F0D9
:10176000080F10D02868616B20F4400008432860FF
:10177000606BB0F5800F08BF4FF0010B03D000285D
:1017800008BF4FF0010A207810F0200F5BD0DA4834
:10179000016841F0805101600068D84E00F080502F
:1017A0000090306840F480703060FFF7B1FE07466B
:1017B000306810F4807F09D1FFF7AAFEC01B6428AF
:1017C00000F27982306810F4807FF5D0CC4F386811
:1017D000B4F8401000F4407001F44071884232D0F7
:1017E0003868C84A012120F440701160002111605E
:1017F000386010F0020F13D0FFF78AFE06463868F3
:1018000010F0020F08BF41F2883809D1FFF780FEBF
:10181000801B404500F24F82386810F0020FF5D06F
:10182000216C4FF4407030EA0102B7481CBF0168D8
:1018300021F4F81159D001603868B4F84010C1F3B0
:101840000B0108433860207810F0100F04D0AF4926
:1018500094F85800C1F8E001207810F0800FAC48EF
:1018600005D00168E26C21F4400111430160217848
:1018700011F0400F05D00168A26C21F08061114386
:101880000160218811F4807F0BD00168626D21F026
:10189000006111430160616DB1F1006F08BF4FF04D
:1018A000010A218811F4007F05D00168626C21F0E3
:1018B00080511143016021884FF4403611F4806F4C
:1018C0004FF0706747F6C0784FF0FF3909D00168D4
:1018D000226D21F0005111430160206DB0F1005FD5
:1018E00011D0BBF1000F0ED108E0026821F4407165
:1018F00022F4F81221F0704111439CE72068B0F502
:10190000006F40F04481834900208866FFF700FEA5
:1019100083468148006810F0006F0BD0FFF7F8FD98
:10192000A0EB0B00642800F2C6817B48006810F031
:10193000006FF3D12268794812F0010F4FF0E041B7
:1019400001D0A36B23B112F0020F38D0E26BB2BB0F
:10195000026896FAA6F302F44032B3FA83F3DA404F
:10196000521C0368520097FAA7FC03F07063BCFA9C
:101970008CFC23FA0CF3D4E901CB98FAA8FEBEFA4A
:101980008EFE0BFA0EFB4CEA0B0C96FAA6FB09EB4B
:101990005202BBFA8BFB02FA0BF297FAA7FBBBFAD7
:1019A0008BFB03FA0BF31A434CEA020391FAA1FCF6
:1019B0006269BCFA8CFC02FA0CF21A4302602268DB
:1019C00012F0040F03D0236BB3F5801F06D012F082
:1019D000080F43D0626BB2F5800F3FD1026896FAD0
:1019E000A6F302F44032B3FA83F3DA40521C0368E0
:1019F000520091FAA1FC03F0E043BCFA8CFC23FAFC
:101A00000CF3D4E901CB98FAA8FEBEFA8EFE0BFACD
:101A10000EFB4CEA0B0C96FAA6FB09EB5202BBFA42
:101A20008BFB02FA0BF297FAA7FED4F810B0BEFABD
:101A30008EFE0BFA0EFB42EA0B024CEA020291FA0E
:101A4000A1FCBCFA8CFC03FA0CF31A4302602A686E
:101A5000A36A22F01F025B1E1A432A60228812F436
:101A6000806F3CD0226DB2F1005F38D1026896FAE7
:101A7000A6F302F44032B3FA83F3DA40521C530067
:101A8000026891FAA1FC02F0E042BCFA8CFC22FA56
:101A90000CF2D4E901CB98FAA8FEBEFA8EFE0BFA3E
:101AA0000EFB4CEA0B0CD4F80CB096FAA6FE09EB30
:101AB0005B0BBEFA8EFE0BFA0EFB97FAA7FEBEFA80
:101AC0008EFE03FA0EF34BEA03034CEA030391FA8A
:101AD000A1FCBCFA8CFC02FA0CF21A4302602288C8
:101AE00012F4006F3CD0D4E9012398FAA8FCBCFAA8
:101AF0008CFC15E08C3802404038024000700040F9
:101B000070380240400E47420838024000104742F9
:101B100094380240000047420038024084380240B6
:101B200003FA0CF31A43E36896FAA6FC09EB530395
:101B3000BCFA8CFC03FA0CF397FAA7FBD4F810C09C
:101B4000BBFA8BFB0CFA0BFC43EA0C031A4391FA29
:101B5000A1F16369B1FA81F103FA01F11143016066
:101B60005A4801218166FFF7D3FC83465848016833
:101B700011F0006F0BD100BFFFF7CAFCA0EB0B0008
:101B800064287DD85248006810F0006FF4D0BAF194
:101B9000000F76D04D4900200867FFF7B9FCDFF849
:101BA00030B18246DBF8000010F0005F0BD000BFC0
:101BB000FFF7AEFCA0EB0A0064287CD8DBF800003D
:101BC00010F0005FF4D12168424811F0040F01D0F9
:101BD000226B22B111F0080F2FD0616B69BB016835
:101BE00096FAA6F201F44031B2FA82F2D140491CD1
:101BF000D4E90623490098FAA8FCBCFA8CFC03FA45
:101C00000CF31A4396FAA6F309EB5101B3FA83F3E6
:101C1000994097FAA7FC636ABCFA8CFC03FA0CF3B0
:101C20001943114301602968E26A6FF0FF0321F450
:101C3000F85103EB022211432960218811F4807FBF
:101C400029D0616DB1F1006F25D1016897FAA7F233
:101C500001F07061B2FA82F2D140D4E9062398FA19
:101C6000A8FCBCFA8CFC03FA0CF31A43236A96FA1C
:101C7000A6FC09EB5303BCFA8CFC03FA0CF301E05D
:101C800019E020E097FAA7FCBCFA8CFC01FA0CF1F1
:101C90001943114301600D4901200867FFF738FC23
:101CA0000446DBF8000010F0005F0CD1FFF730FCB9
:101CB000001B642802D90320BDE8F88FDBF8000080
:101CC00010F0005FF2D00020BDE8F88F000047421E
:101CD00000380240883802402DE9F047DFF81C92B6
:101CE00005468846D9F8000001F0FF0A00F00F0011
:101CF0008349844C41F2883740456DD289F800A071
:101D0000D9F8000000F00F0040457CD1287810F091
:101D1000020F05D02068AA6820F0F0001043206070
:101D2000287810F0010F3FD06868012824D00228DD
:101D300018BF0328096824D011F0020F63D021686E
:101D400021F0030108432060FFF7E2FB06466868C4
:101D500001281AD0022828D0032836D0206810F095
:101D60000C0F21D0FFF7D4FB801BB84267D8206846
:101D700010F00C0FF6D1A5E0096811F4003FDED198
:101D80009DE011F0007FDAD199E0206800F00C00AE
:101D9000042809D0FFF7BCFB801BB8424FD820684D
:101DA00000F00C000428F5D18CE0206800F00C0055
:101DB000082870D0FFF7ACFB801BB8423FD82068E2
:101DC00000F00C000828F5D17CE02068FFF7A0FBAC
:101DD000801BB842F9D932E0287810F0020F05D004
:101DE0002068AA6820F0F00010432060287810F0E6
:101DF000010F5CD06868012824D0022818BF03288E
:101E0000096824D000E05AE011F0020F57D0216891
:101E100021F0030108432060FFF77AFB064668685B
:101E2000012818D0022826D0032835D0206810F0C9
:101E30000C0F3CD0FFF76CFB801BB84233D903205A
:101E4000BDE8F087096811F4003FE0D137E011F0F8
:101E5000007FDCD133E0206800F00C00042826D09D
:101E6000FFF756FB801BB842E9D8206800F00C0051
:101E70000428F5D11BE0206800F00C00082816D0DB
:101E8000FFF746FB801BB842D9D8206800F00C0051
:101E90000828F5D10BE015E02068FFF739FB801B1F
:101EA000B842F9D9CBE7206810F00C0FC2D189F8FD
:101EB00000A0D9F8000000F00F00404502D001203A
:101EC000BDE8F087287810F0040F05D0206820F4D2
:101ED000E051E86808432060287810F0080F06D029
:101EE0002068296920F4604040EAC10020600F208A
:101EF000FFF736FB0020BDE8F0870000003C024001
:101F000000380240083802400F2202600C4A136871
:101F100003F003034360136803F0F0038360136866
:101F200003F4E053C36012684FF4E05303EAD202B3
:101F300002610448006800F00F000860704700006C
:101F400008380240003C024010B500F049F80E4944
:101F50000A68F02393FAA3F302F0F002B3FA83F3D2
:101F600022FA03F3094AD35CD840094B1860096888
:101F70004FF4E05393FAA3F301F4E051B3FA83F37F
:101F8000D940515CC84010BD08380240DC47000809
:101F9000D801002010B500F023F80E490A68F0239C
:101FA00093FAA3F302F0F002B3FA83F322FA03F3F5
:101FB000094AD35CD840094B186009684FF4604364
:101FC00093FAA3F301F46041B3FA83F3D940515C6F
:101FD000C84010BD08380240DC470008D801002086
:101FE000394810B4006810F00C0C384804BF10BC1D
:101FF0007047374BBCF1040F02BF184610BC704746
:1020000047F6C071BCF1080F324A18D0BCF10C0F72
:102010001CBF10BC7047D2F800C014680CF03F0C15
:1020200014F4800F37D0B3FBFCF013680B4091FA27
:10203000A1F1B1FA81F123FA01F1484336E0D2F877
:1020400000C014680CF03F0C14F4800F0BD0B3FBED
:10205000FCF013680B4091FAA1F1B1FA81F123FA77
:1020600001F148430AE0B0FBFCF013680B4091FA21
:10207000A1F1B1FA81F123FA01F1484311684FF45B
:10208000403292FAA2F201F44031B2FA82F2D14027
:10209000491C490014E0B0FBFCF013680B4091FAB6
:1020A000A1F1B1FA81F123FA01F1484311684FF02F
:1020B000E04292FAA2F201F0E041B2FA82F2D1409B
:1020C000B0FBF1F010BC7047083802400024F40067
:1020D00000127A000438024070B515460E461F4BB8
:1020E0000221032200281E4C186886B04FF0000C15
:1020F00019D040F004001860186800F00400059042
:1021000008020090CDE9011CCDE9032C6946154871
:10211000FFF7E8F8206846EAC50120F07840084358
:10212000206006B070BD40F001001860186800F033
:10213000010005904FF480700090CDE9011CCDE9BD
:10214000032C69460848FFF7CDF8206846EA0501E8
:1021500020F0EC600843206006B070BD30380240CB
:102160000838024000080240000002402DE9F84F04
:1021700004460078F04F10F0010F4FF00C084FF0BC
:10218000000BA7F104055DD0381D016801F00C01BA
:10219000042910D0016801F00C01082903D1396825
:1021A00011F4800F07D1006838EA00000CD13868BC
:1021B00010F4800F08D0286810F4003F42D0606807
:1021C000002800F0B6813DE0DFF8709389F800B098
:1021D000FFF79EF90646286810F4003F0AD000BFBA
:1021E000FFF796F9801BC82800F24581286810F493
:1021F000003FF5D1207989F80000606888B1FFF7C9
:1022000087F90646286810F4003F1BD1FFF780F9D4
:10221000801BC82800F22F81286810F4003FF5D0F9
:1022200010E0FFF775F90646286810F4003F09D062
:10223000FFF76EF9801BC82800F21D81286810F492
:10224000003FF5D12078BE4E10F0020F56D0BD48A9
:1022500001684FF0F80911F00C0F1CD0016801F073
:102260000C01082904BF396811F4800F13D00068ED
:1022700038EA000004BF386810F4800F0BD0E06823
:1022800040B301203060FFF743F98046286810F022
:10229000020F09D012E0286810F0020F1CBFE0689E
:1022A00001280BD000F045B9FFF732F9A0EB080088
:1022B00064287CD8286810F0020FF5D0286899FAB5
:1022C000A9F22169B2FA82F220F0F80091400843A5
:1022D000286013E0C6F800B0FFF71AF980462868B6
:1022E00010F0020F0AD000BFFFF712F9A0EB0800B0
:1022F00064285CD8286810F0020FF5D1207810F01F
:10230000080F30D09048DFF844926169B1B10121E3
:102310000160FFF7FDF88046D9F8000010F0020FC9
:1023200021D100BFFFF7F4F8A0EB080064283ED8E5
:10233000D9F8000010F0020FF4D014E0C0F800B09B
:10234000FFF7E6F88046D9F8000010F0020F0AD037
:10235000FFF7DEF8A0EB0800642828D8D9F80000C1
:1023600010F0020FF4D1207810F0040F6BD07848F1
:10237000016841F0805101600068DFF8D89100F0F9
:1023800080500090D9F8000040F48070C9F8000037
:10239000FFF7BEF88046D9F8000010F4807F0CD11A
:1023A000FFF7B6F8A0EB0800642864D800E062E00C
:1023B000D9F8000010F4807FF2D0DFF89C9189F802
:1023C00000B0FFF7A5F88046D9F8000041F2883A3E
:1023D00010F0020F0BD000BFFFF79AF8A0EB080037
:1023E000504548D8D9F8000010F0020FF4D1207AF7
:1023F00089F80000A06898B1FFF78AF88046D9F8FC
:10240000000010F0020F1ED1FFF782F8A0EB0800C9
:10241000504530D8D9F8000010F0020FF4D012E087
:10242000FFF776F88046D9F8000010F0020F0AD0C6
:10243000FFF76EF8A0EB080050451CD8D9F8000053
:1024400010F0020FF4D1A069E8B33E49096801F029
:102450000C0108296DD00228C6F860B00ED0FFF735
:1024600057F80446286810F0007F5FD0FFF750F857
:10247000001B642856D90320BDE8F88FFFF748F801
:102480008046286810F0007F0AD000BFFFF740F8B0
:10249000A0EB08006428EED8286810F0007FF5D182
:1024A000D4E90701084347F6C07292FAA2F2616AC2
:1024B000B2FA82F29140A26A4FF0FF3303EB52026C
:1024C0004FF4403300E031E093FAA3F3B3FA83F31F
:1024D0009A40114301434FF0706292FAA2F2E06A0F
:1024E000B2FA82F2904008434FF0E04292FAA2F230
:1024F000216BB2FA82F291400843386001203066C5
:10250000FFF706F80446286810F0007F0ED100BFE0
:10251000FEF7FEFF001B6428ADD8286810F0007F8E
:10252000F6D003E0286810F0007F9FD10020BDE8BE
:10253000F88F0120BDE8F88F0438024002380240CD
:102540000000474208380240800E4742743802407B
:10255000403802400070004070380240002804BF3C
:102560000120704710B5044690F8390028B90020C2
:1025700084F83800204600F00CF8022084F8390076
:10258000211D206800F026FA012084F8390000207F
:1025900010BD70470268012303FA01F1136A8B43EF
:1025A0001362136A194311620168A1F18042B2F506
:1025B00080321CBFA1F18042B2F5823203D14A6C55
:1025C00042F400424A640068016841F00101016080
:1025D00000207047002804BF0120704770B50446F2
:1025E00090F83900002520B984F83850204600F0D2
:1025F00020F8022084F839002068C16821F40051D5
:10260000C160204600F046FA2068016921F490413B
:1026100001612068416921F02A0141612068C16897
:1026200041F40051C160E563012084F839000020C5
:1026300070BD70472DE9F0410A4D0E4607462C68E3
:102640002868B0F1006F08D12146AC064FF4E27261
:102650002046FDF7FEFD2046286004EB8700066457
:10266000BDE8F08108ED00E030B593B0012000F046
:102670004BF800283BD12248016841F080510160AD
:10268000006800F0805012901E48016841F44041FB
:1026900001600068002400F4404012900320009084
:1026A0000120039001941020022506950490CDE9A5
:1026B00007404FF4B470CDE9090506200B90684639
:1026C000FFF754FD68B90F20CDE90D054FF4A05078
:1026D000CDE90F40E802119005210DA8FFF7FCFAA3
:1026E00000B1FEE7002211461046FFF7F5FC13B0DB
:1026F0000021BDE830404FF0C0620120FFF7ECBC84
:10270000403802400070004070B506002D48AAB065
:10271000016841F080510160006800F0805029900C
:102720002948016841F440410160006800F44040DC
:1027300029904FF00100009018BF0520022401905D
:102740006005CDE90640082508954FF4B470CDE941
:1027500009040720CDE90B046846FFF707FDE8B937
:10276000FEF774FFD0B94FF4C070CDE91350E0010B
:102770000D90C004229015950DA8FEF7B5FF0F200F
:10278000CDE92404002026904FF4A0502790E002C9
:102790002890052124A8FFF79FFA10B12AB0002045
:1027A00070BD46B100224FF480011046FFF794FC43
:1027B0002AB0012070BD4FF0806211110020FFF798
:1027C0008BFCF5E7403802400070004038B500242B
:1027D0002B4908284ED2DFE800F0040D161F2831DF
:1027E0003A43284C086840F001000860086800F08F
:1027F00001003DE0244C086840F0020008600868D1
:1028000000F0020034E0214C086840F00400086049
:10281000086800F004002BE01D4C086840F0080038
:102820000860086800F0080022E01A4C086840F0D0
:1028300010000860086800F0100019E0164C0868E5
:1028400040F020000860086800F0200010E0134C01
:10285000086840F040000860086800F0400007E0A9
:102860000F4C086840F080000860086800F08000A5
:10287000009002E00BA001F093FA204638BD000062
:1028800030380240000002400004024000080240CC
:10289000000C0240001002400014024000180240E8
:1028A000001C024050696E6D6170206572726F721B
:1028B0003A2077726F6E6720706F7274206E756D3C
:1028C0006265722E00000000DFF86CC030B4DCF8E6
:1028D00000001A4B10F00C01194806D05C100429B6
:1028E00008BF046002D008290CD00360DCF8001097
:1028F000144AC1F30311515C026822FA01F101602C
:1029000030BC704710490A68C2F380550A68002D30
:1029100002F03F0214BFB4FBF2F2B3FBF2F20B6819
:102920000968C3F388135A43C1F30141491C4900A4
:10293000B2FBF1F10160D9E7083802400024F4004D
:10294000D8010020EC47000804380240184810B5B0
:10295000016841F4700101601648016841F001010D
:102960000160154A00211160026822F4102222F051
:1029700080720260031D114A1A60026822F48022EC
:1029800002600F4801600F49580608600F490E4861
:102990000860FEF7CBFDFFF767FE0D48016841F0C8
:1029A00008010160016821F00801016010BD00000C
:1029B00088ED00E000380240083802401030002462
:1029C0000C38024008ED00E080A81201D801002078
:1029D00020380240F0B40268294B2A4C2A4D2B4E75
:1029E000DFF8ACC0984218BFB0F1804F07D0A042CA
:1029F00018BFA84203D0B04218BF604503D14F684A
:102A000022F070023A43984218BFB0F1804F25D0AF
:102A1000A04218BFA84221D0B04218BF60451DD0C7
:102A2000A0F18044B4F5A0341CBFA0F18044B4F5FB
:102A3000A23413D0A0F18044B4F5A4341CBFA0F19B
:102A40008044B4F5C05409D0A0F18044B4F5E054FA
:102A50001CBFA0F18044B4F5005403D1CC6822F42B
:102A60004072224302608A68C2620A6882629842A7
:102A700012BF60450969016301214161F0BC7047E3
:102A8000000001400004004000080040000C00402D
:102A9000000401402DE9F041044600680169E26844
:102AA00021F44051114301612068C1682369A26883
:102AB000D4F81CC01A43636921F4037143EA0C0380
:102AC00021F414411A431143C16020684169A2698D
:102AD00021F4407111434161E2693226B2F5004FA1
:102AE0006F487049704D226837D08A4218BF8242C1
:102AF0007DD1FFF74FFA00EBC00101EB00106168D8
:102B00008900B0FBF1F0A5FB00104709FFF742FA7E
:102B100000EBC00101EB001061688900B0FBF1F827
:102B2000FFF738FA00EBC00101EB00106168890083
:102B3000B0FBF1F0A5FB001040096FF0180148430D
:102B400008EB800006EB0010A5FB0010216840098F
:102B500067F31F108860BDE8F0818A4218BF824287
:102B600033D1FFF717FA00EBC00101EB00106168E9
:102B70004900B0FBF1F0A5FB00104709FFF70AFA86
:102B800000EBC00101EB001061684900B0FBF1F8F7
:102B9000FFF700FA00EBC00101EB0010616849008B
:102BA000B0FBF1F0A5FB001040096FF0180148439D
:102BB00008EB800006EB0010A5FB0010216840091F
:102BC00067F31F108860BDE8F081FFF7BDF900EBE7
:102BD000C00101EB001061684900B0FBF1F0A5FBFA
:102BE00000104709FFF7B0F900EBC00100E022E058
:102BF00001EB001061684900B0FBF1F8FFF7A4F9A0
:102C000000EBC00101EB001061684900B0FBF1F07E
:102C1000A5FB001040096FF01801484308EB800045
:102C200006EB0010A5FB00102168400967F31F1098
:102C30008860BDE8F081FFF787F900EBC00101EB88
:102C4000001061688900B0FBF1F0A5FB0010470996
:102C5000FFF77AF900EBC00101EB00106168890011
:102C6000B0FBF1F8FFF770F900EBC00101EB0010C9
:102C700061688900B0FBF1F0A5FB001040096FF01E
:102C80001801484308EB800006EB0010A5FB00107C
:102C90002168400967F31F108860BDE8F0810000DB
:102CA00000140140001001401F85EB5110B4094988
:102CB00001600021084B10228C4600BF53F82140D0
:102CC000844208BF43F821C0491C521EF6D110BCF3
:102CD00070470000384A0008E002002010B50C469A
:102CE000001D01F099FC204610BD01EB410200EBF4
:102CF000C20201EB410100EBC100536B006A2032BC
:102D000023B1002808BF7047111D1847002808BFCD
:102D10007047004770B50E46144940F8041B002167
:102D200040F8041B154640F8081B022340F8041C19
:102D300040F8101B182240F80C1C40F8081C40F802
:102D4000041C0B4900F066F9A0F120044FF4165062
:102D500020652A463146201D01F048FB22460549E0
:102D6000201D01F04DFC204670BD0000644A0008A3
:102D70005F0E0008EB2C00080021FDF769BA000087
:102D800010B51C46FFF7C6FF2146543000F03AF854
:102D9000034940F8541D4C3181653439416510BDFB
:102DA000744A000810B5543000F04CF8543810BD87
:102DB00000207047002070472DE9F0418D180F4624
:102DC00006460C46A9420AD0306814F8011B426A34
:102DD00030469047B0F1FF3F18BFAC42F4D1E01B42
:102DE000BDE8F0810FB470B5044606AD406900F04F
:102DF00070F92A466069059900F000F970BC5DF829
:102E000014FB000010B584B000F078F804460A48BE
:102E100020603430606000206061224607A168466F
:102E200000F0D8F806A1684600F05FF96061FFF78E
:102E3000A3FF04B0204610BDD04A00083A25700018
:102E4000772B000010B504460548206034306060E0
:102E5000606900F03BF92046BDE8104000F060B822
:102E6000D04A0008007B704770B506460B480D46F7
:102E7000046884B1A06858B12A463146FDF722FAA9
:102E800030B9A068FDF709FAA84201D1204670BD0B
:102E90006468002CEED1002070BD0000F801002015
:102EA000064B03600023C0E901310273002908BF0B
:102EB000704703490A68426008607047144B000875
:102EC000F80100200B4901608168002908BF7047A4
:102ED000094A1168814202BF4168116070474A681F
:102EE000824203D0114652688242FBD142684A6056
:102EF00070470000144B0008F801002010B5064A86
:102F000040F8042B0022FFF7CBFF044940F8041DD2
:102F10002C31416010BD0000384A0008244B0008E5
:102F200010B5001DFFF7CEFFBDE81040001FFFF7F2
:102F3000BDBE10B50446406828B1FFF793FF0128D5
:102F400004BF606810BD002010BD10B50446406885
:102F500010B1FFF787FF08B1002010BD606800289E
:102F600018BF001F10BD4068002818BF012070471F
:102F700010B54068002808BF10BDFFF773FF002898
:102F80000CBF0120002010BD0068704710B504463A
:102F900000202060606008782F280DD1487858B153
:102FA0004B1C00212360226810782F2806D038B1EE
:102FB000501C491C2060F6E7204610BD501C2060C4
:102FC0001846FFF751FF6060204610BD5438FFF7E8
:102FD00085BE00000FB4084B10B504A902AA0398DF
:102FE00000F07AF9044602A9002000F00CFD20460A
:102FF00010BC5DF814FB0000073A000830B414461A
:103000000D4602462146284630BC014B00F064B90B
:10301000290200082DE9F0411C4617460E008046A3
:1030200007D0054602E02846B0473D442046641ECE
:10303000F9D24046BDE8F0810020FDF7DDBA02E09C
:1030400008C8121F08C1002AFAD170477047002033
:1030500001E001C1121F002AFBD1704710B5002307
:10306000032202211248FFF78BFE124A1249FDF794
:103070000BFA124800240521046044608460C46097
:1030800000F01AFF0E482146046044608460C4606A
:1030900000F012FF0B480421046044608460C460A7
:1030A00000F00AFFBDE810400748012100F0CCBD48
:1030B0004402002000000008A52D0008B0020020F6
:1030C000C0020020D0020020C8010020006800F0EB
:1030D0009FBC10B5C168006800F022FD002802DA2C
:1030E0004FF0FF3010BD002010BD70B506460D46F4
:1030F000142000F0D9FF040009D01421FDF7C2F814
:10310000224629463046BDE8704000F0B5B80020A0
:1031100070BD00002DE9FF5FDDE90220010DDDF843
:1031200038B0024318D044F61050A1F2FF314143A9
:103130000D140F98012820D0A5EB0B00401C5FEA6E
:10314000000A4FF00004474EDFF81C91A04650469D
:1031500016D5CAF1000728E00F98012443A20128E0
:1031600008D0002100980F9BC0E90021C0E902436C
:10317000BDE8FF9F6FEA0B01F4E7CBF10000DEE74B
:10318000074612E0F80707D0224633464046494634
:10319000FDF7FBFA8046894622463346104619461B
:1031A000FDF7F3FA04460E467F10002FEAD1DDE961
:1031B0000201BAF1000F42464B4602DAFDF7E5FA8A
:1031C00001E0FDF754FB04460E460022284BFDF7B4
:1031D000D5FB03D84FF0FF30014607E00022254B16
:1031E00020463146FDF72AFAFDF7B0FB102409E02E
:1031F000002C0ADB0A220023FDF786F9019B3032FE
:103200001A55641E50EA0102F2D1641C019AC4F1FD
:10321000110314440F9A012A03D0012208430DD14F
:103220000AE0084304D000204FF0110B0F9080E714
:10323000A3EB0B056D1E0DE05B4504DD4FF00002B6
:1032400005F1010504E003DA4FF00002A5F10105E4
:10325000002AECD000980F99C0E90231C0E900457E
:1032600086E70000000024400000F03F300000002E
:103270000000F0430000E03F70B5064610681546B8
:103280000C4608B100F0C4FB14F8010B612808D00B
:10329000722802D077281CD101E000210EE0042121
:1032A0000CE008210AE0641C2B2802D0622810D10F
:1032B00002E041F0020101E041F001012078002824
:1032C000F1D1304600F0BAFB411C02D028602846FC
:1032D00070BD002070BD00002DE9FF4F95B09B46EA
:1032E0008946064600250FE2252877D10024274687
:1032F000F84A0121059400E0044316F8013F203B01
:1033000001FA03F01042F7D130782A2811D06FF07B
:103310002F033078A0F13002092A16D8059A44F01C
:10332000020402EB820203EB42021044761C059079
:10333000EFE759F8042B0592002A03DA504244F4CF
:103340000054059044F00204761C30782E2816D1E3
:1033500016F8010F44F004042A280DD06FF02F0254
:103360003078A0F13003092B09D807EB870302EB73
:103370004303C718761CF3E759F8047B761C3078B2
:103380006C280FD006DC4C2817D068280DD06A288E
:1033900014D104E0742810D07A280FD10DE044F441
:1033A00000140AE044F4801401E044F440147278FC
:1033B000824202D104F58014761C761C307866288F
:1033C0000BD013DC582877D009DC002875D04528AD
:1033D000F6D04628F4D047281AD19DE118E063289A
:1033E00035D0642879D0652812D195E1702873D042
:1033F00008DC6728F1D069286FD06E280DD06F28BF
:1034000006D1B5E073282CD0752875D0782874D0F3
:103410005A46179990476D1C75E1C4F30250022873
:1034200009D003280DD0D9F8001004280DD00D6064
:1034300009F1040967E1D9F80010EA17C1E900525F
:10344000F6E7D9F800100D80F2E70D70F0E719F8F3
:10345000041B8DF8001000208DF80100EA460120C1
:1034600003E059F804AB4FF0FF3061074FF0000163
:1034700002D40DE008F101018846B9420FDA804517
:10348000F8DB1AF808100029F4D108E008F101016E
:1034900088468142FADB1AF808100029F6D105980F
:1034A0005B46A0EB080721463846179A00F094FACD
:1034B000284400EB080507E04DE029E10DE01AF88B
:1034C000010B5A4617999047B8F10108F7D25B46AD
:1034D00021463846179A13E142E00A220092C4F3CB
:1034E00002524FF0000A022A08D059F804CB032AEE
:1034F0004FEAEC710AD00DE029E02AE009F107015A
:1035000021F00702F2E802C1914609E00FFA8CFCB3
:103510004FEAEC71042A03D14FFA8CFC4FEAEC71AC
:10352000002907DA0A460021DCF1000C61EB0201F8
:103530002D2202E0220504D52B228DF80420012241
:1035400003E0E20701D02022F7E7904659E00A2184
:1035500002E010220DE010214FF0000A00910BE074
:1035600010224FF0000A44F004040827009203E000
:1035700008224FF0000A0092C4F30252022A05D03A
:1035800059F804CB0021032A08D009E009F107010A
:1035900021F00702F2E802C1914605E01FFA8CFC17
:1035A000042A01D10CF0FF0C4FF00008220728D5A7
:1035B000702806D0009B83F0100353EA0A0305D05D
:1035C0000EE040228DF80420012208E05CEA0102AE
:1035D00006D030228DF804208DF805000222904696
:1035E000009B83F0080353EA0A030AD15CEA010254
:1035F00001D1620705D530228DF804204FF0010873
:103600007F1E582804D034A003900EA802900DE02D
:1036100036A0F9E753466046009AFCF775FF8446EA
:103620000398825C0298401E029002705CEA0100DE
:10363000F0D1029806A9081A00F1200A600702D505
:1036400024F4803400E00127574502DDA7EB0A008F
:1036500000E0002000EB0A01009005984144401A68
:103660000590E00306D45B462146179A059800F0C2
:10367000B3F90544002706E001A85A46C05D179932
:1036800090476D1C7F1C4745F6DBE0030CD55B467D
:103690002146179A059800F09FF9054404E0302070
:1036A0005A46179990476D1C0099481E00900029B2
:1036B000F5DC08E0029802995A460078491C02910C
:1036C000179990476D1CBAF10001AAF1010AF1DCCB
:1036D00065E10000092801003031323334353637D6
:1036E000383961626364656600000000303132334E
:1036F00034353637383941424344454600000000EE
:1037000000F058F90544761C307800287FF4ECADC1
:1037100019B02846BDE8F08F620700D4062709F1EA
:10372000070222F0070CFCE80223E14603F0004800
:103730005FEA080C02D00FF2702C0DE05FEA045C27
:1037400002D50FF2682C07E05FEAC47C02D00FF2CA
:10375000602C01E0AFF2700C4FF0FF3823F0004313
:10376000CDF850C065280CD006DC452809D0462885
:103770001DD047283DD13DE0662818D067287ED16E
:1037800038E00021112F01DB112000E0781CCDE989
:10379000000106A90EA8FFF7BDFCDDE90F010E9A96
:1037A00003910021009207F1010A04914DE04FF0CE
:1037B00000400097CDE9011006A90EA8FFF7AAFC6A
:1037C000DDE90F0203920E9B11990022DDF80CA097
:1037D0000093049211B9791C00EB010AB7EB0A00BF
:1037E00004D4C0F1FF3007F1010A0490AAEB0700EE
:1037F000019044E0012F00DA01270021112F01DDA3
:10380000112000E03846CDE9000106A90EA8FFF717
:1038100081FCDDE90F010E9A0391002104910092D1
:10382000BA4621070CD40399514500DA8A46BAF109
:10383000010F05DD009AAAF10101515C302908D081
:10384000B84202DA10F1040F06DA0121CDE90110C5
:1038500015E0AAF10101E9E7002805DC049901441B
:103860000491AAEB000102E0411C514500DD8A46AB
:103870000499401A401C01904FF00040029020072C
:1038800004D40198504501DBCDF8048000208DF868
:103890004F0002980DF14F07B0F1004F25D02B20BB
:1038A0000E9002984FF0020800280CDA4042029075
:1038B0002D200E9007E00A210298FCF70FFE303110
:1038C000029007F8011DB8F10001A8F10108F2DC2F
:1038D00002980028EFD1791E0E980870307800F019
:1038E000200040F0450007F8020D12A8C01B00F1AF
:1038F00007081498007800B1012000EB0A01019834
:1039000001EBE07105984144401A401E0590E00328
:1039100006D45B462146179A059800F05DF80544E9
:103920001498007818B15A46179990476D1CE00317
:1039300024D55B462146179A059800F04DF80544BA
:103940001CE00498002807DBDDE90301884203DD61
:103950000098405C179901E0179930205A4690472B
:10396000049805F10105401C04900198401E019047
:1039700004D12E205A46179990476D1CBAF10001C8
:10398000AAF1010ADDDC05E017F8010B5A46179988
:1039900090476D1CB8F10001A8F10108F4DC5B460A
:1039A0002146179A0598ABE62D0000002B00000079
:1039B000200000002DE9F041044600251E46174670
:1039C000880404D405E039462020B0476D1C641EED
:1039D000F9D52846BDE8F0812DE9F04104460025DF
:1039E0001E469046C80301D5302700E020278804F2
:1039F00004D505E041463846B0476D1C641EF9D534
:103A00002846BDE8F0810A68531C0B6010707047AF
:103A10000328BCBF002070470749002201EB80014A
:103A200051F80C0C41F80C2C002804BF4FF0FF306B
:103A30007047016849680847E0020020F0B50E466B
:103A400083B0044632A1FCF72FFC00281CBF0025E0
:103A5000304F06D057F8250048B16D1C102DF9D312
:103A600047E02D490868421C0A6003B0F0BD102DE4
:103A70003FD220783A2811D021466846FFF786FACF
:103A80006846FFF770FA002833D06846FFF770FAEF
:103A90000028684609D0FFF758FA23E06A461FA1BC
:103AA0002046FCF71FFC00981CE0FFF742FA00B329
:103AB00016F0020F18BF02241FD000BF16F00C0F23
:103AC00018BF44F4007416F0040F18BF44F4806467
:103AD00006466846FFF758FA014630682246836872
:103AE0003046984700281FBF47F82500E81C03B060
:103AF000F0BD4FF0FF3003B0F0BD16F0040F18BF5B
:103B00000124DBD116F0080F14BF09240024D5E7E7
:103B10003A747400E0020020D00100203A257000C1
:103B20000328BCBF00207047064A02EB800050F813
:103B30000C0C002804BF4FF0FF3070470268136977
:103B400000221847E002002070B514460E460328F4
:103B500013DA1248006820B903220221104800F04D
:103B600045FC0025002C06D9715D0D4800F054FD80
:103B70006D1CAC42F8D820460DE00A4901EB8000EC
:103B800050F80C0C002804BF4FF0FF3070BD0168E6
:103B90000B6831469847201A70BD0000E4010020F0
:103BA00084050020E002002000B585B00021254AF0
:103BB000009101910291039101681160012101912D
:103BC000407910281CD2DFE800F00F080B0D1E20F2
:103BD000222426282A2C2E3032340120009003E0A3
:103BE000022000E00320009069461648FDF73CF9EA
:103BF0001448FDF70DFB0A211248FDF7C9FAD0B1B0
:103C000005B0002000BD0420EDE70520EBE706200D
:103C1000E9E70720E7E70820E5E70920E3E70A20CE
:103C2000E1E70B20DFE70C20DDE70D20DBE70E20CE
:103C3000D9E70F20D7E70348FDF7F2F905B080B2C6
:103C400000BD000020030020F8B50E4604463349AD
:103C5000304600F06DFB2060B0F1FF3F04D133220D
:103C60002F4930A000F056FA2C49304600F012FBE4
:103C70000546B0F1FF3F04D1372229492FA000F0BB
:103C800049FAC5F3C32060712449304600F080FB37
:103C90002671314BD4F800C030499C4503D10868E7
:103CA000002818BFF8BD2E4801229C4508D10368A2
:103CB00043F480730360036803F4807300930A6025
:103CC000DFF8A0C02368634503D14D68002D18BFFD
:103CD000F8BD634508D1036843F48063036000685E
:103CE00000F4806000904A601F4821680160002154
:103CF0004160816001618161416281620163C162F1
:103D0000C160C0E907124161FDF78EF9002808BFC4
:103D1000F8BD16A0BDE8F84000F042B81848000809
:103D2000104C00086F626A2D3E61646320213D20C3
:103D3000284144434E616D65294E430066756E63AC
:103D400074696F6E20213D202875696E7433325F6F
:103D500074294E430000000000200140DC010020D7
:103D600044380240002201402003002043616E6E6F
:103D70006F7420696E697469616C697A6520414469
:103D8000430A000010B5FFF70FFF00EE100ADFED49
:103D9000030AB8EE400A20EE200A10BD010880395F
:103DA0000FB4044810B503AA0299FFF727F90120C0
:103DB00000F002F8F005002004460548FFF789F9F5
:103DC0000448FFF786F9002C18BF00F0C3F9FEE79E
:103DD000DC050020F005002010B5002821D0114B93
:103DE0000022001F196803E0814203D80A4649688F
:103DF0000029F9D152B11368841A9C4204D1006899
:103E000018441060104602E0506000E0186039B1BC
:103E100002680B1A934203D10B681A440260496886
:103E2000416010BD0002002070B5044690F900000A
:103E30000D46B0F1FF3F04D14622094909A000F028
:103E400069F994F90000012D04D0BDE8704000210B
:103E500000F0BEB9BDE87040012100F0B9B9000022
:103E6000EC4C00086F626A2D3E70696E20213D2087
:103E70002850696E4E616D65294E430070B50C4641
:103E800005460170B1F1FF3F08BF70BDC4F30310D8
:103E9000FEF79CFC06460021204600F099F904F04C
:103EA0000F00012101FA00F0686006F11000A8601F
:103EB0000830E86070BD000070B504460D4600266D
:103EC000FFF7DCFFB5F1FF3F08BF70BD94F90000BC
:103ED000B0F1FF3F04D134220849094800F01AF933
:103EE000A088E1680004086001212046FFF79CFFDC
:103EF00031462046BDE8704000F03AB8584B000803
:103F0000583F00082DE9F04104460E4600271546AB
:103F1000FFF7B4FFB6F1FF3F08BFBDE8F08194F9A9
:103F20000000B0F1FF3F04D134220A490AA000F09A
:103F3000F1F8002D12BF6068A0880004E1680860F5
:103F400001212046FFF770FF39462046BDE8F041C9
:103F500000F00EB8584B00086F626A2D3E70696E13
:103F600020213D202850696E4E616D65294E430029
:103F700090F9000000F062B9DFF8D08082B001252E
:103F80002EA108F15400FEF72DFF08F17C0494F9EE
:103F90000000B0F1FF3F04D134222D492DA000F0E4
:103FA000B9F8E16860680860304C94F90000B0F13D
:103FB000FF3F04D13422264926A000F0ABF8A088A8
:103FC000E168000408602A4FB7EE000A00F0E4FB45
:103FD0002848FFF7D7FE00F031FB10EE100AFCF77F
:103FE0006AFACDE900012A466D1C23A108F15400AC
:103FF000FEF7F8FE97F900001D4CB0F1FF3F04D129
:104000003E22134913A000F085F8B868006879686B
:10401000084214BF0026012694F90000B0F1FF3FCA
:1040200004D134220A490BA000F074F8002E12BF0C
:104030006068A0880004E1680860C5E748656C6CAA
:104040006F20576F726C6420210A00004402002028
:10405000CC4B00086F626A2D3E70696E20213D20B6
:104060002850696E4E616D65294E4300D0020020D4
:10407000B0020020C801002052756E732073696E73
:104080006365202564207365636F6E64732E20540E
:104090004D5033352074656D70657261747572654D
:1040A0003A202566200D0A00F0B50B30154D20F0A2
:1040B00007010024144A0FE003688B420BD38B42A4
:1040C00005D95E1A43184768C3E9006700E04368F2
:1040D000136002C004E0021D10680028ECD12046E5
:1040E000002802D1286808B10020F0BD064A074820
:1040F0001060074A121A22F00702C0E900240120CA
:104100002860D7E704020020000200200C060020EF
:1041100000FC012013460A46014601A0FFF740BEFD
:104120006D626564206173736572746174696F6E2A
:10413000206661696C65643A2025732C2066696C81
:10414000653A2025732C206C696E65202564200A51
:104150000000000084B072B605216846FFF7ACFE8F
:104160009DF90000B0F1FF3F04D134220D490EA0AB
:10417000FFF7D0FF039901980860962000F020FB1C
:104180009DF90000B0F1FF3F04D13422054906A09B
:10419000FFF7C0FF0198039900040860962000F023
:1041A0000FFBDDE7584B00086F626A2D3E70696EA9
:1041B00020213D202850696E4E616D65294E4300D7
:1041C000704710B5FEF780FBBDE81040FDF7AEB9B3
:1041D000F0B585B00C460546B0F1FF3F04D1812211
:1041E0000F4910A0FFF796FF04F00F07C4F3021663
:1041F000C5F30310C4F3C31405F00F05FEF7E6FA88
:104200000121A94000910C4951F82710CDE9011670
:104210000321CDE903146946FDF764F805B0F0BD4C
:10422000584D000870696E20213D202850696E4E5F
:10423000616D65294E430000BC49000870B50C460D
:104240000546B0F1FF3F04D1A6220C490CA0FFF7B0
:1042500061FFC5F3031005F00F05FEF7B7FA022C56
:1042600088BF0024C268690003238B409A43C26060
:10427000C26804FA01F11143C16070BD584D0008D5
:1042800070696E20213D202850696E4E616D652950
:104290004E43000010B5B0F1FF3F08BF10BD91F9CB
:1042A0000020B2F1FF3F0DD091F90020824204D1ED
:1042B0008C68B4F1FF3F0AD106E011F90C2FB2F17E
:1042C000FF3FF1D14FF0FF3402A0FFF769FD204618
:1042D00010BD000070696E6D6170206E6F74206695
:1042E0006F756E6420666F722066756E6374696F99
:1042F0006E000000884208BF7047B0F1FF3F04BF66
:104300000846704710B5B1F1FF3F08BF10BD03A0CC
:10431000FFF746FD4FF0FF3010BD000070696E6D75
:104320006170206D69732D6D617463680000000019
:1043300010B5B0F1FF3F08BF10BD91F90020B2F1F8
:10434000FF3F0DD091F90020824204D14C68B4F1B6
:10435000FF3F0AD106E011F90C2FB2F1FF3FF1D176
:104360004FF0FF3402A0FFF71BFD204610BD0000F8
:1043700070696E6D6170206E6F7420666F756E640B
:1043800020666F72207065726970686572616C007A
:1043900010B50446B0F1FF3F08BF10BD91F9000011
:1043A000B0F1FF3F13D000BF91F90000A04209D146
:1043B00089682046FFF70CFF2046BDE81040002129
:1043C000FFF73CBF11F90C0FB0F1FF3FECD1BDE896
:1043D000104001A0FFF7E4BC636F756C64206E6F42
:1043E000742070696E6F7574000000002DE9F84F3D
:1043F0008A46044691466C495046FFF799FF0546A8
:104400006A494846FFF794FF01462846FFF772FFC6
:104410000646B0F1FF3F04D1C822654965A0FFF709
:1044200079FE6B496B48721A002501274FF004088A
:104430008E423BD009DC12F5406118D0B1F5806F97
:104440001FD0B1F5006F26D045E06348B2F5404F6C
:1044500003D0B2F5444F34D03DE0016841F0100183
:104460000160006800F010000090656033E00168B2
:1044700041F400310160006800F400300090676092
:1044800029E0016841F480210160006800F4802087
:104490000090022008E0016841F4002101600068FA
:1044A00000F4002000900320606014E0016841F4F3
:1044B00080110160006800F480100090C4F804804E
:1044C00009E0016841F020010160006800F020006F
:1044D00000900520606034495046FFF759FF33498A
:1044E0004846FFF755FFBAF1FF3F03D00121504680
:1044F000FFF7A4FEB9F1FF3F03D001214846FFF7C3
:104500009DFE4FF41650C4E902052561656184F8EB
:1045100018A084F81990DFF8C490606809EB801047
:104520000660A1684160E16881602169C1606169DC
:104530008561C5610161C584C58594F91910B1F122
:10454000FF3F08BF082108D094F91810B1F1FF3FD0
:104550000CBFC0F814800C2100D04161FEF73AF87E
:1045600000281CBF1EA0FFF71BFC616809EB81102F
:104570000068A0F18042B2F5884218BFBDE8F88F0C
:104580001D480760D4E902621C48D4F810C02568B1
:104590006369A469C0F830C2C0E98851C0E98A6281
:1045A000C0E98D34BDE8F88FE448000850490008A0
:1045B000804C0008696E7374616E636520213D2034
:1045C00028554152544E616D65294E43000000004C
:1045D000005000404038024044380240840300202C
:1045E00043616E6E6F7420696E697469616C697A7B
:1045F0006520554152540A00E40100206403002064
:10460000034B59604068034941F82020704700007F
:10461000E4010020640300204268074800EB821395
:1046200018680268C2F3C012002AFAD0C1F3080069
:104630001968486070470000840300209FED051A48
:10464000DFED050A50EE010AB2EE041A80EE810A8F
:104650007047000000404E450000FA4310B5044684
:104660000068C0688047606840680028206811D0F2
:104670004068804761680246486803689A1A002AC1
:104680000CDC82684A606168096800291CBF4068C8
:104690008847E8E78068BDE810400047486821681F
:1046A00000680969BDE810400847000070B5114D69
:1046B0002868C06810F0020F18BF00F045F828689D
:1046C000C16811F0040F08BF70BD6FF004010161F3
:1046D0002868446A084E3068201AB0F57A7F38BFDF
:1046E00070BDFCF71BFF296804F57A70886334609D
:1046F00070BD000008020020C401002002496FF0D4
:104700000200096808617047A0050020034800689E
:10471000C16821F00201C16070470000A0050020BF
:1047200006480168002918BF70470121016005494A
:10473000034808600020FCF713BF0000EC010020D4
:10474000000C0040A00500200148FFF787BF0000D3
:1047500010480008074810B5016839B90121016007
:104760000649054808600020FCF7FAFE0448006886
:1047700010BD0000EC010020000C0040A00500204E
:10478000240C0040034909684863C86840F00200EF
:10479000C8607047A0050020DFED080A70B520EE64
:1047A000200ABDEEC00A10EE104AFFF7D3FF0546FF
:1047B000FFF7D0FF401BA042FAD370BD002474491C
:1047C00070B54FF47A7100FB01F5FFF7C3FF0446A3
:1047D000FFF7C0FF001BA842FAD370BD0000000025
:1047E0000102030401020304060708090000000097
:1047F0000000000001020304060708092147000821
:10480000554700080D470008FD4600088547000889
:10481000FC470008F00100200000000000200140DB
:104820000500000001000000002001400508000014
:1048300002000000002001400510000003000000FD
:104840000020014005180000040000000020014085
:1048500005200000050000000020014005280000A0
:1048600006000000002001400530000007000000A5
:104870000020014005380000100000000020014029
:104880000540000011000000002001400548000024
:104890002000000000200140055000002100000021
:1048A00000200140055800002200000000200140C7
:1048B00005600000230000000020014005680000A2
:1048C00024000000002001400570000025000000C9
:1048D0000020014005780000FF000000FFFFFFFFFF
:1048E0000000000000000000004C00401304000025
:1048F0000200000000440040930300000900000093
:104900000010014093030000160000000010014059
:10491000930300001A0000000048004093030000C9
:104920002600000000140140130400002A000000CB
:1049300000480040930300002C000000005000409D
:1049400013040000FF000000FFFFFFFF0000000055
:1049500001000000004C00401304000003000000B0
:1049600000440040930300000A00000000100140D2
:1049700093030000170000000010014093030000A3
:1049800025000000004800409303000027000000BD
:1049900000140140130400002B00000000480040F8
:1049A0009303000032000000005000401304000098
:1049B000FF000000FFFFFFFF0000000000000000FC
:1049C00001000000110000000200000012000000C1
:1049D0000300000000001110000021100000311041
:1049E0000000121000002210000032100000001021
:1049F000DDDDDDDDDCBBBBDDDDDDDDDDDDDDDDDD2C
:104A0000988888888888888877777777778888886B
:104A10008555555666666666666666666668888803
:104A20008333333222222222222222222228888DFC
:104A30000000000000000000393000083930000894
:104A400039300008393000083930000839300008A2
:104A500000000000AD2C0008000000000000000075
:104A60000000000000000000000000000000000046
:104A700000000000A52D000800000000000000005C
:104A800000000000ACFFFFFF00000000B92D00088F
:104A9000B12D00080000000000000000B52D000846
:104AA0000000000000000000000000000000000006
:104AB000CD2F000800000000A8FFFFFF000000004D
:104AC00000000000000000000000000000000000E6
:104AD000B92D0008B12D0008000000000000000002
:104AE000B52D00080000000000000000452E000861
:104AF000000000003930000839300008FCFFFFFFDB
:104B000000000000000000000000000000000000A5
:104B100000000000C52E000800000000000000009A
:104B20000000000039300008393000083930000832
:104B30003930000839300008393000080000000022
:104B4000212F000800000000FCFFFFFF0000000014
:104B50000000000000000000433A5C4A656E6B698B
:104B60006E735C776F726B73706163655C6D6265A9
:104B7000642D322D6275696C642D6C69627261728C
:104B8000795C6275696C645C6D6265645C54415209
:104B90004745545F4E55434C454F5F46343436527B
:104BA000455C5441524745545F53544D5C54415207
:104BB0004745545F53544D333246345C6770696FD8
:104BC0005F6F626A6563742E680000006D626564E1
:104BD0002F5441524745545F4E55434C454F5F4615
:104BE00034343652452F5441524745545F53544D47
:104BF0002F5441524745545F53544D333246342F5E
:104C00006770696F5F6F626A6563742E6800000089
:104C1000433A5C4A656E6B696E735C776F726B7357
:104C2000706163655C6D6265642D322D6275696CBF
:104C3000642D6C6962726172795C6C696272617216
:104C40006965735C6D6265645C74617267657473D9
:104C50005C68616C5C5441524745545F53544D5CF1
:104C60005441524745545F53544D333246345C618E
:104C70006E616C6F67696E5F6170692E6300000022
:104C8000433A5C4A656E6B696E735C776F726B73E7
:104C9000706163655C6D6265642D322D6275696C4F
:104CA000642D6C6962726172795C6C6962726172A6
:104CB0006965735C6D6265645C7461726765747369
:104CC0005C68616C5C5441524745545F53544D5C81
:104CD0005441524745545F53544D333246345C730C
:104CE000657269616C5F6170692E6300433A5C4A6A
:104CF000656E6B696E735C776F726B737061636501
:104D00005C6D6265642D322D6275696C642D6C6911
:104D100062726172795C6C69627261726965735CFE
:104D20006D6265645C746172676574735C68616C04
:104D30005C5441524745545F53544D5C5441524773
:104D400045545F53544D333246345C6770696F5F2E
:104D50006170692E63000000433A5C4A656E6B69BE
:104D60006E735C776F726B73706163655C6D6265A7
:104D7000642D322D6275696C642D6C69627261728A
:104D8000795C6C69627261726965735C6D6265649D
:104D90005C746172676574735C68616C5C544152E9
:104DA0004745545F53544D5C5441524745545F53FB
:104DB000544D333246345C70696E6D61702E630001
:104DC000E44D0008C4010020440000003E3000080B
:104DD000284E000808020020000800004E3000089D
:104DE0007DE2FFFF00000000000000000000000066
:104DF00000000000000000000024F400000000009B
:104E000000000000000000000000000000000000A2
:104E10000000000000000000000000000000000092
:084E200000000000000000008A
:04000005080001C529
:00000001FF
