:020000040800F2
:10000000881300204D020008E9550008EB55000850
:10001000ED550008EF550008F155000800000000FC
:10002000000000000000000000000000F355000880
:10003000F555000800000000F7550008FB550008C2
:1000400067020008670200086702000867020008EC
:1000500067020008670200086702000867020008DC
:1000600067020008670200086702000867020008CC
:1000700067020008670200086702000867020008BC
:1000800067020008670200086702000867020008AC
:10009000670200086702000867020008670200089C
:1000A000670200086702000867020008670200088C
:1000B000670200086702000867020008670200087C
:1000C000670200086702000867020008670200086C
:1000D000670200086702000867020008670200085C
:1000E000670200086702000867020008670200084C
:1000F000670200086702000867020008670200083C
:10010000670200086702000867020008670200082B
:10011000670200086702000867020008670200081B
:10012000670200086702000867020008670200080B
:1001300067020008670200086702000867020008FB
:1001400067020008670200086702000867020008EB
:1001500067020008670200086702000867020008DB
:1001600067020008670200086702000867020008CB
:1001700067020008670200086702000867020008BB
:1001800067020008670200086702000867020008AB
:10019000670200086702000867020008670200089B
:1001A00067020008670200086702000800F002F812
:1001B00000F03CF80AA090E8000C82448344AAF1C5
:1001C0000107DA4501D100F031F8AFF2090EBAE8C3
:1001D0000F0013F0010F18BFFB1A43F0010318477B
:1001E000F0F1000010F20000103A24BF78C878C186
:1001F000FAD8520724BF30C830C144BF04680C602D
:10020000704700000023002400250026103A28BF74
:1002100078C1FBD8520728BF30C148BF0B60704778
:100220001FB505F013FE1FBD10B510BD05F0B9FADE
:100230001146FFF7F5FF05F0F5F805F0D7FA03B41E
:10024000FFF7F2FF03BC05F0DFFA00000948804722
:1002500009480047FEE7FEE7FEE7FEE7FEE7FEE7A8
:10026000FEE7FEE7FEE7FEE704480549054A064BC0
:1002700070470000C3560008AD010008880D00203B
:1002800088130020880F0020880F0020F94801689B
:1002900041F001010160F74A002108321160026853
:1002A000F54B1A400260031DF44A1A60F14BF44A00
:1002B00084331A60F14A103A1B1D1A60026822F456
:1002C00080220260EB480C300160181D016070470D
:1002D000E8490022891C0A70087070470246002015
:1002E000510901290CD002290CD0E2497431096866
:1002F00002F01F02012393400B4200D001207047FF
:10030000DC49F4E7DB497031F1E718B500204FF420
:10031000A04400903120FFF7E1FF0099491C0091B3
:10032000A14201D00028F5D03120FFF7D7FF0028E7
:1003300000D0012018BDCF4A116821F0F80141EA30
:10034000C00010607047CF4908607047C94900225B
:1003500070310A700A70012802D0042801D10520EA
:1003600008707047C8490860704741EA82115A080E
:1003700010B5C64B029C03EB02421143014341EA14
:100380000460BC49091D086010BDBE49086670477D
:10039000800140EA0160B74940EA02708431086098
:1003A0007047B84988667047800140EA0160B149EA
:1003B00040EA0270883108607047B24908677047A8
:1003C000B049C8647047AB4B08331A68084322F041
:1003D000EC62104318607047A64B08331A68084354
:1003E00022F07842104318607047A24A0832116820
:1003F00021F003010143116070479E4808300068F6
:1004000000F00C0070479B4A0832116821F0F0019F
:10041000014311607047974A0832116821F4E05196
:10042000014311607047934A0832116821F460411A
:1004300041EAC0001060704770B58E4B08331968F0
:10044000934C11F00C0104D06610042903D0082944
:1004500003D004601BE0066019E0864A121D116893
:10046000C1F38055116801F03F0115B1B6FBF1F100
:1004700001E0B4FBF1F114681268C4F3881461431D
:10048000C2F30142521C5200B1FBF2F10160196843
:100490000F2202EA11117F4A545C0168E140416079
:1004A0001C68072505EA9424145D21FA04F484608D
:1004B0001B6805EA5333D25CD140C16070BDC0F304
:1004C0000121032908D16B4B08331968724A21F4C2
:1004D000F81102400A431A60664970310A68C0F395
:1004E0000B0002430A60704767494439086070474F
:1004F00065494039086070476249C1F85C0170473E
:100500005C4A8C321168401E21F01F0101431160CA
:100510007047584A8C3211686FF0FF0321F4F8518C
:1005200003EB0020084310607047524A8C32116878
:1005300021F440110143116070474E4A8C3211681A
:1005400021F440010143116070474A4A8C3211681E
:1005500021F440310143116070475049C1F8E00176
:100560007047444A30320029116801D0014300E04D
:100570008143116070473F4A34320029116801D02D
:10058000014300E08143116070473A4A3832002944
:10059000116801D0014300E0814311607047354A82
:1005A00040320029116801D0014300E0814311600D
:1005B0007047304A44320029116801D0014300E0FD
:1005C0008143116070472B4A10320029116801D015
:1005D000014300E0814311607047264A143200292C
:1005E000116801D0014300E0814311607047214A46
:1005F00018320029116801D0014300E081431160E5
:1006000070471C4A20320029116801D0014300E0E4
:10061000814311607047174A24320029116801D0C4
:10062000014300E0814311607047124A50320029B3
:10063000116801D0014300E08143116070470D4A09
:1006400054320029116801D0014300E08143116058
:100650007047084A58320029116801D0014300E070
:10066000814311607047034A60320029116817D036
:10067000014316E000380240FFFFF6EA1030002484
:100680000030002000004742800E47420000FFFF7C
:100690000024F40000000020FFFCFF0F0010474280
:1006A000814311607047194A0029116801D0014344
:1006B00000E081431160704714490C31012808683B
:1006C00003D020F008000860704740F00800FAE707
:1006D0000E4A573A0029117801D0014300E08143C6
:1006E0001170704709481030016841F08071016055
:1006F00070470146054A0020583A12680A4200D065
:10070000012070470149563908707047643802402B
:10071000774910B5884206D101210846FFF753FFFB
:10072000002101205BE07349884206D101210220AB
:10073000FFF749FF0021022051E06F49884206D1AE
:1007400001210420FFF73FFF0021042047E06B490F
:10075000884206D101210820FFF735FF002108203B
:100760003DE06749884206D101211020FFF72BFFA9
:100770000021102033E06349884206D10121202066
:10078000FFF721FF0021202029E05F49884206D1A0
:1007900001214020FFF717FF002140201FE05B49A7
:1007A000884206D101218020FFF70DFF0021802023
:1007B00015E05749884202D1012184150AE05549C4
:1007C000884202D10121441504E0534988420AD1EC
:1007D000012104152046FFF7F6FE00212046BDE862
:1007E0001040FFF7F0BE10BDF0B5002201274FF01A
:1007F000030C0B6807FA02F52B40AB422CD10668BC
:1008000053000CFA03F4A64306600E79D0F800E01A
:100810009E4046EA0E0606600E79012E01D0022E99
:1008200012D18668A64386604E79D0F808E09E40D3
:1008300046EA0E0686604668AE43466045688E7995
:100840009640B6B235434560C568A543C560CC79CE
:100850009C40C3681C43C460521C102AC9D3F0BD1D
:100860004FF6FF7101600021017141718171C17109
:10087000704708B541F480320092C261C1610099AD
:10088000C161C169C069009008BD024600201269BB
:100890000A4200D001207047006980B270470246CA
:1008A000002052690A4200D001207047406980B29E
:1008B000704701837047418370470AB101837047D5
:1008C000418370474161704742694A4042617047C5
:1008D0004B07DB0E9A40C90810B500EB8100016A96
:1008E0000F249C40A1430162016A1143016210BDC3
:1008F000000002400004024000080240000C0240D8
:10090000001002400014024000180240001C024087
:1009100000200240002402400028024010B50121BE
:100920000C022046FFF777FE2046BDE8104000216C
:10093000FFF771BE30B54268C84B0C791A400B689E
:1009400042EA0422134343608268C54B4D791A4042
:10095000D1E9034323438C6844EA4504234313430A
:100960008360C26A097D22F47002491EC9B242EA5C
:100970000151C16230BD002101600171417181608E
:10098000C1600161012101757047B64B10B5D3F804
:100990000423B5490A40D0E900142143D0E90240BC
:1009A000044321431143C3F8041310BD0021016027
:1009B00041608160C16070470029816802D041F0C8
:1009C000010101E021F00101816070474268A74BFD
:1009D0001A400A434260704741628262704742682F
:1009E00022F01F020A43426070479E490028D1F856
:1009F000040302D040F4000001E020F40000C1F83C
:100A00000403704797490028D1F8040302D040F44A
:100A1000800001E020F48000C1F80403704770B545
:100A2000072609290AD9C568A1F10A0404EB440480
:100A3000A640B543A3401D43C56007E0056901EB2F
:100A40004104A640B543A3401D4305611F23072A67
:100A500009D2446B521E02EB820293409C439140A8
:100A60000C43446370BD0D2A09D2046BD21F02EB04
:100A7000820293409C4391400C43046370BDC46A5E
:100A80000D3A02EB820293409C4391400C43C462B6
:100A900070BD816841F0804181607047014600204F
:100AA0008968490000D5012070470029816802D07B
:100AB00041F4806101E021F4806181607047002988
:100AC000816802D041F0020101E021F00201816061
:100AD00070474268491E22F4604242EA4131416057
:100AE00070470029416802D041F4006101E021F41F
:100AF000006141607047C06C80B270475948D0F8BF
:100B0000080370470029816802D041F4807101E038
:100B100021F48071816070470029816802D041F41E
:100B2000007101E021F40071816070474D49002897
:100B3000D1F8040302D040F4005001E020F400504A
:100B4000C1F80403704770B5072609290AD9C5689A
:100B5000A1F10A0404EB4404A640B543A3401D439D
:100B6000C56007E0056901EB4104A640B543A34019
:100B70001D430561836BC3F30154121B921C02EBEE
:100B800082021F249440A34391400B43836370BDB2
:100B9000826B491E22F4401242EA01518163704780
:100BA00008B508440090026008BD826822F47022F3
:100BB0000A4382607047826822F440120A438260CE
:100BC0007047816841F480018160704701460020D0
:100BD0008968490200D5012070470029416802D088
:100BE00041F4806101E021F4806141607047002997
:100BF000416802D041F4805101E021F4805141600C
:100C0000704708B5084428300090006880B208BDDD
:100C100001238B4041680AB1194300E099434160C8
:100C200070470246002012680A4200D00120704737
:100C3000C9430160704730B50246002053680C0A72
:100C400001258D4011682B40214202D0002B00D09D
:100C5000012030BD6FEA112101607047FFFEFFFCEB
:100C6000FDF7FFC000200140E030FCFFFFFD3FFF2B
:100C700010B501214C072046FFF7C3FC2046BDE814
:100C800010400021FFF7BDBC30B54D4C236840F645
:100C9000FE7282409343D1E900252A43D1E90251F3
:100CA0000D432A4382401A43226030BD0021016077
:100CB00041608160C1607047414B012282401868E9
:100CC00009B1104300E09043186070473C4B1B1D76
:100CD0000209012090400029196801D0014300E079
:100CE0008143196070473649091D0028086802D001
:100CF00040F0030001E020F0030008607047304B33
:100D0000814018680AB1084300E0884318607047C2
:100D10002B4A08B5104408300090016008BD284AED
:100D200008B5104414300090016008BD082805D0B3
:100D300042EA0141224A10440162704742EA01211D
:100D4000F8E71F4908B501EB90002C3000900068CF
:100D500080B208BD1A4B9A148240186809B110433A
:100D600000E0904318607047154B814018680AB145
:100D7000084300E08843186070470246104B00208B
:100D800034331B6891400B4200D0012070478140F2
:100D90000B48343001607047094A0346002012684E
:100DA0009940074B0A4034331B680B4202D0002A9B
:100DB00000D0012070478140014834300160704705
:100DC000007400402DE9F043016821F00101016049
:100DD0000021016041608160C160016121214161A8
:100DE000B849B84A3D251039904202D18D60BDE81E
:100DF000F083B44A4FF474661832904201D18E6089
:100E0000F5E7B04A4FF474173032904201D18F6049
:100E1000EDE7AC4A4FF0746C4832904202D1C1F811
:100E200008C0E4E7A74BA84A6033984201D1CA60E2
:100E3000DDE7A44CA54B7834A04201D1CB60D6E7C6
:100E4000DFF88082A24C08F19008404501D1CC60C7
:100E5000CDE7DFF870824FF03D5908F1A808404512
:100E600002D1C1F80C90C2E79A49DFF868820839CC
:100E7000404501D10D60BAE7964D1835A84201D121
:100E80000E60B4E7934D3035A84201D10F60AEE754
:100E9000904D4835A84202D1C1F800C0A7E78D4D5A
:100EA0008C496035091FA84201D10A609FE7894A31
:100EB0007832904201D10B6099E7864A9032904295
:100EC00001D10C6093E7834AA83290428FD1C1F8D8
:100ED00000908CE730B503687F4ACC6813400A68FD
:100EE0002243D1E905452C432243CC6922430C6AB5
:100EF00022434C6A22438C6A22434C6B22438C6B04
:100F000022431A430260426922F00703D1E90B240D
:100F100022431A4342610A6942604A6882608968D2
:100F2000C16030BD0021016041608160C16001612C
:100F300041618161C161016241628162C16201639B
:100F40004163816370470029016802D041F00101CB
:100F500001E021F00101016070470029016802D021
:100F600041F4004101E021F4004101607047002993
:100F7000016802D041F0200101E021F02001016070
:100F8000704741607047406880B27047002A02682D
:100F900002D042F4002201E022F40022026001614A
:100FA00070470029016802D041F4802101E021F45A
:100FB0008021016070470AB101617047C1607047CC
:100FC000014600200968090300D501207047014649
:100FD00000200968C90700D001207047406900F06F
:100FE0003800704702463B4B00209A4202D2354AF5
:100FF000103A01E0374A103A8B0001D5526800E000
:101000001268364B1A400A4200D001207047314A1C
:10101000904202D22B48103801E02E4810382F4A57
:101020008B0001EA020101D5C16070478160704701
:101030000B0607D5436912B143F0800301E023F0AA
:1010400080034361802908D0002A026801F01E0154
:1010500001D00A4300E08A430260704730B51D4A60
:101060000024904202D2174A103A01E0194A103A7D
:101070001B4B194205D01E2303EAD12503682B40E0
:1010800002E0406900F08003880001D5506800E06C
:101090001068124A1040084201D003B101242046D2
:1010A00030BD0C4A904202D20648103801E009488F
:1010B00010380A4A8B0001EA020101D5C16070476D
:1010C00081607047106002403D000020400F00200A
:1010D00000003D20106402403F801CF07D0F7D0F1A
:1010E0003C0F3C0FFE4910B5884206D1012108464D
:1010F000FFF791FA002101205BE0B0F1804F09D0A9
:10110000F84988420DD101210220FFF77AFA002127
:10111000022070E001210846FFF773FA0021012048
:1011200069E0F149884206D101210420FFF769FAFC
:10113000002104205FE0ED49884206D1012108200A
:10114000FFF75FFA0021082055E0E949884206D1FF
:1011500001211020FFF755FA002110204BE0E5494E
:10116000884206D101212020FFF74BFA00212020E0
:1011700041E0E149884206D101210220FFF74BFA04
:101180000021022015E0DD49884202D101210C0432
:101190000AE0DB49884202D101214C0404E0D9492C
:1011A00088420AD101218C042046FFF734FA00213D
:1011B0002046BDE81040FFF72EBAD349884206D139
:1011C00001214020FFF71DFA0021402013E0CF4904
:1011D000884206D101218020FFF713FA00218020E8
:1011E00009E0CB4988420AD1841501212046FFF746
:1011F00008FA00212046BDE81040FFF702BA10BDF2
:1012000030B50288B64CBC4DA0420DD0A8420BD0E0
:10121000B0F1804F08D0B34B984205D0B24B984202
:1012200002D0B24B984203D122F070034A881A438D
:10123000AF4B984206D0AF4B984203D022F4407394
:101240000A891A4302804A68C2620A880285A0425B
:1012500001D0A84201D1897A01860121818230BD65
:101260004FF0FF3141600021018001814180817296
:101270007047018582827047028822F070020A431B
:101280000280704741627047C1627047406A704790
:10129000008D70470029018802D041F0020101E071
:1012A00021F00201018070470029018802D041F03D
:1012B000040101E021F00401018070470029018848
:1012C00002D041F0800101E021F0800101807047EF
:1012D000028822F00802028002880A4302807047D6
:1012E000028822F44072028002880A43028070471A
:1012F0000029018802D041F0010101E021F0010143
:101300000180704730B5028C22F001020284028C09
:101310008388048B22F0020224F073050C882C438E
:101320008D8915434A882A436D4DA84202D0724DDB
:10133000A8420DD122F00805CA8923F440732A433C
:1013400022F004058A882A430D8A1D434B8A2B43C9
:101350008380048389684163028430BD70B5028C48
:1013600022F010020284028C8388048B0D8824F4FE
:10137000E6464FF6FF7404EA052535438E8922F0D0
:10138000200204EA061616434A8804EA021232438F
:10139000534EB04202D0584EB04215D122F08006D2
:1013A000CA8923F4406304EA0212324322F0400661
:1013B0008A8804EA021232430E8A04EA86061E4331
:1013C0004B8A04EA830333438380058389688163FE
:1013D000028470BD70B5028C22F480720284028C8B
:1013E0008388848B0D8824F0730425438E894FF6FF
:1013F000FF7422F4007204EA062616434A8804EABF
:1014000002223243364EB04202D03B4EB04215D19A
:1014100022F40066CA8923F4405304EA02223243CC
:1014200022F480668A8804EA022232430E8A04EAA1
:1014300006161E434B8A04EA0313334383808583D5
:101440008968C163028470BD70B5028C22F4805239
:101450000284058C8288838B0C8823F4E6464FF641
:10146000FF7303EA0424344325F400568D8903EA0C
:10147000053535434E8803EA06362E43184DA842FB
:1014800002D01D4DA84205D122F480450A8A03EA04
:1014900082122A438280848389680164068470BD35
:1014A000002101804180818081608181C181018230
:1014B0004182704730B50124058C00F118038C403F
:1014C000A543058431B308292CD0091FC1F34E0070
:1014D0001844016848F6FF731940016001681AE07A
:1014E000000001400004004000080040000C0040E3
:1014F0000010004000140040000401400040014082
:10150000004401400048014000180040001C004019
:101510000020004006E04FF6FF7303EA0222114369
:10152000016030BD03EB510001684FF68F73194025
:1015300001600168F3E74163704781637047C163ED
:10154000704701647047028B22F070020A430283E5
:101550007047028B4FF6FF7322F4E04203EA012149
:10156000114301837047828B22F070020A43828309
:101570007047828B4FF6FF7322F4E04203EA0121A9
:10158000114381837047028B22F008020A430283D1
:101590007047028B4FF6FF7322F4006203EA0121C9
:1015A000114301837047828B22F008020A43828331
:1015B0007047828B4FF6FF7322F4006203EA012129
:1015C000114381837047028B22F004020A43028395
:1015D0007047028B4FF6FF7322F4806203EA012109
:1015E000114301837047828B22F004020A438283F5
:1015F0007047828B4FF6FF7322F4806203EA012169
:10160000114381837047028B22F080020A430283D8
:101610007047028B4FF6FF73C2F30E0203EA0121FB
:10162000114301837047828B22F080020A43828338
:101630007047828B4FF6FF73C2F30E0203EA01215B
:10164000114381837047028C22F002020A43028414
:101650007047028C22F008020A4302847047028C11
:101660004FF6FF7322F0200203EA011111430184B7
:101670007047028C4FF6FF7322F0800203EA0111DB
:10168000114301847047028C4FF6FF7322F40072FD
:1016900003EA0121114301847047028C4FF6FF7366
:1016A00022F4006203EA0121114301847047028C95
:1016B0004FF6FF7322F4005203EA01311143018413
:1016C000704710B50123048C8B409C430484038C29
:1016D0008A401343038410BD10B50423048C8B404F
:1016E0009C430484038C8A401343038410BD828B83
:1016F00022F440628283828B4FF6FF7303EA01215A
:101700000A4382837047828B22F00C028283828B91
:101710000A4382837047028B22F440620283028B69
:101720004FF6FF7303EA01210A4302837047F0B5C5
:10173000048C24F010040484078B068C4FF6FF748D
:1017400004EA011527F4734704EA0331394304EA34
:1017500002220A4326F0A001294341F0100102832E
:101760000184F0BD028B22F00C020283028B0A433B
:10177000028370472DE9F0410C460E884988A28803
:10178000238905460EB3042E26D0082E2E8C4FF644
:10179000FF7028D026F480562E84AF8B2E8C00EA62
:1017A000022200EA013127F473473A4300EA03308A
:1017B000104326F420420A4342F48051A88329842E
:1017C000E1882846BDE8F04191E700F062F9E18840
:1017D0002846BDE8F041C5E7FFF7A9FFE1882846A4
:1017E000BDE8F04197E726F480762E84AF8B2E8CEF
:1017F00000EA012100EA0310104327F0F307384301
:1018000026F420620A4342F48071A8832984E18887
:101810002846BDE8F04176E70021018041800122A1
:101820008280C180018170472DE9F0410C4600267D
:1018300049880746012501B90226A288012A00D15C
:101840000225208823890028384610D0FFF76FFF33
:10185000E1883846FFF75FFF23892A46314638463C
:1018600000F017F9E1883846BDE8F0417AE700F06A
:1018700010F9E1883846FFF775FF23892A4631467B
:101880003846FFF754FFE1883846BDE8F04142E7AB
:10189000406B7047806B7047C06B7047006C70473F
:1018A00010B50A884B88CC881A438B8823431A4387
:1018B0000B891A434B8989891A430A43A0F84420AB
:1018C00010BD0021018041808180C1800181418162
:1018D00081817047002930F8441F02D041F4004153
:1018E00001E0C1F30E01018070470029818802D018
:1018F00041F0040101E021F00401818070470029DA
:10190000818802D041F0010101E021F001018180D4
:101910007047002A828901D00A4300E08A4382810D
:1019200070478182704702460020128A0A4200D026
:1019300001207047C9430182704702460020138A84
:1019400092890B4202EA010202D0002A00D0012053
:101950007047C943018270471143A0F8481070478F
:10196000002A828901D00A4300E08A4382817047BD
:101970000029818802D041F0080101E021F008012E
:1019800081807047018921F0070101817047028938
:1019900022F070020A430281704700B50346FFF748
:1019A000F6FF188940F00700188100BD70B5164693
:1019B0000D46602904464FF0010231460AD000F07E
:1019C00068F829462046FFF7E2FF208940F007002B
:1019D000208170BDFFF7ABFEF3E730B504894FF609
:1019E000FF7505EA03231343E4B20B43234303814A
:1019F00030BD10B50446FFF7F0FF208940F07700B6
:101A0000208110BD10B50446FFF7E7FF208940F4A0
:101A10008040208110BD828822F0700282808288FE
:101A20000A4382807047028922F0070202810289FC
:101A30000A4302817047028922F0800202810289F2
:101A40000A430281704770B50589048B068C25F026
:101A500007050D434FF6FC410C4040F201110C43C9
:101A60004FF6FF7101EA031126F0220611433143BC
:101A700005810483018470BD0029818802D041F072
:101A8000800101E021F0800181807047A0F85010B2
:101A9000704770B5048C24F001040484058B048C19
:101AA0004FF6FF7606EA0313134325F0F3052B43A5
:101AB00024F00A020A4342F001010383018470BD4D
:101AC0008100A1F1C04140B143F2D20008606FF043
:101AD00070404860C1F8040170474FF0204243F263
:101AE000DB001060F3E710B5D0E901121143D0E933
:101AF00003231A4311434269114382691143C269A6
:101B00001143026A1143426A1143826A1143C26A55
:101B10001143026B1143426B114302689200A2F120
:101B2000C04211608168082907D101688900A1F1CC
:101B3000C0410A6842F040020A60416BB1F5801F63
:101B400015D1016899B14FF020414A680B6822F421
:101B5000700243F480130B600B6843F480730B60D6
:101B6000836BFA4C1B8A04EB035313434B60816B6A
:101B7000D1E9002342EA03128B688C891B0243EAF5
:101B800004431A430B8A42EA03520B7D896942EAF5
:101B900003620A4301688900A1F1C0414A60816A79
:101BA000B1F5804F08D000686FF070418000A0F15F
:101BB000C040C0F8041110BDC16BD1E9002342EA56
:101BC00003128B680C8A1B0243EA04531A430B7DF1
:101BD000896942EA036200680A438000A0F1C040BC
:101BE000C0F8042110BD00210222C0E90012102219
:101BF000C0E902120161C162416112028161C0E962
:101C000007125200C0E9092101634163D049816391
:101C1000C16370478000A0F1C0400029016802D074
:101C200041F0010101E0CB4A11400160704710B55D
:101C3000182340244FF020414FF0FC32102805D0EB
:101C400041F8803F4C608A60CA6010BD0B664C66EC
:101C50008A66CA6610BD30B5D0E901121143D0E9D9
:101C600003231A431143426941EA4221826941EA4E
:101C7000423141F00804C169D1E9002342EA03225C
:101C80000B89097B1B0443EA01610A43016AD1E91C
:101C9000003543EA05230D89097B2D0445EA0161DE
:101CA0000B4301684FF02040102904D040F8804FCA
:101CB0008260C36030BD04668266C36630BD102298
:101CC0000021C0E90021C0E9022101614161816177
:101CD000C269FC211160C2695160C2699160C26928
:101CE000D160026A1160026A5160026A9160006A02
:101CF000C16070474FF0204251B1102804D052F813
:101D0000800F40F004000AE0106E40F004000AE08A
:101D10009049C91E102804D052F8800F0840106066
:101D20007047106E0840106670474FF0204251B166
:101D3000102804D052F8800F40F040000AE0106EE6
:101D400040F040000AE083493F39102804D052F89F
:101D5000800F084010607047106E08401066704792
:101D60004FF02041102802D0D1F894007047486FFE
:101D700070474FF02040182140F8A01F002141601B
:101D80004FF0FC318160C1600161704710B5D0E94E
:101D9000001241EA42218268102343EA4232114391
:101DA0004FF0204242F8A01FC168D1E9003443EA55
:101DB00004230C89097B240444EA01610B439360EA
:101DC0000169D1E9003443EA04230C89097B240426
:101DD00044EA01610B43D3604069D0E9001341EA52
:101DE00003210389007B1B0443EA00600143116166
:101DF00010BD0021016041608160C268FC2111605A
:101E0000C2685160C2689160C268D16002691160A5
:101E100002695160026991600269D1604269116092
:101E200042695160426991604069C16070474FF0FA
:101E30002041002851F8A00F02D040F0040002E039
:101E4000444AD21E1040086070478000A0F1C04094
:101E50004FF43471C0F840116FF07041C0F8481170
:101E60004FF020410020C1F85001C1F85401C1F8E1
:101E700058017047F0B5D0E901121143D0E90323AE
:101E80001A4311434269046A11438269436A114348
:101E9000C26906681143214319434FF0204586B3B8
:101EA00022431A43C5F8402102689200A2F1C042C1
:101EB000C2F840116FF00F021301140301681604F9
:101EC00019B3816AD1E9007C02EB0C127F1E174323
:101ED0008A6803EB022217430A8A04EB0242174383
:101EE000CA68898A120306EB0151A2F580520A439F
:101EF000C5F8482100688000A0F1C040C0F84871D2
:101F0000F0BDFFE7C5F84011D4E7806AD0E90017BB
:101F100002EB0712491E1143826803EB02221143B0
:101F20000D4BC26803EB02321143028A04EB0242FA
:101F30001143828A007E06EB025211431A0302EB20
:101F400000600143C5F84811DAE700000000F0FF27
:101F5000585E0008FEFF0F0000F0FFFF0022026045
:101F60004260102140238260C0E903138023436153
:101F70004B01C0E9063202624262826A1160826AE3
:101F80005160826A9160826AD160826A1161826A5C
:101F90005161806A81617047D0E900121143826803
:101FA0006FF01F03C06803EB421242EA4020014376
:101FB0004FF02040C0F8501170474FF020410028EA
:101FC000D1F8580103D000F018008008704700F0E5
:101FD000060070474FF02041D1F8542142EA4000FA
:101FE000C1F8540170474FF02041D1F8502142EA26
:101FF0004010C1F8500170478000A0F1C040002996
:10200000D0F8401102D041F4007102E047F6FF52CF
:102010001140C0F84011704730B54FF480752C0165
:102020004FF02043A2B1102804D0A84205D153F8A4
:10203000840F06E0586E084313E0A04204D153F821
:10204000A40F0843186030BDD3F85401084313E0CF
:10205000102804D0A84206D153F8840F07E0586E28
:102060008843586630BDA04203D153F8A40F88437B
:10207000E8E7D3F854018843C3F8540130BD002287
:102080004FF0204310280AD0B0F5807F09D0B0F57A
:10209000805F09D0D3F85801814309D107E0586E19
:1020A000FAE7D3F88400F7E7D3F8A400F4E70122B5
:1020B000104670474FF0204210280BD0B0F5807FBB
:1020C0000CD0B0F5805F0CD0D2F854018843C2F830
:1020D00054017047506E88435066704752F8840F21
:1020E00001E052F8A40F88431060704730B5002318
:1020F0001C464FF02045102815D0B0F5807F14D035
:10210000B0F5805F14D0D5F85421D5F8584102EAD3
:10211000010580B101280ED002EAD10008B105B155
:102120000123184630BD6A6EF1E7D5F88420EEE74A
:10213000D5F8A420EBE704F00100EFE74FF02042D0
:1021400010280CD0B0F5807F0ED0B0F5805F0ED097
:10215000D2F8540140F00100C2F854017047506EAB
:1021600020EAD1005066704752F8840F01E052F81F
:10217000A40F20EAD10010607047000010B50121C3
:102180008C062046FEF747FA2046BDE810400021A5
:10219000FEF741BA30B5F74A1368F7490B401360B0
:1021A000038A146845692C4344EA03441460121DF1
:1021B00013680B401360038B1468C5692C4344EA11
:1021C00003441460121D13680B401360038C1468E1
:1021D000456A2C4344EA03441460121D13680B4003
:1021E0001360018D1368C46A234343EA01431360FB
:1021F000111D0A68E14B1A400A60D0E900231A4316
:10220000D0E9023423431A430B681A430A60416B36
:102210000A02018E0B04D74924310C6804F07F4474
:102220000C600C68806B134304431C430C6030BD8E
:102230000021016041608160C16001614161816193
:10224000C161016241628162C16201634163816374
:102250007047C84910310028086802D040F00100DA
:1022600001E020F0010008607047C24910310028E9
:10227000086802D040F4803001E020F4803008602B
:102280007047BC4910310A68BC4B1A400A600A68A2
:102290000B68C2F302120968C3F30223C1F30231CF
:1022A0000260C0E901317047022101604160816034
:1022B0007047B049383108607047AE491C3108603A
:1022C000704770B58A88436803F4704343600B68B5
:1022D00043EA024343608A89836803F4704383605E
:1022E0008B6843EA02438360026922F007020261BD
:1022F0000A690261CA6991F8243014020A8C85695E
:102300001204002686618D6942EA03622543154363
:102310008561426922F0FF0242614A694261C269F5
:1023200040F207739A43C261D1E90A231A43C2619A
:10233000826A86620A6B82620A8FC36A03F0E023B4
:10234000C3624B6B43EA0243C362026B6FF30A0240
:102350000263C96B016370BD00210160416081604F
:10236000FF22C160C0E904128161C1614FF4C06203
:102370000162C0E909120722C0E90B2141638163B0
:10238000C16370470029016802D041F0010101E0FA
:1023900021F001010160704776493C310A68002252
:1023A0000A600A680968120C89B2C0E90021704706
:1023B00000210160416070476E4940310968014267
:1023C00001D0012070470020704710B592B102681B
:1023D00042F0020202604A68C46813020A8904F0EB
:1023E0007F44C460C468096843EA02430C431C4349
:1023F000C46003E0016821F0020101605D49012031
:102400001C31086010BD002101604160816070478F
:102410000029016802D041F0100101E021F0100113
:102420000160544901201C310860704710B58A686A
:1024300014028A8913040A7849681C4341EA02613C
:102440002143016410BD0021016041608160C160D1
:10245000704710B5436803F470434360836803F426
:1024600070438360434B1B1D1C6801EB144312FA3D
:1024700084F20169521C5B1CF1B101291ED00429B0
:102480001ED002291CD003291AD0072918D00121F7
:10249000C46AC4F30C04E41EB4FBF1F1046B1944E8
:1024A000491EC4F30A0443EA014114444160641E16
:1024B00042EA0441816010BD0421E9E70321E7E716
:1024C0000221E5E74161704781627047F0B5036919
:1024D0000BB3012B21D0042B21D0022B1FD0032BB7
:1024E0001DD0072B1BD001234468C4F30C0584685E
:1024F0004E19C4F30C041719761E45EA06454560CB
:102500007F1E44EA074484605943CB1C43EA0141DF
:10251000C1620263F0BD0423E6E70323E4E702237C
:10252000E2E702690AB3012A21D0042A28D0022A4C
:1025300026D0032A24D0072A22D00122C36A1B0CEA
:10254000B3FBF2F3F1B101291ED004291ED00229F8
:102550001CD003291AD0072918D001225343DA1CB2
:1025600042EA0342C262016170470422E6E70322A5
:10257000E4E700000868014000F800F08F88FE0FD3
:102580000222DBE70422E9E70322E7E70222E5E78C
:10259000144A0029116801D0014300E08143116011
:1025A000704701460F4A0020121D12680A4200D0EF
:1025B000012070470B49083108607047094A002123
:1025C000121D1268024200D00121064A126802421E
:1025D00002D009B10120704700207047014908313D
:1025E0000860704734680140C14910B5884202D183
:1025F0000121841424E0BF49884202D1012104143E
:1026000004E0BD4988420AD10121C4132046FDF7E8
:10261000F8FF2046BDE810400021FDF7F2BFB749A2
:10262000884202D1012144140AE0B549884202D10E
:1026300001210C0504E0B34988420AD101214C056F
:102640002046FDF7E8FF2046BDE810400021FDF7D9
:10265000E2BF10BD30B502884C8802F441530A88AD
:10266000CD8822438C882C4322430C8922434C89F9
:1026700022438C892243CC8922431A430280828BD5
:1026800022F400628283098A018230BDF0B5022201
:102690000023858B01244FF2400635408583028458
:1026A000868B8D68022D3DD08A8802B10224964A1D
:1026B00013681B0203D5136823F400031360924AC6
:1026C0007C3213681268C3F388138F4FC2F302720F
:1026D0003F1F3D683F6805F03F057F0201D58B4FE6
:1026E00000E08B4FB7FBF5F55D43B5FBF2F2CB880D
:1026F000B3F5007F2BD06301B2FBF3F202EB820251
:102700008B685200B2FBF3F2521D92B20A23B2FB65
:10271000F3F202F00103D21A4FF6FF74C2F34F0234
:1027200004EA0323941EFE2C01D302220023CC884A
:102730001A43144304840A884B881A438B88898976
:102740000B431A43324342F400618183F0BD120A05
:10275000D4E70021018041808180C18001814181D5
:102760008181C18107210182704700210180418060
:102770008180C180022282608181704700290188A6
:1027800002D041F0400101E021F04001018070479A
:102790000029818B02D041F4806101E021F4806145
:1027A00081837047028822F40062028002880A4313
:1027B00002807047B1F5804F018803D021F4804139
:1027C0000180704741F48041FAE7A1F57E4201881B
:1027D000FF3A02D041F4807101E021F48071018060
:1027E00070470029818802D041F0040101E021F006
:1027F0000401818070470029818802D041F01001D6
:1028000001E021F010018180704730B5828B0023F8
:102810004FF240042240828302220284848B0A8881
:102820004FF48075B2F5007F00D002B92B464A887C
:102830008D8889892A4319430A43224342F400615F
:10284000818330BD8089704781817047002901886C
:1028500002D041F4005101E021F4005101807047A1
:10286000018841F4805101807047012901D0008B1B
:102870007047808A7047008A7047002A828801D09A
:102880000A4300E08A4382807047090901238B4094
:10289000002A828899B201D00A4300E08A438280EC
:1028A00070470246002012890A4200D0012070477A
:1028B000C9430181704730B501F00F03012502467D
:1028C00005FA03F40020A3B2090905FA01F491887E
:1028D000A4B2128921401A4202D0002900D001205E
:1028E00030BD01F00F0201219140C94301817047C1
:1028F0000030014000380040003C004000340140FE
:1029000000500140005401400838024000127A0093
:102910000024F4002DE9FF4F9B462DED028B81B082
:1029200004998908002423468A46009167187E1876
:10293000751800EBC40C00EBC60600EBC70700EBF4
:10294000C505DCED012A97ED004AD6ED015A95ED5B
:10295000006A9CED005AD6ED006A97ED013AD5ED7C
:10296000014A74EE063A72EEA51A35EE261A72EE98
:10297000E52A33EE242A73EE645A4FEA430902EB48
:10298000C90831EE233A98EC020A34EE464A8CED3F
:10299000003A31EE823A35EE665A72EEC44A8CED58
:1029A000013A02EBC30C31EE631A34EE224A35EEE3
:1029B000253ADCED002A75EE653A31EEC22A9CED2F
:1029C000015A63EE226A24EEA27A09EB030C22EE8E
:1029D000006A02EBCC0C22EE202A61EE002ADCED2C
:1029E000001ADCED015A61EE200A23EEA10A64EE22
:1029F000854A23EE053A24EE251A64EE211A32EEBA
:102A0000822A63EEA53A76EE600A36EEA44A37EEE5
:102A1000433A87ED002A30EE010AC7ED010A31EE94
:102A2000E31A86ED004A86ED013A85ED000A85ED50
:102A3000011AAAF10105641C5B445FEA050A7FF4F0
:102A400075AF4FF6FF7404EA8B0A009B99E08E463F
:102A500089080024A04663001E1902EBC30302EBA1
:102A6000C405D3ED006A93ED018A02EBC60395ED30
:102A7000006AD5ED017A93ED007AD3ED018A5444D2
:102A800043465E1800EBC607751800EBC50605EB5C
:102A9000010900EBC30C00EBC9059CED000AD6ED63
:102AA000005ADCED013AD7ED000AD6ED011A95ED9A
:102AB000005A97ED014AD5ED014A30EE652A70EED5
:102AC000C52A33EEE13A73EEA11A74EE243A30EEE1
:102AD000250A70EE850A34EE641A73EE624A71EECE
:102AE000E35A30EE605A32EE014A30EE200A32EEFE
:102AF000412A32EE831A8CED000A31EEA30A65EE0C
:102B0000A61A65EE262A8CED010A65EE885A24EE97
:102B1000860A25EE085A64EE060A64EEA74A61EEBC
:102B2000073A24EE274A22EE073A21EE281A72EEDF
:102B3000A52A22EE282A71EEC51A70EEA40A30EEFC
:102B4000440AC7ED002A33EE011AC7ED011A33EE2D
:102B5000C22AC6ED000A86ED010A85ED001A85ED50
:102B6000012A049D7344AB428BD34B1E08F101082C
:102B700098457FF670AF4FF6FF7404EA8A0A4FEA71
:102B80009B039B46042B3FF662AF009990ED000A31
:102B900090ED042A90ED013A90ED054AD0ED021A2D
:102BA00090ED031AD0ED062AD0ED073A70EE020A36
:102BB00030EE420A33EE042A33EE443A71EEA24A72
:102BC00031EE234A31EE631A71EEE21A70EEA43A46
:102BD00072EE042A70EEE40A72EE444AC0ED003A46
:102BE00030EE014AC0ED012A33EE612AC0ED020A3F
:102BF00030EE410AC0ED034A31EE831A80ED044AFB
:102C000080ED052A80ED060A80ED071A2030491E66
:102C1000BCD101B0BDEC028BBDE8FF8F2DE9FF4FA9
:102C20009B462DED020B2DED048B81B00899890890
:102C3000002423468A46009167187D1805EB010C95
:102C400000EBC40600EBC505D6EC023A00EBC70763
:102C500000EBCC0C95ED007AD5ED015AD7ED002AAA
:102C6000DCED006A33EE873A97ED015A9CED016A7C
:102C700072EEA64A74EE251A4FEA430902EBC90820
:102C800035EE062A74EE655A33EE244AD8EC020A71
:102C900033EE643A86ED004A31EE824A73EEC73A6B
:102CA00035EE466A71EEC24A86ED014A02EBC30672
:102CB00072EEE62A33EEC65A73EE861AD6ED003A65
:102CC00096ED012A35EEA24A09EB030602EBC60691
:102CD00064EEA06A24EE238A75EEE22AD6EC025A4C
:102CE00025EE237A63EE207A24EE024A64EE814ACE
:102CF00023EE011A25EE022A37EE443A37EEE44A73
:102D000062EEA53A36EE811A61EEA50A62EE862AD7
:102D100061EE861A38EE022A87ED004A87ED011A25
:102D200085ED003A70EEE20A85ED012A73EEA11AF4
:102D3000CCED000AAAF10105641CCCED011A5B443C
:102D40005FEA050A7FF478AF4FF6FF7404EA8B0A56
:102D5000009B97E08E4689080024A04663001E1958
:102D600002EBC30302EBC40593ED007AD3ED018AB5
:102D700002EBC603D5ED006A95ED018AD3ED007A2A
:102D800093ED019A544443465E1800EBC60775184C
:102D900000EBC50605EB010900EBC30C00EBC90510
:102DA0009CEC021A734496ED006A97ED002AD7ED69
:102DB000010A96ED014AD5ED005A95ED015A71EEE2
:102DC000464A72EE652A71EEC43A30EEC53A31EEEB
:102DD000061A71EE841A70EE850A32EE252A34EE58
:102DE000C34A33EEA25A31EEE06A71EE425A31EE36
:102DF000021A34EE833A71EEA00A8CED001A73EEDB
:102E0000E22A26EE072A25EE871A26EE286A65EEC4
:102E1000264A65EEA85ACCED010A64EE261A25EE84
:102E2000085A62EEA70A24EE084A63EE273A62EED9
:102E3000892A31EE461A23EE093A32EE252A71EE3E
:102E4000C51A34EE844A87ED001A73EEE22A87ED44
:102E5000012A70EE830AC6ED001A86ED014AC5ED1F
:102E6000002AC5ED010A089DAB428DD34B1E08F127
:102E7000010898457FF672AF4FF6FF7404EA8A0A9C
:102E80004FEA9B039B46042B3FF664AF0099D0EDBD
:102E9000001A90ED044A90ED013AD0ED054A31EE6A
:102EA000842AD0ED030A90ED071A71EEC41AD0ED12
:102EB000022AD0ED063A33EE244A33EE645A70EE1D
:102EC000814A32EEA33A72EEE32A70EEC10A34EE82
:102ED000241A72EE435A72EE033A31EEE03A34EEBF
:102EE000642A71EEA00A35EE224A75EE621A63EE8C
:102EF000802A21EE001A65EE803A22EE002AC0ED0B
:102F0000002A23EE003A80ED011A24EE004AC0EDBB
:102F1000023A60EE800A80ED032A61EE801A80EDAD
:102F2000043A80ED054AC0ED060AC0ED071A2030CC
:102F3000491EACD101B0BDEC048B06B0BDE8F08FEA
:102F400070B504460D4680782188A38962680128FF
:102F50000DD02846FFF7DEFCE07801280DD1E2898C
:102F600021882846A368BDE8704000F010B994EDB0
:102F7000040A2846FFF752FEEEE770BD30B5018027
:102F8000224D4560827000244FF48072C3709142DC
:102F900022D004DC102931D0402906D125E0B1F53A
:102FA000806F0ED0B1F5805F03D04FF0FF34204624
:102FB00030BD01218181C18115499FED160A8160D3
:102FC00007E004218181C18111499FED130A891D08
:102FD000816080ED040AEAE710218181C1810C49FA
:102FE0009FED0E0A1E318160F3E740218181C1818E
:102FF00007499FED0B0A7E318160EAE78281C28139
:1030000008499FED090A8160E3E700007466000843
:10301000745E0008000080390000803A0000803BA8
:103020000000803C726000080000803D2DE9F04106
:1030300017460D460446960834E094ED000AD4ED98
:10304000010A284620EE000A2D1D083400EEA00AD1
:1030500000F03FF894ED000AD4ED010A284620EE76
:10306000000A2D1D083400EEA00A00F032F894ED9D
:10307000000AD4ED010A284620EE000A2D1D08346E
:1030800000EEA00A00F025F894ED000AD4ED010A44
:10309000284620EE000A2D1D083400EEA00A00F09C
:1030A00018F8761E002EC8D107F003060DE094ED47
:1030B000000AD4ED010A284620EE000A2D1D08342E
:1030C00000EEA00A00F005F8761E002EEFD1BDE854
:1030D000F081B5EEC00AF1EE10FA05DDF1EEC00A9E
:1030E000C0ED000A002070479FED030A80ED000A42
:1030F0004FF0FF307047000000000000F0B50024E2
:103100004F1E2546B0EC010ABE082AE0D0ED000AA9
:1031100090ED011A0830B4EEE00AF1EE10FA02D296
:10312000B0EE600A651CF0EC010AB4EEC10AF1EEE3
:1031300010FA02D2B0EE410AA51CB0EC011AB4EEAE
:10314000E00AF1EE10FA02D2B0EE600AE51CB4EE2D
:10315000C10AF1EE10FA02D2B0EE410A251D241D7B
:10316000761E002ED2D107F003040AE0F0EC010A2B
:10317000B4EEE00AF1EE10FA02D2B0EE600A0D1BD6
:10318000641E002CF2D182ED000A1D60F0BDF0B586
:103190004F080024012505EB510E2146A7F1020C32
:1031A00047E0A1422BD200EBC40500EBC106D5EDF0
:1031B000000A96ED000AC6ED000A85ED000AD5ED7D
:1031C000010A96ED010AC6ED010A85ED010A01EB3F
:1031D0000E0500EBC50604EB0E0500EBC50596EDEC
:1031E000000AD5ED000AC6ED000A85ED000AD5ED0E
:1031F000010A96ED010AC6ED010A85ED010A3C447B
:1032000000EBC10500EBC40495ED020AD4ED000A01
:10321000891CC5ED020A84ED000AD4ED010A95ED82
:10322000030AC5ED030A84ED010A1C8803EB42037F
:1032300089B26145B5D9F0BD2DE9F04792464F08F6
:103240000022012404EB51061146A7F1020941E0D6
:10325000914229D250F8314050F8325040F8315064
:1032600040F8324000EBC10400EBC205D4F804C0C2
:10327000D5F80480C4F80480C5F804C08D199419E9
:1032800050F8358050F834C040F835C040F83480EC
:1032900000EBC50500EBC404D5F804C0D4F80480E5
:1032A000C5F80480C4F804C000EBC1043A44A56822
:1032B00050F832C0C4F808C040F8325000EBC202E7
:1032C000E568D2F804C0C4F80CC055601A8803EB56
:1032D0004A03891C4945BBD9BDE8F0872DE9F04771
:1032E00092464E080022012404EB51051146A6F136
:1032F000020921E0914211D250F8214050F8227089
:1033000040F8217040F822404C19571950F824C059
:1033100050F8278040F8248040F827C000EB810453
:103320003244676850F822C0C4F804C040F82270E4
:103330001A8803EB4A03891C4945DBD9CCE7000016
:1033400030B58BB00024054601208DF81400C54827
:103350008DF805400494039402948DF8044085424E
:1033600002D1012180150AE0BF48854202D1012126
:10337000401504E0BD48854204D101210015FDF748
:1033800018F900944FF48030CDE906404FF44070B6
:103390000990089406A8FDF7F8FA69462846FDF753
:1033A000C9FA01212846FDF707FB0BB030BD7CB5FB
:1033B0000D4614460121FDF7D4F803228DF80420B0
:1033C00000238DF806308DF8073000948DF8052025
:1033D00069462846FDF708FA7CBDA249884202D01A
:1033E000A149884203D12022A149042005E09F4938
:1033F000884203D120229F491046D8E77047994957
:10340000884202D09849884203D108229849042072
:1034100005E09649884203D1102296492020C6E74C
:103420007047082292490420C1E7042290491046BF
:10343000BDE702228E490420B9E701228C4904200D
:10344000B5E78849884202D08749884203D10222E1
:103450008949104605E08549884203D108228549FB
:103460002020A4E770477F49884202D07E498842E5
:1034700003D101228049022005E07C49884203D122
:1034800002157C49202092E770477649884202D095
:103490007549884203D180227849012005E07349AB
:1034A000884203D142157349202080E770476D4957
:1034B000884202D06C49884203D140226F490120E2
:1034C00005E06A49884203D182156A4920206EE7E7
:1034D00070476449884202D06349884203D1202260
:1034E0006649012005E06149884203D18022614993
:1034F00020205CE770475B49884202D05A498842E5
:1035000003D110225D49012005E05849884203D1CA
:103510004022584920204AE7704708225749012095
:1035200045E704225549012041E702225349012081
:103530003DE701225149104639E710B50446F1B183
:1035400001291FD0022920D0032921D0042922D00B
:10355000052923D0062924D0072925D0082926D0DB
:10356000092927D00A2928D00B2929D00C292AD0AB
:103570000D292BD00E292CD00F292DD02EE0FFF7AE
:10358000D8FF2BE0FFF7D1FF28E0FFF7CAFF25E0C7
:10359000FFF7C3FF22E0FFF7AEFF1FE0FFF799FF41
:1035A0001CE0FFF784FF19E0FFF76FFF16E0FFF75D
:1035B0005AFF13E0FFF745FF10E0FFF73EFF0DE075
:1035C000FFF737FF0AE0FFF730FF07E0FFF729FFBB
:1035D00004E0FFF714FF01E0FFF7FFFE2046BDE81F
:1035E0001040ADE610B5012304461A46FDF717FA60
:1035F0002046FDF74EFA02212046FDF712FB002877
:10360000F9D02046BDE81040FDF775BA10B501208D
:10361000FDF7F8F91A490120087010BD10B5002017
:10362000FDF7F0F916490020087010BD10B50446EA
:10363000052301221221FDF7F2F92046FDF729FAB0
:1036400002212046FDF7EDFA0028F9D02046FDF7CB
:1036500052FA43F29031484340F6FF71B0FBF1F06B
:1036600080B210BD00200140002101400022014035
:103670000008024000140240000402400000024022
:10368000100000201CB50446B1F1804F0ED08D48CB
:1036900081420BD08C48814208D08C48814205D0B1
:1036A0008B48814202D08B4881420DD18A4840F834
:1036B000241089490120083908550146FCF751FFBB
:1036C00024B1012C04D005E002201CBD102000E034
:1036D0002020009003208DF8040000218DF80610B2
:1036E0008DF807108DF8050069467C48FDF77CF8D9
:1036F00000201CBD2DE9F0410446774817462DED0A
:10370000028B08389CB0005DB0EE408AF0EE608A13
:103710008846E8B3704E56F82400B0F1804F04D0CC
:103720006849884203D12C2114E0242112E0664923
:10373000884201D11C210DE06449884201D1042155
:1037400008E06349884201D1142103E061498842BD
:1037500023D10C210F9113A901F0C0FC384602F0CF
:1037600028FA53EC182B02F073FA41EC100B13A853
:1037700001F0F7FC189858B101214807FCF70FFF3A
:1037800001214805FCF7EDFE00251095129500E09B
:1037900009E054B1012C0BD00EE002201CB0BDECAE
:1037A000028BBDE8F0810120F8E70FA9002001E0BD
:1037B0000FA91020FDF768FA56F8240001F026FD45
:1037C00019A8FDF74DFD1698ADF86C50401E1A90E3
:1037D000179819A9401EADF86400ADF8665056F868
:1037E0002400FDF70DFD56F824002021FEF713F903
:1037F0004020CDF80880CDE903070001CDE9055050
:103800004000079080000890401109904002CDE9E7
:103810000A050120CDE90C050E954FF0606514B145
:10382000012C2FD115E02E482E4F01903846FDF780
:10383000C9FA694638460095FDF74CFB0121384628
:10384000FDF781FB01210020FDF736FA0121002060
:1038500016E0244F18373846FDF7B4FA2048694679
:103860000C30CDE900503846FDF734FB01213846D5
:10387000FDF769FB01211020FDF71EFA0121102040
:10388000FDF768FA56F824000121FDF731FD00200C
:1038900084E739B101290DD0022907D003290DD0C1
:1038A000012070470C49202208310AE00A492022F1
:1038B000883106E008492022483102E00649022208
:1038C000891F17E700080040000C0040001000406E
:1038D00000140040000401401C00002000000240D1
:1038E000087400408860024001B532480099416088
:1038F00041680029FCD108BD01B54FF47A700099E8
:1039000041432C48416041680029FCD108BD294849
:103910008168491C8160C16811B1C168491EC160DC
:103920004168002902D04168491E4160704710B5C6
:10393000204C207800281CD10120FCF7C9FCFCF7A2
:10394000E4FC0028FBD01C481C490068B0FBF1F0E7
:10395000401EB0F1807F0DD24FF0E0214861184A3F
:10396000F02082F8140D00208861072008610120F2
:10397000207010BDFEE70F48806870470D48C06892
:1039800070470C49886070470A49C8607047094809
:103990000078002805D04FF0E020016941F00201D5
:1039A000016170474FF0E020016921F002010161DF
:1039B00070470000E40000200001002040420F009A
:1039C0000FE000E01CB501214020FCF7CAFD4FF4D8
:1039D000C040009000208DF8060001218DF80410F1
:1039E0008DF8070003208DF8050069461D48FCF797
:1039F000FBFE1CBD1CB501210846FCF7B2FD0120F1
:103A0000009000208DF806008DF804008DF8070066
:103A100003208DF8050069461348FCF7E5FE1CBD40
:103A200001461048FCF745BF01460E48FCF743BF6E
:103A300001460C48FCF748BF10B501460948FCF7A1
:103A40002EFF012800D0002010BD01B1E8E7EBE710
:103A500010B501210448FCF718FF012800D0002010
:103A600010BD00000018024000000240FE48002186
:103A700081604171704770B5FB4B00214FF050429F
:103A80004FF4963402EB41069D68491CA142A853AD
:103A9000F8D370BDF4484FF41631816001214171B3
:103AA000704730B591B01E20009040F20D1001908B
:103AB0000420029040F24310039002200490FF2063
:103AC0000590002006900790089009904FF48060C0
:103AD0000A9005200B9040F2E3100D90C01E0E904E
:103AE0004FF4A0700F904FF05040E04C0C9069469E
:103AF0002046FEF7E6FBDE490C914FF4C0610A91C7
:103B0000DA4D07210B91803569462846FEF7D9FB2F
:103B10000120FEF7D2FB01212046FEF733FC0121F4
:103B20002846FEF72FFC0120FEF7C7FB0120FEF719
:103B30009CFB0120FEF78DFBFF212046FEF7C2FC17
:103B400000212846FEF7BEFC0120FEF7B6FB11B0AF
:103B500030BD00B501218FB08806FCF72AFD012198
:103B6000C805FCF7FEFC0020029003900090019035
:103B70000C900D900E9004220721C020FCF714FC3D
:103B80004FF48030FCF7E1FC0120FCF716FC3D20EF
:103B9000FCF7A4FB0028FAD009200490012005902E
:103BA0001D2006900320079040F20D10089040F26F
:103BB0004310099040F217100A9040F247100B9002
:103BC0006846FEF7E7FA0FB000BD70B505464FF442
:103BD0000051A848FCF76FFEA74C04212046FCF7D3
:103BE0006AFE2946A54801F0CCF92046BDE87040A0
:103BF0000421FCF75EBE01B5009801E0401E009074
:103C00000028FBD108BD70B505464FF40051994816
:103C1000FCF74FFE984C04212046FCF74CFE294649
:103C2000964801F0AEF92046BDE870400421FCF74B
:103C300040BE10B5CA20FFF7C8FFC320FFF7E3FF5F
:103C40000820FFF7E0FF5020FFF7DDFFCF20FFF750
:103C5000BCFF0020FFF7D7FFC120FFF7D4FF3020C3
:103C6000FFF7D1FFED20FFF7B0FF6420FFF7CBFF98
:103C70000320FFF7C8FF1220FFF7C5FF8120FFF7E1
:103C8000C2FFE820FFF7A1FF8520FFF7BCFF00205F
:103C9000FFF7B9FF7820FFF7B6FFCB20FFF795FFBE
:103CA0003920FFF7B0FF2C20FFF7ADFF0020FFF712
:103CB000AAFF3420FFF7A7FF0220FFF7A4FFF72099
:103CC000FFF783FF2020FFF79EFFEA20FFF77DFF2D
:103CD0000020FFF798FF0020FFF795FFB120FFF7C6
:103CE00074FF0020FFF78FFF1B20FFF78CFFB6202B
:103CF000FFF76BFF0A20FFF786FFA220FFF783FF85
:103D0000C020FFF762FF1020FFF77DFFC120FFF703
:103D10005CFF1020FFF777FFC520FFF756FF452017
:103D2000FFF771FF1520FFF76EFFC720FFF74DFF6C
:103D30009020FFF768FF3620FFF747FFC820FFF706
:103D400062FFF220FFF741FF0020FFF75CFFB02089
:103D5000FFF73BFFC220FFF756FFB620FFF735FF06
:103D60000A20FFF750FFA720FFF74DFF2720FFF79E
:103D70004AFF0420FFF747FF2A20FFF726FF002015
:103D8000FFF741FF0020FFF73EFF0020FFF73BFF5A
:103D9000EF20FFF738FF2B20FFF717FF0020FFF77A
:103DA00032FF0020FFF72FFF0120FFF72CFF3F20FD
:103DB000FFF729FFF620FFF708FF0120FFF723FF99
:103DC0000020FFF720FF0620FFF71DFF2C20FFF744
:103DD000FCFE2B4C2046FFF70EFF2620FFF7F5FEDA
:103DE0000120FFF710FFE020FFF7EFFE0F20FFF7A5
:103DF0000AFF2920FFF707FF2420FFF704FF0C200C
:103E0000FFF701FF0E20FFF7FEFE0920FFF7FBFE84
:103E10004E20FFF7F8FE7820FFF7F5FE3C20FFF775
:103E2000F2FE0920FFF7EFFE1320FFF7ECFE05205E
:103E3000FFF7E9FE1720FFF7E6FE1120FFF7E3FE8C
:103E40000020FFF7E0FEE120FFF7BFFE0020FFF7B4
:103E5000DAFE1620FFF7D7FE1B20FFF7D4FE042062
:103E6000FFF7D1FE11200DE014010020846801400D
:103E7000005802D0000C02400008024000500140EF
:103E800040420F00FFF7BFFE0720FFF7BCFE3120C6
:103E9000FFF7B9FE3320FFF7B6FE4220FFF7B3FE6F
:103EA0000520FFF7B0FE0C20FFF7ADFE0A20FFF75C
:103EB000AAFE2820FFF7A7FE2F20FFF7A4FE0F2061
:103EC000FFF7A1FE1120FFF780FE2046FFF793FECB
:103ED0002920FFF77AFEBDE810402C2075E62DE979
:103EE000FC4701216F20FCF73CFB03208DF8050007
:103EF00001258DF8045000246803DFF810A48DF824
:103F0000064000908DF8074069465046FCF76CFC6F
:103F10000420FF4E009069463046FCF765FC2803FC
:103F200000908DF8075069465046FCF75DFCF94D4E
:103F30000E2203212846FCF7CBFC0E220421284642
:103F4000FCF7C6FC0E2206212846FCF7C1FC0E2217
:103F50000B212846FCF7BCFC0E220C212846FCF75E
:103F6000B7FCED4F092200213846FCF7B1FC0922CD
:103F700001213846FCF7ACFC0E2208213846FCF73C
:103F8000A7FC0E2209213846FCF7A2FC0E220A21CA
:103F90003846FCF79DFC0E220B213846FCF798FCB6
:103FA0000E2206213046FCF793FC0E2207213046F4
:103FB000FCF78EFC0E220A213046FCF789FC0E220B
:103FC00003215046FCF784FC0E2206215046FCF7E4
:103FD0007FFCDFF848830E220A214046FCF778FC7C
:103FE000DFF83C930E2206214846FCF771FC0E22B6
:103FF00007214846FCF76CFC09220A214846FCF7D9
:1040000067FC0E220B214846FCF762FC09220C21BA
:104010004846FCF75DFC02208DF8040041F658008C
:1040200000908DF8074069462846FCF7DDFB40F616
:104030000370009069463846FCF7D6FB4FF4986051
:10404000009069463046FCF7CFFB48200090694657
:104050005046FCF7C9FB2815009069464046FCF71E
:10406000C3FB4FF4E650009069464846FCF7BCFBA2
:10407000BDE8FC8710B5FFF732FF0421A448FCF728
:1040800018FC0021A74800F05DFF00F0FAFBFFF7E5
:10409000D0FDFFF75EFDFFF704FDA3480021F022ED
:1040A00041800180A14802804FF4A0724280012229
:1040B000027181734171FF22816002734173FFF7C6
:1040C000D5FC4FF6FF742046FFF7D5FCFFF7E2FC66
:1040D0002046FFF7D0FCBDE81040C7E470B5934B15
:1040E0001D8885421DD95C888C421AD99C7B9B68AF
:1040F0004FF050465CB1012C0ED0022C12D0C1F111
:10410000EF0189B2C0EB001001EB001006E0C0F532
:10411000963005FB110001E005FB010006EB4000B5
:104120001A5270BDA0F23F10404280B2EAE77F49C8
:10413000F0224FF4A073887330B1012804D00B80B3
:104140004A800020087170470A804B800120F9E7FF
:1041500010B5764C7648217BFEF7B4F97448617B44
:104160008030FEF7AFF9BDE810400120FEF7A5B89A
:104170006E490873ECE76D494873E9E76B4810B581
:10418000407940B1FFF772FCFF20FFF7F1FF0020FC
:10419000BDE81040EFE7FFF77DFC0020FFF7E8FFE8
:1041A000FF20F5E710B5634A00204FF49633410035
:1041B0008C18A1F14051B4F80048401C0C80984282
:1041C000F5D310BD10B55B4A00204FF49634410082
:1041D000A1F1405311441B88401CA1F80038A042B3
:1041E000F5D310BD2DE9F047DFF83CC1DDE908A9A2
:1041F000ACF800009046ACF802101A781E46104445
:104200004A4A1288904206D970780844ACF80200F5
:104210000020ACF8000000251EE0A8F1200111FBF1
:1042200000507268002432F8107011E007FA04F0B0
:104230000004BCF80200284481B2BCF8000020440D
:1042400080B201D5524600E04A46FFF747FF641CA2
:104250003078A042EAD86D1C7078A842DDD830785A
:10426000BCF800100844ACF80000BDE8F0872DE968
:10427000FC432D4DDDE9099828801F46144606466B
:1042800069800BE00A2A0ED00D2A15D0CDE90098DE
:104290003B4669882888641CFFF7A4FF2278002A1F
:1042A000F0D1BDE8FC8368887978401C08446880B8
:1042B00060780D2802D02E80641CEFE70020288053
:1042C000641CF9E730B54D7800241D8002E00B78BE
:1042D00023449CB210F8013B002BF8D1148030BD70
:1042E0002DE9F84F9446114A0C46054611881F46A1
:1042F000481EA94200D885B2614501D81FFA80FC4A
:104300005188481EA14200D884B215E0000C02403A
:104310000008024000000240000402400014024075
:104320000018024000500140FC0000201401002051
:1043300084680140005002D0B94200D887B2654578
:1043400002D2ACEB050001E0A5EB0C000FFA80F9FE
:10435000BC4201D2381B00E0E01B0FFA80F84FF09E
:10436000FF30654501D2012100E001460091BC42C9
:1043700000D2012083464846C14501DCC8F1000057
:1043800000EBD070401006B2C9F1000A2146284661
:104390000A9AFFF7A3FE654501D1BC4211D0304611
:1043A000564505DDA0EB08010EB2009929448DB2F7
:1043B0004045EBDA06EB090006B204EB0B0084B2D1
:1043C000E4E7BDE8F88F2DE9F8411D46079C164645
:1043D0000F4680460B460094FFF782FF42462B466D
:1043E000394610460094FFF77BFF32462B4639468C
:1043F00010460094FFF774FF2B463246194640469C
:104400000094FFF76DFFBDE8F8812DE9F8411D46E6
:1044100017460C468046079E08E023463A46194652
:1044200040460096FFF75CFF641CA4B2AC42F4D394
:10443000E9E72DE9FF4F0746C2F1010014460FFAE4
:1044400080FCC2EBC43040000FFA80F881B00E4609
:10445000081981B24FF001090025B8B2049AFFF79C
:104460003DFE301B81B2B8B2049AFFF737FE38190F
:10447000B1B280B2049AFFF731FE381BB1B280B2FC
:1044800059E0BCF1000F09DB08F102000FFA80F8D7
:10449000641E0CEB080024B20FFA80FC09F1020044
:1044A0000FFA80F96D1C0CEB09002DB20FFA80FC9D
:1044B000781906EB040A00901FFA8AF180B2049A78
:1044C000FFF70CFEA7EB050B1FFA8AF11FFA8BF022
:1044D000049AFFF703FE0098A6EB040A1FFA8AF17C
:1044E00080B2049AFFF7FAFD1FFA8AF11FFA8BF0E7
:1044F000049AFFF7F3FD381906EB050A00901FFA3E
:104500008AF180B2049AFFF7E9FDA7EB040B1FFACA
:104510008AF11FFA8BF0049AFFF7E0FD0098A6EBF2
:10452000050A1FFA8AF180B2049AFFF7D7FD1FFA35
:104530008AF11FFA8BF0049AFFF7D0FDA542A0DBA9
:1045400005B0BDE8F08F2DE9FE4F0746C2F101002E
:1045500014460FFA80F8C2EBC43040000FFA80FA1C
:104560000E46081981B299464FF0010B0025B8B2EA
:104570001A46FFF7B3FD301B81B2B8B24A46FFF7C7
:10458000ADFD38190190B1B280B24A46FFF7A6FDE1
:10459000A7EB040CB1B21FFA8CF04A46FFF79EFD60
:1045A0000198B3B282B2CDF80090B1B21FFA8CF08C
:1045B00042E0B8F1000F09DB0AF102000FFA80FABD
:1045C000641E08EB0A0024B20FFA80F80BF1020017
:1045D0000FFA80FB6D1C08EB0B002DB20FFA80F870
:1045E000781982B20290781BCDE9009031198BB214
:1045F00089B280B2FFF774FE0198311B82B2029833
:104600008BB2CDF8009089B280B2FFF769FE381BFB
:1046100082B202903819CDE9009071198BB289B23B
:1046200080B2FFF75DFE0298711B82B201988BB2D7
:10463000CDF8009089B280B2FFF752FEA542B8DBF8
:10464000BDE8FE8FA0F1405000787047B0F5000F34
:1046500001D300207047A0F1405001700120704745
:104660001CB502208DF8040000208DF806008DF89E
:10467000070003208DF8050001210220FBF771FFE0
:10468000D54C0C2205212046FCF722F90C220621EC
:104690002046FCF71DF96021009169462046FCF791
:1046A000A3F801210420FBF75CFFCC4C0C22002175
:1046B0002046FCF70DF90121009169462046FCF7E0
:1046C00093F801210820FBF74CFFC54C0C22002178
:1046D0002046FCF7FDF80C2201212046FCF7F8F8F3
:1046E0000C2208212046FCF7F3F80C220921204671
:1046F000FCF7EEF80C220A212046FCF7E9F80C2220
:104700000E212046FCF7E4F80C220F212046FCF78E
:10471000DFF84CF20371009169462046FCF764F81B
:1047200001211020FBF71DFFAE4C0C22002120467A
:10473000FCF7CEF80C2201212046FCF7C9F80C2228
:1047400007212046FCF7C4F80C2208212046FCF77C
:10475000BFF80C2209212046FCF7BAF80C220A21E6
:104760002046FCF7B5F80C220B212046FCF7B0F8E8
:104770000C2211462046FCF7ABF80C220D212046F6
:10478000FCF7A6F80C220E212046FCF7A1F80C221B
:104790000F212046FCF79CF84FF683710091694683
:1047A0002046FCF721F801212020FBF7DAFE8E4C91
:1047B0000C2200212046FCF78BF80C220121204618
:1047C000FCF786F80C2202212046FCF781F80C2227
:1047D00003212046FCF77CF80C2204212046FCF73C
:1047E00077F80C2205212046FCF772F80C220B21E9
:1047F0002046FCF76DF80C2211462046FCF768F8BD
:104800000C220D212046FCF763F80C220E212046D5
:10481000FCF75EF80C220F212046FCF759F84FF602
:104820003F01009169462046FBF7DEFF0121402051
:10483000FBF797FE6D4C0C2200212046FCF748F850
:104840000C2201212046FCF743F80C2204212046CB
:10485000FCF73EF80C2205212046FCF739F80C2223
:1048600008212046FCF734F80C220F212046FCF7E3
:104870002FF848F23311009169462046FBF7B4FF48
:104880001CBD2DE9F0474FF6FF7996B04C46FFF777
:10489000E7FE01210846FBF778FE4FF002084FF0D3
:1048A000040A0FAB40460721524683E80700CDE9D2
:1048B00012181020CDF85480CDE906A0CDF8508014
:1048C000012600254020CDE9046508904FF4C07012
:1048D000CDE90905F002CDE90B0580000D900FA888
:1048E0000E9004A8FDF7C6FACDE902650827CDE9C8
:1048F000006720210120FDF7C2FB08B1641EF8D239
:104900006846FDF749FBCDE90087A846CDE9026876
:104910004D464C4620210120FDF7B1FB08B1641E35
:10492000F8D26846FDF738FB0320CDE90007CDE952
:1049300002782C4620210120FDF7A1FB08B1641E5E
:10494000F8D26846FDF728FB40F23120CDE902603D
:10495000CDE900A72C4620210120FDF790FB08B1EE
:10496000641EF8D26846FDF717FB4FF42A70FDF776
:1049700031FB20210120FDF782FB08B16D1EF8D22A
:1049800010215020FFF762FE19480078102803D04C
:10499000002016B0BDE8F0870120FAE7154A9042E2
:1049A00001D900207047A0F14050018001207047DC
:1049B000A0F14050008870470E4A921E904201D9E3
:1049C00000207047A0F14050016001207047A0F125
:1049D0004050006870470000000402400008024098
:1049E000000C024000100240001402400018024077
:1049F000500000D0FEFF7F0030B587B0012140207D
:104A0000FBF7AFFD00248DF81A408DF81B40032002
:104A10008DF8190002208DF818004FF4E040FF4D8A
:104A2000059005A92846FBF7DFFE05220D21284643
:104A3000FBF74EFF05220C212846FBF749FF052214
:104A40000E212846FBF744FF01214805FBF7B1FD85
:104A50006846FDF77EFE2020ADF80C00ADF8004062
:104A6000ADF804404FF48270ADF80E40ADF802008E
:104A7000ADF80640ADF808406815E94CADF80A00FD
:104A800069462046FDF7E6FD01212046FDF776FE4A
:104A900007B030BD30B587B000248DF81A408DF8CE
:104AA0001B4003218DF819100221DE4D8DF81810DE
:104AB00010B1012818D03CE001212020FBF751FD66
:104AC0004FF46070059005A92846FBF78DFE05227E
:104AD00007212846FBF7FCFE052208212846FBF7A4
:104AE000F7FE0522092121E001212020FBF739FDF5
:104AF00001218020FBF735FDC020059005A928463F
:104B0000FBF772FE4FF40061059105A92846FBF7FB
:104B10006BFE05220B212846FBF7DAFEC24D05226B
:104B200006212846FBF7D4FE052207212846FBF77D
:104B3000CFFE01210805FBF73CFD6846FDF709FEA5
:104B40002020ADF80C00ADF80040ADF804404FF463
:104B50008270ADF80E40ADF80200ADF80640ADF839
:104B600008404FF40070B14CADF80A006946204689
:104B7000FDF770FD01212046FDF700FE88E730B506
:104B800087B000248DF81A408DF81B4003218DF862
:104B900019100221A64D8DF8181010B1012817D058
:104BA00030E001211020FBF7DCFC6420059005A912
:104BB0002846FBF719FE052202212846FBF788FE4E
:104BC000052211462846FBF783FE0522062116E042
:104BD00001211020FBF7C5FC4FF4E040059005A92A
:104BE0002846FBF701FE05220C212846FBF770FE44
:104BF00005220D212846FBF76BFE05220E212846D3
:104C0000FBF766FE01214803FBF7D3FC6846FDF77E
:104C1000A0FD2020ADF80C00ADF80040ADF8044038
:104C20004FF48270ADF80E40ADF80200ADF80640CA
:104C3000ADF808404FF400707E4CADF80A006946AC
:104C40002046FDF707FD01212046FDF797FD1FE7F0
:104C500030B587B000248DF81A408DF81B40032131
:104C60008DF8191002218DF8181010B1012818D0F4
:104C700032E001210220FBF774FC38206E4D0590D4
:104C800005A92846FBF7B0FD062203212846FBF7BD
:104C90001FFE062204212846FBF71AFE06220521E4
:104CA00017E001210420FBF75CFC4FF4E050634D5A
:104CB000059005A92846FBF797FD06220A212846FC
:104CC000FBF706FE06220B212846FBF701FE062213
:104CD0000C212846FBF7FCFD0121C803FBF75FFC14
:104CE0006846FDF736FD2020ADF80C00ADF8004019
:104CF000ADF804404FF48270ADF80E40ADF80200FC
:104D0000ADF80640ADF808404FF400704C4CADF8DB
:104D10000A0069462046FDF79DFC01212046FDF76B
:104D20002DFDB5E670B588B000248DF80640012150
:104D30008DF8071003218DF8051002213E4D8DF8E6
:104D4000041020B1012824D002283AD053E00121D8
:104D50000220FBF706FC01210420FBF702FC0C20DB
:104D6000364E009069463046FBF73EFD3015009008
:104D700069462846FBF738FD052202213046FBF73D
:104D8000A7FD052203213046FBF7A2FD05220A21DB
:104D90002EE001210220FBF7E4FB4FF4604000907D
:104DA00069462846FBF720FD05220D212846FBF722
:104DB0008FFD05220E212846FBF78AFD05220F21D3
:104DC00016E001210802FBF7CCFB0D20009069469C
:104DD0002846FBF709FD1B4D052200212846FBF75D
:104DE00077FD052202212846FBF772FD05220321EB
:104DF0002846FBF76DFD01218803FBF7D0FB02A8D5
:104E0000FDF7A7FC2020ADF81400ADF80C40ADF87C
:104E10000840ADF816404FF4827015E000180240CB
:104E20000054014000140240001C024000500140A8
:104E3000001002400034014000040240000802401B
:104E4000003C004000200240ADF80A00ADF80E40E2
:104E5000ADF810404FF40070984CADF8120002A964
:104E60002046FDF7F7FB01212046FDF787FC08B03F
:104E700070BD30B587B000248DF81A408DF81B4006
:104E800003218DF8191002218DF8181010B1012896
:104E900018D031E001210846FBF763FBE020884D84
:104EA000059005A92846FBF79FFC052211462846D8
:104EB000FBF70EFD052206212846FBF709FD05221A
:104EC000072116E001210220FBF74BFB38207D4D26
:104ED000059005A92846FBF787FC052203212846F3
:104EE000FBF7F6FC052204212846FBF7F1FC05221E
:104EF00011462846FBF7ECFC01210803FBF759FBA0
:104F00006846FDF726FC2020ADF80C00ADF8004007
:104F1000ADF804404FF48270ADF80E40ADF80200D9
:104F2000ADF80640ADF808404FF40070664CADF89F
:104F30000A0069462046FDF78DFB01212046FDF75A
:104F40001DFCA5E5604A904201D1084691E75B4A05
:104F5000904201D10846E5E65C4A904201D10846FC
:104F600076E65B4A904201D1084608E6594A9042EB
:104F700001D108468EE5584A904201D108463BE5EA
:104F8000704710B50446818102212046FDF789FC57
:104F90000028F9D001212046FDF783FC0028F9D034
:104FA00080212046FDF77DFC0028F9D1A089C0B200
:104FB00010BD2DE9F0411D4616460F4680460024DF
:104FC00006E0395D4046FFF7DCFF3055641CA4B2B3
:104FD000AC42F6D3BDE8F0812DE9F04115460E460E
:104FE0000746002405E0315D3846FFF7CAFF641C20
:104FF000A4B2AC42F7D3EDE72DE9F0411D461746C8
:105000000E468046002406E039464046FFF7B9FFC9
:105010003055641CA4B2AC42F6D3DBE710B50446AD
:10502000818102212046FDF73CFC0028F9D00121B6
:105030002046FDF736FC0028F9D080212046FDF7F8
:1050400030FC0028F9D1A08910BD2DE9F0411D46A2
:1050500016460F468046002408E037F814104046F4
:10506000FFF7DCFF26F81400641CA4B2AC42F4D3B2
:10507000B0E72DE9F04115460E460746002406E04C
:1050800036F814103846FFF7C9FF641CA4B2AC42CE
:10509000F6D39FE72DE9F0411D4617460E468046A0
:1050A000002407E039464046FFF7B8FF26F8140011
:1050B000641CA4B2AC42F5D38CE700000038004079
:1050C000000002400004024000300140003C00406B
:1050D0000034014000500140005401407FB50446B7
:1050E0000D466846FBF7A8F94FF6FF70A860B4F1CB
:1050F000804F02D0A1498C4205D1039828604FF01F
:10510000FF30686028E09E498C420BD09D498C425C
:1051100008D09D498C4205D09C498C4202D09C49C4
:105120008C4201D1019915E09A498C4211D09A49DB
:105130008C420ED099498C420BD099498C4208D0B0
:1051400098498C4205D098498C4202D097498C42AC
:1051500005D10399C5E90010002004B070BD0220FC
:10516000FBE72DE9F04704462DED028BB0EE408AB7
:10517000F0EE608A0025006800F01BFD53EC182B50
:1051800000F02AFD07D22561E56003206561BDECD2
:10519000028BBDE8F0879FED860B51EC180B53ECAA
:1051A000102B00F09DFC03D12561E560656124E0D2
:1051B0006068B0F5803F01D2401C60602561D4E991
:1051C00001862768A946761C6D1CB7FBF5F000F038
:1051D000F0FC53EC182B00F02BFB00F0BDFCC4E9F5
:1051E0000305404501D9B542EED9B54207D9C4F807
:1051F0001090C4F80C90C4F814900420C7E751EC48
:10520000180B00F0A9FC60610020C0E75C4910B5F4
:10521000884202D1012108463AE0B0F1804F05D022
:105220005C49884205D10121022045E00121084660
:1052300042E05949884202D1012104203CE04F4913
:10524000884202D10121082036E05449884202D127
:105250000121102030E05249884202D10121202052
:105260002AE04849884202D10121022010E0464943
:10527000884202D1012108040AE04449884202D14F
:105280000121480404E04249884204D101218804F4
:10529000FBF78FF912E04349884202D101214020F7
:1052A0000AE04149884202D10121802004E03F49BF
:1052B000884203D101218015FBF771F9002010BD50
:1052C0002F4910B5884202D1002101203DE0B0F104
:1052D000804F05D02F49884205D10021022048E0A7
:1052E0000021012045E02C49884202D10021042000
:1052F0003FE02249884202D10021082039E02749B5
:10530000884202D10021102033E02549884202D191
:10531000002120202DE01B49884202D100210220DB
:1053200013E01949884203D100214FF480300CE08A
:105330001649884203D100214FF4003005E014499A
:10534000884205D100214FF48020FBF732F912E0AA
:105350001449884202D1002140200AE012498842C3
:1053600002D10021802004E01049884203D10021AD
:105370008015FBF714F9002010BD0000000C004060
:105380000000014000040140004001400044014091
:1053900000480140000400400008004000100040A8
:1053A0000014004000180040001C00400020004095
:1053B000000000000000000000EE903A2DE9F843E4
:1053C000B8EE601A16460C460546C0EE010A00EE1D
:1053D000106ADDE90808B8EE400A20EE800ABCEE4B
:1053E000C00A10EE101A89B2B14206D10090A4EBA7
:1053F000010083B22A4621460FE011D2A4EB010737
:105400002A460090BBB221461046FEF769FFA01B5A
:1054100083B2B9B22A46CDF800801046FEF760FF8D
:10542000BDE8F8832DED048B8AB000F04AF9FEF751
:105430007EFAFEF7C7FAFEF71DFE0220FEF777FEA2
:1054400053490120FEF71EF99FED520B0021012068
:10545000FEF71FFA514C00212046FEF76EF84BF282
:1054600023720021CDE900120A214D4B4DA20846BE
:10547000FEF7FDFEA1469FED568ADFED568ADFF866
:1054800058B19FED569A0BF5006A00244F465D46D1
:105490004FF400761520FEF727FA00213846FEF774
:1054A000A1F800EE100A05EB8400B8EE400A30EED9
:1054B000480A20EE280A80ED000A601C80B205EB45
:1054C0008000A41CA4B280ED009AB442E2D3012370
:1054D0001C020022214602A8FDF750FD3E4902A809
:1054E000FDF72EFD22463E493B48FDF79FFD08ABE8
:1054F00007AA21463A48FDF701FE00244FF6FF7641
:1055000041F234274FF01E085546CDE90076DDED17
:10551000070A05EB84007822FCEEE00A90ED000A11
:10552000DC2110EE900A83B208EB440080B2FFF752
:1055300043FF641CA4B2802CE7D395ED010AD5ED9E
:10554000020A284930EE200AD5ED030A30EE200A7F
:10555000D5ED040A30EE200AD5ED050A30EE200A1A
:10556000D5ED060A30EE200AD5ED070A30EE200A06
:1055700010EE100A88424FF4005006DDFEF750FA94
:105580004FF48040FEF74CFA7FE7FEF74DFA7CE7D8
:1055900000080040000000000088C34000200140D7
:1055A000F4000020464654206772617068696320E9
:1055B0006571756C697A65720A73746D333266341D
:1055C0002D646973636F766572792E636F6D000069
:1055D000000000450000003A240100200000000007
:1055E000240900200000F0427047FEE7FEE7FEE7D6
:1055F000FEE7704770477047704710B5FEF787F9B0
:1056000010BD00001CB500215B4A0091019110689B
:1056100040F4803010604FF4A043106800F4003074
:1056200001900098401C0090019810B90098984291
:10563000F3D11068800342D5012001904E484030DC
:10564000016841F0805101604C49086840F44040D5
:1056500008604948083003680360036843F4004366
:105660000360036843F4A0530360041F444B2360AA
:10567000136843F08073136013689B01FCD50A68BC
:1056800042F480320A604A68D203FCD50A6842F4C8
:1056900000320A604A689203FCD53A4A40F205712A
:1056A0001160016821F003010160016841F002010D
:1056B00001600168C1F381010229FAD11CBD019189
:1056C0001CBD314810B5016841F4700101602A48E1
:1056D000016841F001010160274A00210832116090
:1056E00002682A4B1A400260031D294A1A600268A8
:1056F00022F48022026020480C300160FFF782FF14
:1057000021494FF000608039086010BD70B51A4D16
:10571000083528681F4B204910F00C0004D05E109B
:10572000042803D0082803D00B601BE00E6019E0AA
:10573000114A121D1068C0F38054106800F03F0039
:1057400014B1B6FBF0F001E0B3FBF0F0136812689F
:10575000C3F388135843C2F30142521C5200B0FBFA
:10576000F2F0086028680C4AC0F30310121D105CA8
:105770000A68C2400A6070BD0038024000700040F4
:10578000085A4007003C024088ED00E0FFFFF6FEAB
:10579000103000240024F4000001002070477047FE
:1057A0007047754600F02CF8AE4605006946534632
:1057B00020F00700854618B020B5FAF755FDBDE882
:1057C00020404FF000064FF000074FF000084FF068
:1057D000000B21F00701AC46ACE8C009ACE8C009F9
:1057E000ACE8C009ACE8C0098D46704710B5044666
:1057F000AFF300802046BDE81040FAF720BD00005E
:1058000000487047240D002001491820ABBEFEE778
:10581000260002007047491058BFC1F140415B109B
:1058200058BFC3F140438B42EFF300807047000044
:105830002DE9C04130B4DFF8A0C23CEA111418BF12
:105840003CEA131400F0EC8081EA03051CEA111411
:1058500044EAD57418BF1CEA131500F0C780A4EB06
:1058600005044FF0004545EAC12145EAC32341EA5A
:10587000505143EA525304F17F74994204F50034C5
:105880004FEAC0204FEAC22208BF904200F09C803D
:105890004FEA13650FF24016765D4FEA134506FB9B
:1058A00005F7C7F1807706FB07F74FEAD737A7FB65
:1058B00003687642C8F58038A7FB06CE38BFA8F14A
:1058C000010807FB08E64FF0000EA6FB028CE6FB82
:1058D00003CEDCF1000CCEF1004E38BFAEF1010E6C
:1058E000A6FB0C584FF000074FF00005E6FB0E87B3
:1058F000A1FB08C6A0FB07CE16EB0E0645F100057E
:10590000E1FB076515F1E04E7EBFA4F580345FEA48
:1059100046066D4116F1800745F100054FEA17274D
:105920004FEA066647EA0567A6F1DE46B6F1805FF4
:105930004FEA15251FD9384624F0010C05EBC47138
:10594000BCF1FE6F01EB0C1102D8F0BCBDE8008188
:1059500024425CBF01F5801E9EEAC47F02D4F0BCE5
:10596000BDE80081244238D4F0BCA1F1C041BDE8BB
:10597000004100F065BA4FEAD22242EA43524FEAB0
:10598000D323A7FB02864FEAD02040EA415007FB11
:1059900003661EEA0E0F4FEAD12105FB026658BFCF
:1059A000A6EB0056B6EB00564FEA520E4EEAC37E07
:1059B00018EB0E0E56EB530EBDD518EB02085E41E8
:1059C0007F1C55F10005B6E74FF480154FF0000736
:1059D0004FF000064FF00008ADE7F0BC4FF00000BC
:1059E00001F1C04101F00041BDE8008111EA0C1F46
:1059F0000CEA131500D00CE013EA0C1F00F0258010
:105A00004FF00000F0BC81EA030101F00041BDE865
:105A10000081F0BCBDE8004181EA030100F010BA4A
:105A2000F0BCBDE8004170B500F0BCF9097EFC3E59
:105A300000F007B881EA03014FF0000001F00041D7
:105A4000704781EA030100F0FBB9F0BCBDE80041FA
:105A50004FF0000021497047FFFDFBF9F7F5F4F224
:105A6000F0EEEDEBE9E8E6E4E3E1E0DEDDDBDAD8F9
:105A7000D7D5D4D3D1D0CFCDCCCBCAC8C7C6C5C457
:105A8000C2C1C0BFBEBDBCBBBAB9B8B7B6B5B4B36E
:105A9000B2B1B0AFAEADACABAAA9A8A8A7A6A5A459
:105AA000A3A3A2A1A09F9F9E9D9C9C9B9A9999981D
:105AB0009797969595949393929191908F8F8E8EC0
:105AC0008D8C8C8B8B8A898988888787868585844D
:105AD00084838382828181800000FF070000F87F39
